{
	"RE_dApp/OwnershipToken.sol": {
		"OwnershipToken": {
			"abi": [
				{
					"constant": false,
					"inputs": [
						{
							"name": "newPropertyValue",
							"type": "uint256"
						}
					],
					"name": "updateTokenValue",
					"outputs": [],
					"payable": false,
					"stateMutability": "nonpayable",
					"type": "function"
				},
				{
					"constant": true,
					"inputs": [],
					"name": "name",
					"outputs": [
						{
							"name": "",
							"type": "string"
						}
					],
					"payable": false,
					"stateMutability": "view",
					"type": "function"
				},
				{
					"constant": true,
					"inputs": [],
					"name": "getTokenValue",
					"outputs": [
						{
							"name": "",
							"type": "uint256"
						}
					],
					"payable": false,
					"stateMutability": "view",
					"type": "function"
				},
				{
					"constant": false,
					"inputs": [
						{
							"name": "spender",
							"type": "address"
						},
						{
							"name": "amount",
							"type": "uint256"
						}
					],
					"name": "approve",
					"outputs": [
						{
							"name": "",
							"type": "bool"
						}
					],
					"payable": false,
					"stateMutability": "nonpayable",
					"type": "function"
				},
				{
					"constant": true,
					"inputs": [],
					"name": "totalSupply",
					"outputs": [
						{
							"name": "",
							"type": "uint256"
						}
					],
					"payable": false,
					"stateMutability": "view",
					"type": "function"
				},
				{
					"constant": false,
					"inputs": [
						{
							"name": "sender",
							"type": "address"
						},
						{
							"name": "recipient",
							"type": "address"
						},
						{
							"name": "amount",
							"type": "uint256"
						}
					],
					"name": "transferFrom",
					"outputs": [
						{
							"name": "",
							"type": "bool"
						}
					],
					"payable": false,
					"stateMutability": "nonpayable",
					"type": "function"
				},
				{
					"constant": true,
					"inputs": [],
					"name": "decimals",
					"outputs": [
						{
							"name": "",
							"type": "uint8"
						}
					],
					"payable": false,
					"stateMutability": "view",
					"type": "function"
				},
				{
					"constant": false,
					"inputs": [],
					"name": "purchaseTokens",
					"outputs": [],
					"payable": true,
					"stateMutability": "payable",
					"type": "function"
				},
				{
					"constant": true,
					"inputs": [
						{
							"name": "account",
							"type": "address"
						}
					],
					"name": "getInitialTokenValue",
					"outputs": [
						{
							"name": "",
							"type": "uint256"
						}
					],
					"payable": false,
					"stateMutability": "view",
					"type": "function"
				},
				{
					"constant": false,
					"inputs": [
						{
							"name": "spender",
							"type": "address"
						},
						{
							"name": "addedValue",
							"type": "uint256"
						}
					],
					"name": "increaseAllowance",
					"outputs": [
						{
							"name": "",
							"type": "bool"
						}
					],
					"payable": false,
					"stateMutability": "nonpayable",
					"type": "function"
				},
				{
					"constant": false,
					"inputs": [
						{
							"name": "account",
							"type": "address"
						},
						{
							"name": "amount",
							"type": "uint256"
						}
					],
					"name": "mint",
					"outputs": [
						{
							"name": "",
							"type": "bool"
						}
					],
					"payable": false,
					"stateMutability": "nonpayable",
					"type": "function"
				},
				{
					"constant": true,
					"inputs": [
						{
							"name": "account",
							"type": "address"
						}
					],
					"name": "balanceOf",
					"outputs": [
						{
							"name": "",
							"type": "uint256"
						}
					],
					"payable": false,
					"stateMutability": "view",
					"type": "function"
				},
				{
					"constant": false,
					"inputs": [],
					"name": "renounceOwnership",
					"outputs": [],
					"payable": false,
					"stateMutability": "nonpayable",
					"type": "function"
				},
				{
					"constant": true,
					"inputs": [],
					"name": "currentPropertyValue",
					"outputs": [
						{
							"name": "",
							"type": "uint256"
						}
					],
					"payable": false,
					"stateMutability": "view",
					"type": "function"
				},
				{
					"constant": true,
					"inputs": [],
					"name": "owner",
					"outputs": [
						{
							"name": "",
							"type": "address"
						}
					],
					"payable": false,
					"stateMutability": "view",
					"type": "function"
				},
				{
					"constant": true,
					"inputs": [],
					"name": "isOwner",
					"outputs": [
						{
							"name": "",
							"type": "bool"
						}
					],
					"payable": false,
					"stateMutability": "view",
					"type": "function"
				},
				{
					"constant": true,
					"inputs": [],
					"name": "symbol",
					"outputs": [
						{
							"name": "",
							"type": "string"
						}
					],
					"payable": false,
					"stateMutability": "view",
					"type": "function"
				},
				{
					"constant": false,
					"inputs": [
						{
							"name": "account",
							"type": "address"
						}
					],
					"name": "addMinter",
					"outputs": [],
					"payable": false,
					"stateMutability": "nonpayable",
					"type": "function"
				},
				{
					"constant": false,
					"inputs": [],
					"name": "renounceMinter",
					"outputs": [],
					"payable": false,
					"stateMutability": "nonpayable",
					"type": "function"
				},
				{
					"constant": false,
					"inputs": [
						{
							"name": "spender",
							"type": "address"
						},
						{
							"name": "subtractedValue",
							"type": "uint256"
						}
					],
					"name": "decreaseAllowance",
					"outputs": [
						{
							"name": "",
							"type": "bool"
						}
					],
					"payable": false,
					"stateMutability": "nonpayable",
					"type": "function"
				},
				{
					"constant": false,
					"inputs": [
						{
							"name": "recipient",
							"type": "address"
						},
						{
							"name": "amount",
							"type": "uint256"
						}
					],
					"name": "transfer",
					"outputs": [
						{
							"name": "",
							"type": "bool"
						}
					],
					"payable": false,
					"stateMutability": "nonpayable",
					"type": "function"
				},
				{
					"constant": true,
					"inputs": [
						{
							"name": "account",
							"type": "address"
						}
					],
					"name": "isMinter",
					"outputs": [
						{
							"name": "",
							"type": "bool"
						}
					],
					"payable": false,
					"stateMutability": "view",
					"type": "function"
				},
				{
					"constant": true,
					"inputs": [
						{
							"name": "owner",
							"type": "address"
						},
						{
							"name": "spender",
							"type": "address"
						}
					],
					"name": "allowance",
					"outputs": [
						{
							"name": "",
							"type": "uint256"
						}
					],
					"payable": false,
					"stateMutability": "view",
					"type": "function"
				},
				{
					"constant": false,
					"inputs": [
						{
							"name": "newOwner",
							"type": "address"
						}
					],
					"name": "transferOwnership",
					"outputs": [],
					"payable": false,
					"stateMutability": "nonpayable",
					"type": "function"
				},
				{
					"constant": true,
					"inputs": [],
					"name": "initialPropertyPrice",
					"outputs": [
						{
							"name": "",
							"type": "uint256"
						}
					],
					"payable": false,
					"stateMutability": "view",
					"type": "function"
				},
				{
					"inputs": [
						{
							"name": "_initialPropertyPrice",
							"type": "uint256"
						},
						{
							"name": "_currentPropertyValue",
							"type": "uint256"
						}
					],
					"payable": false,
					"stateMutability": "nonpayable",
					"type": "constructor"
				},
				{
					"anonymous": false,
					"inputs": [
						{
							"indexed": true,
							"name": "previousOwner",
							"type": "address"
						},
						{
							"indexed": true,
							"name": "newOwner",
							"type": "address"
						}
					],
					"name": "OwnershipTransferred",
					"type": "event"
				},
				{
					"anonymous": false,
					"inputs": [
						{
							"indexed": true,
							"name": "account",
							"type": "address"
						}
					],
					"name": "MinterAdded",
					"type": "event"
				},
				{
					"anonymous": false,
					"inputs": [
						{
							"indexed": true,
							"name": "account",
							"type": "address"
						}
					],
					"name": "MinterRemoved",
					"type": "event"
				},
				{
					"anonymous": false,
					"inputs": [
						{
							"indexed": true,
							"name": "from",
							"type": "address"
						},
						{
							"indexed": true,
							"name": "to",
							"type": "address"
						},
						{
							"indexed": false,
							"name": "value",
							"type": "uint256"
						}
					],
					"name": "Transfer",
					"type": "event"
				},
				{
					"anonymous": false,
					"inputs": [
						{
							"indexed": true,
							"name": "owner",
							"type": "address"
						},
						{
							"indexed": true,
							"name": "spender",
							"type": "address"
						},
						{
							"indexed": false,
							"name": "value",
							"type": "uint256"
						}
					],
					"name": "Approval",
					"type": "event"
				}
			],
			"devdoc": {
				"methods": {
					"allowance(address,address)": {
						"details": "See {IERC20-allowance}."
					},
					"approve(address,uint256)": {
						"details": "See {IERC20-approve}.     * Requirements:     * - `spender` cannot be the zero address."
					},
					"balanceOf(address)": {
						"details": "See {IERC20-balanceOf}."
					},
					"decimals()": {
						"details": "Returns the number of decimals used to get its user representation. For example, if `decimals` equals `2`, a balance of `505` tokens should be displayed to a user as `5,05` (`505 / 10 ** 2`).     * Tokens usually opt for a value of 18, imitating the relationship between Ether and Wei.     * NOTE: This information is only used for _display_ purposes: it in no way affects any of the arithmetic of the contract, including {IERC20-balanceOf} and {IERC20-transfer}."
					},
					"decreaseAllowance(address,uint256)": {
						"details": "Atomically decreases the allowance granted to `spender` by the caller.     * This is an alternative to {approve} that can be used as a mitigation for problems described in {IERC20-approve}.     * Emits an {Approval} event indicating the updated allowance.     * Requirements:     * - `spender` cannot be the zero address. - `spender` must have allowance for the caller of at least `subtractedValue`."
					},
					"increaseAllowance(address,uint256)": {
						"details": "Atomically increases the allowance granted to `spender` by the caller.     * This is an alternative to {approve} that can be used as a mitigation for problems described in {IERC20-approve}.     * Emits an {Approval} event indicating the updated allowance.     * Requirements:     * - `spender` cannot be the zero address."
					},
					"isOwner()": {
						"details": "Returns true if the caller is the current owner."
					},
					"mint(address,uint256)": {
						"details": "See {ERC20-_mint}.     * Requirements:     * - the caller must have the {MinterRole}."
					},
					"name()": {
						"details": "Returns the name of the token."
					},
					"owner()": {
						"details": "Returns the address of the current owner."
					},
					"renounceOwnership()": {
						"details": "Leaves the contract without owner. It will not be possible to call `onlyOwner` functions anymore. Can only be called by the current owner.     * NOTE: Renouncing ownership will leave the contract without an owner, thereby removing any functionality that is only available to the owner."
					},
					"symbol()": {
						"details": "Returns the symbol of the token, usually a shorter version of the name."
					},
					"totalSupply()": {
						"details": "See {IERC20-totalSupply}."
					},
					"transferFrom(address,address,uint256)": {
						"details": "See {IERC20-transferFrom}.     * Emits an {Approval} event indicating the updated allowance. This is not required by the EIP. See the note at the beginning of {ERC20};     * Requirements: - `sender` and `recipient` cannot be the zero address. - `sender` must have a balance of at least `amount`. - the caller must have allowance for `sender`'s tokens of at least `amount`."
					},
					"transferOwnership(address)": {
						"details": "Transfers ownership of the contract to a new account (`newOwner`). Can only be called by the current owner."
					}
				}
			},
			"evm": {
				"assembly": "    /* \"RE_dApp/OwnershipToken.sol\":510:2585  contract OwnershipToken is ERC20, ERC20Detailed, ERC20Mintable, Ownable {... */\n  mstore(0x40, 0x80)\n    /* \"RE_dApp/OwnershipToken.sol\":731:1164  constructor(uint256 _initialPropertyPrice, uint256 _currentPropertyValue) ERC20Detailed(\"OwnershipToken\", \"OWN\", 2) public {... */\n  callvalue\n    /* \"--CODEGEN--\":8:17   */\n  dup1\n    /* \"--CODEGEN--\":5:7   */\n  iszero\n  tag_1\n  jumpi\n    /* \"--CODEGEN--\":30:31   */\n  0x00\n    /* \"--CODEGEN--\":27:28   */\n  dup1\n    /* \"--CODEGEN--\":20:32   */\n  revert\n    /* \"--CODEGEN--\":5:7   */\ntag_1:\n    /* \"RE_dApp/OwnershipToken.sol\":731:1164  constructor(uint256 _initialPropertyPrice, uint256 _currentPropertyValue) ERC20Detailed(\"OwnershipToken\", \"OWN\", 2) public {... */\n  pop\n  mload(0x40)\n  0x40\n  dup1\n  bytecodeSize\n  dup4\n  codecopy\n  dup2\n  add\n  dup1\n  0x40\n  mstore\n    /* \"--CODEGEN--\":13:15   */\n  0x40\n    /* \"--CODEGEN--\":8:11   */\n  dup2\n    /* \"--CODEGEN--\":5:16   */\n  lt\n    /* \"--CODEGEN--\":2:4   */\n  iszero\n  tag_2\n  jumpi\n    /* \"--CODEGEN--\":29:30   */\n  0x00\n    /* \"--CODEGEN--\":26:27   */\n  dup1\n    /* \"--CODEGEN--\":19:31   */\n  revert\n    /* \"--CODEGEN--\":2:4   */\ntag_2:\n    /* \"RE_dApp/OwnershipToken.sol\":731:1164  constructor(uint256 _initialPropertyPrice, uint256 _currentPropertyValue) ERC20Detailed(\"OwnershipToken\", \"OWN\", 2) public {... */\n  dup2\n  add\n  swap1\n  dup1\n  dup1\n  mload\n  swap1\n  0x20\n  add\n  swap1\n  swap3\n  swap2\n  swap1\n  dup1\n  mload\n  swap1\n  0x20\n  add\n  swap1\n  swap3\n  swap2\n  swap1\n  pop\n  pop\n  pop\n    /* \"https://github.com/OpenZeppelin/openzeppelin-contracts/blob/v2.5.0/contracts/token/ERC20/ERC20Detailed.sol\":416:579  constructor (string memory name, string memory symbol, uint8 decimals) public {... */\n  mload(0x40)\n  dup1\n  0x40\n  add\n  0x40\n  mstore\n  dup1\n  0x0e\n  dup2\n  mstore\n  0x20\n  add\n  0x4f776e657273686970546f6b656e000000000000000000000000000000000000\n  dup2\n  mstore\n  pop\n  mload(0x40)\n  dup1\n  0x40\n  add\n  0x40\n  mstore\n  dup1\n  0x03\n  dup2\n  mstore\n  0x20\n  add\n  0x4f574e0000000000000000000000000000000000000000000000000000000000\n  dup2\n  mstore\n  pop\n    /* \"RE_dApp/OwnershipToken.sol\":844:845  2 */\n  0x02\n    /* \"https://github.com/OpenZeppelin/openzeppelin-contracts/blob/v2.5.0/contracts/token/ERC20/ERC20Detailed.sol\":512:516  name */\n  dup3\n    /* \"https://github.com/OpenZeppelin/openzeppelin-contracts/blob/v2.5.0/contracts/token/ERC20/ERC20Detailed.sol\":504:509  _name */\n  0x03\n    /* \"https://github.com/OpenZeppelin/openzeppelin-contracts/blob/v2.5.0/contracts/token/ERC20/ERC20Detailed.sol\":504:516  _name = name */\n  swap1\n  dup1\n  mload\n  swap1\n  0x20\n  add\n  swap1\n  tag_10\n  swap3\n  swap2\n  swap1\n  tag_11\n  jump\t// in\ntag_10:\n  pop\n    /* \"https://github.com/OpenZeppelin/openzeppelin-contracts/blob/v2.5.0/contracts/token/ERC20/ERC20Detailed.sol\":536:542  symbol */\n  dup2\n    /* \"https://github.com/OpenZeppelin/openzeppelin-contracts/blob/v2.5.0/contracts/token/ERC20/ERC20Detailed.sol\":526:533  _symbol */\n  0x04\n    /* \"https://github.com/OpenZeppelin/openzeppelin-contracts/blob/v2.5.0/contracts/token/ERC20/ERC20Detailed.sol\":526:542  _symbol = symbol */\n  swap1\n  dup1\n  mload\n  swap1\n  0x20\n  add\n  swap1\n  tag_12\n  swap3\n  swap2\n  swap1\n  tag_11\n  jump\t// in\ntag_12:\n  pop\n    /* \"https://github.com/OpenZeppelin/openzeppelin-contracts/blob/v2.5.0/contracts/token/ERC20/ERC20Detailed.sol\":564:572  decimals */\n  dup1\n    /* \"https://github.com/OpenZeppelin/openzeppelin-contracts/blob/v2.5.0/contracts/token/ERC20/ERC20Detailed.sol\":552:561  _decimals */\n  0x05\n  0x00\n    /* \"https://github.com/OpenZeppelin/openzeppelin-contracts/blob/v2.5.0/contracts/token/ERC20/ERC20Detailed.sol\":552:572  _decimals = decimals */\n  0x0100\n  exp\n  dup2\n  sload\n  dup2\n  0xff\n  mul\n  not\n  and\n  swap1\n  dup4\n  0xff\n  and\n  mul\n  or\n  swap1\n  sstore\n  pop\n    /* \"https://github.com/OpenZeppelin/openzeppelin-contracts/blob/v2.5.0/contracts/token/ERC20/ERC20Detailed.sol\":416:579  constructor (string memory name, string memory symbol, uint8 decimals) public {... */\n  pop\n  pop\n  pop\n    /* \"https://github.com/OpenZeppelin/openzeppelin-contracts/blob/v2.5.0/contracts/access/roles/MinterRole.sol\":318:342  _addMinter(_msgSender()) */\n  tag_14\n    /* \"https://github.com/OpenZeppelin/openzeppelin-contracts/blob/v2.5.0/contracts/access/roles/MinterRole.sol\":329:341  _msgSender() */\n  tag_15\n    /* \"https://github.com/OpenZeppelin/openzeppelin-contracts/blob/v2.5.0/contracts/access/roles/MinterRole.sol\":329:339  _msgSender */\n  shl(0x20, tag_16)\n    /* \"https://github.com/OpenZeppelin/openzeppelin-contracts/blob/v2.5.0/contracts/access/roles/MinterRole.sol\":329:341  _msgSender() */\n  0x20\n  shr\n  jump\t// in\ntag_15:\n    /* \"https://github.com/OpenZeppelin/openzeppelin-contracts/blob/v2.5.0/contracts/access/roles/MinterRole.sol\":318:328  _addMinter */\n  shl(0x20, tag_17)\n    /* \"https://github.com/OpenZeppelin/openzeppelin-contracts/blob/v2.5.0/contracts/access/roles/MinterRole.sol\":318:342  _addMinter(_msgSender()) */\n  0x20\n  shr\n  jump\t// in\ntag_14:\n    /* \"https://github.com/OpenZeppelin/openzeppelin-contracts/blob/v2.5.0/contracts/ownership/Ownable.sol\":698:715  address msgSender */\n  0x00\n    /* \"https://github.com/OpenZeppelin/openzeppelin-contracts/blob/v2.5.0/contracts/ownership/Ownable.sol\":718:730  _msgSender() */\n  tag_19\n    /* \"https://github.com/OpenZeppelin/openzeppelin-contracts/blob/v2.5.0/contracts/ownership/Ownable.sol\":718:728  _msgSender */\n  shl(0x20, tag_16)\n    /* \"https://github.com/OpenZeppelin/openzeppelin-contracts/blob/v2.5.0/contracts/ownership/Ownable.sol\":718:730  _msgSender() */\n  0x20\n  shr\n  jump\t// in\ntag_19:\n    /* \"https://github.com/OpenZeppelin/openzeppelin-contracts/blob/v2.5.0/contracts/ownership/Ownable.sol\":698:730  address msgSender = _msgSender() */\n  swap1\n  pop\n    /* \"https://github.com/OpenZeppelin/openzeppelin-contracts/blob/v2.5.0/contracts/ownership/Ownable.sol\":749:758  msgSender */\n  dup1\n    /* \"https://github.com/OpenZeppelin/openzeppelin-contracts/blob/v2.5.0/contracts/ownership/Ownable.sol\":740:746  _owner */\n  0x07\n  0x00\n    /* \"https://github.com/OpenZeppelin/openzeppelin-contracts/blob/v2.5.0/contracts/ownership/Ownable.sol\":740:758  _owner = msgSender */\n  0x0100\n  exp\n  dup2\n  sload\n  dup2\n  0xffffffffffffffffffffffffffffffffffffffff\n  mul\n  not\n  and\n  swap1\n  dup4\n  0xffffffffffffffffffffffffffffffffffffffff\n  and\n  mul\n  or\n  swap1\n  sstore\n  pop\n    /* \"https://github.com/OpenZeppelin/openzeppelin-contracts/blob/v2.5.0/contracts/ownership/Ownable.sol\":806:815  msgSender */\n  dup1\n    /* \"https://github.com/OpenZeppelin/openzeppelin-contracts/blob/v2.5.0/contracts/ownership/Ownable.sol\":773:816  OwnershipTransferred(address(0), msgSender) */\n  0xffffffffffffffffffffffffffffffffffffffff\n  and\n    /* \"https://github.com/OpenZeppelin/openzeppelin-contracts/blob/v2.5.0/contracts/ownership/Ownable.sol\":802:803  0 */\n  0x00\n    /* \"https://github.com/OpenZeppelin/openzeppelin-contracts/blob/v2.5.0/contracts/ownership/Ownable.sol\":773:816  OwnershipTransferred(address(0), msgSender) */\n  0xffffffffffffffffffffffffffffffffffffffff\n  and\n  0x8be0079c531659141344cd1fd0a4f28419497f9722a3daafe3b4186f6b6457e0\n  mload(0x40)\n  mload(0x40)\n  dup1\n  swap2\n  sub\n  swap1\n  log3\n    /* \"https://github.com/OpenZeppelin/openzeppelin-contracts/blob/v2.5.0/contracts/ownership/Ownable.sol\":664:823  constructor () internal {... */\n  pop\n    /* \"RE_dApp/OwnershipToken.sol\":887:908  _initialPropertyPrice */\n  dup2\n    /* \"RE_dApp/OwnershipToken.sol\":864:884  initialPropertyPrice */\n  0x08\n    /* \"RE_dApp/OwnershipToken.sol\":864:908  initialPropertyPrice = _initialPropertyPrice */\n  dup2\n  swap1\n  sstore\n  pop\n    /* \"RE_dApp/OwnershipToken.sol\":941:962  _currentPropertyValue */\n  dup1\n    /* \"RE_dApp/OwnershipToken.sol\":918:938  currentPropertyValue */\n  0x09\n    /* \"RE_dApp/OwnershipToken.sol\":918:962  currentPropertyValue = _currentPropertyValue */\n  dup2\n  swap1\n  sstore\n  pop\n    /* \"RE_dApp/OwnershipToken.sol\":972:1024  _mint(msg.sender, 100 * (10 ** uint256(decimals()))) */\n  tag_21\n    /* \"RE_dApp/OwnershipToken.sol\":978:988  msg.sender */\n  caller\n    /* \"RE_dApp/OwnershipToken.sol\":1011:1021  decimals() */\n  tag_22\n    /* \"RE_dApp/OwnershipToken.sol\":1011:1019  decimals */\n  shl(0x20, tag_23)\n    /* \"RE_dApp/OwnershipToken.sol\":1011:1021  decimals() */\n  0x20\n  shr\n  jump\t// in\ntag_22:\n    /* \"RE_dApp/OwnershipToken.sol\":1003:1022  uint256(decimals()) */\n  0xff\n  and\n    /* \"RE_dApp/OwnershipToken.sol\":997:999  10 */\n  0x0a\n    /* \"RE_dApp/OwnershipToken.sol\":997:1022  10 ** uint256(decimals()) */\n  exp\n    /* \"RE_dApp/OwnershipToken.sol\":990:993  100 */\n  0x64\n    /* \"RE_dApp/OwnershipToken.sol\":990:1023  100 * (10 ** uint256(decimals())) */\n  mul\n    /* \"RE_dApp/OwnershipToken.sol\":972:977  _mint */\n  shl(0x20, tag_24)\n    /* \"RE_dApp/OwnershipToken.sol\":972:1024  _mint(msg.sender, 100 * (10 ** uint256(decimals()))) */\n  0x20\n  shr\n  jump\t// in\ntag_21:\n    /* \"RE_dApp/OwnershipToken.sol\":1119:1122  100 */\n  0x64\n    /* \"RE_dApp/OwnershipToken.sol\":1095:1116  _initialPropertyPrice */\n  dup3\n    /* \"RE_dApp/OwnershipToken.sol\":1095:1122  _initialPropertyPrice / 100 */\n  dup2\n  iszero\n  iszero\n  tag_25\n  jumpi\n  invalid\ntag_25:\n  div\n    /* \"RE_dApp/OwnershipToken.sol\":1062:1080  initialTokenValues */\n  0x0a\n    /* \"RE_dApp/OwnershipToken.sol\":1062:1092  initialTokenValues[msg.sender] */\n  0x00\n    /* \"RE_dApp/OwnershipToken.sol\":1081:1091  msg.sender */\n  caller\n    /* \"RE_dApp/OwnershipToken.sol\":1062:1092  initialTokenValues[msg.sender] */\n  0xffffffffffffffffffffffffffffffffffffffff\n  and\n  0xffffffffffffffffffffffffffffffffffffffff\n  and\n  dup2\n  mstore\n  0x20\n  add\n  swap1\n  dup2\n  mstore\n  0x20\n  add\n  0x00\n  keccak256\n    /* \"RE_dApp/OwnershipToken.sol\":1062:1122  initialTokenValues[msg.sender] = _initialPropertyPrice / 100 */\n  dup2\n  swap1\n  sstore\n  pop\n    /* \"RE_dApp/OwnershipToken.sol\":731:1164  constructor(uint256 _initialPropertyPrice, uint256 _currentPropertyValue) ERC20Detailed(\"OwnershipToken\", \"OWN\", 2) public {... */\n  pop\n  pop\n    /* \"RE_dApp/OwnershipToken.sol\":510:2585  contract OwnershipToken is ERC20, ERC20Detailed, ERC20Mintable, Ownable {... */\n  jump(tag_26)\n    /* \"https://github.com/OpenZeppelin/openzeppelin-contracts/blob/v2.5.0/contracts/GSN/Context.sol\":788:884  function _msgSender() internal view returns (address payable) {... */\ntag_16:\n    /* \"https://github.com/OpenZeppelin/openzeppelin-contracts/blob/v2.5.0/contracts/GSN/Context.sol\":833:848  address payable */\n  0x00\n    /* \"https://github.com/OpenZeppelin/openzeppelin-contracts/blob/v2.5.0/contracts/GSN/Context.sol\":867:877  msg.sender */\n  caller\n    /* \"https://github.com/OpenZeppelin/openzeppelin-contracts/blob/v2.5.0/contracts/GSN/Context.sol\":860:877  return msg.sender */\n  swap1\n  pop\n    /* \"https://github.com/OpenZeppelin/openzeppelin-contracts/blob/v2.5.0/contracts/GSN/Context.sol\":788:884  function _msgSender() internal view returns (address payable) {... */\n  swap1\n  jump\t// out\n    /* \"https://github.com/OpenZeppelin/openzeppelin-contracts/blob/v2.5.0/contracts/access/roles/MinterRole.sol\":786:905  function _addMinter(address account) internal {... */\ntag_17:\n    /* \"https://github.com/OpenZeppelin/openzeppelin-contracts/blob/v2.5.0/contracts/access/roles/MinterRole.sol\":842:863  _minters.add(account) */\n  tag_29\n    /* \"https://github.com/OpenZeppelin/openzeppelin-contracts/blob/v2.5.0/contracts/access/roles/MinterRole.sol\":855:862  account */\n  dup2\n    /* \"https://github.com/OpenZeppelin/openzeppelin-contracts/blob/v2.5.0/contracts/access/roles/MinterRole.sol\":842:850  _minters */\n  0x06\n    /* \"https://github.com/OpenZeppelin/openzeppelin-contracts/blob/v2.5.0/contracts/access/roles/MinterRole.sol\":842:854  _minters.add */\n  or(tag_0_237, shl(0x20, tag_30))\n  swap1\n    /* \"https://github.com/OpenZeppelin/openzeppelin-contracts/blob/v2.5.0/contracts/access/roles/MinterRole.sol\":842:863  _minters.add(account) */\n  swap2\n  swap1\n  0x20\n  shr\n  jump\t// in\ntag_29:\n    /* \"https://github.com/OpenZeppelin/openzeppelin-contracts/blob/v2.5.0/contracts/access/roles/MinterRole.sol\":890:897  account */\n  dup1\n    /* \"https://github.com/OpenZeppelin/openzeppelin-contracts/blob/v2.5.0/contracts/access/roles/MinterRole.sol\":878:898  MinterAdded(account) */\n  0xffffffffffffffffffffffffffffffffffffffff\n  and\n  0x6ae172837ea30b801fbfcdd4108aa1d5bf8ff775444fd70256b44e6bf3dfc3f6\n  mload(0x40)\n  mload(0x40)\n  dup1\n  swap2\n  sub\n  swap1\n  log2\n    /* \"https://github.com/OpenZeppelin/openzeppelin-contracts/blob/v2.5.0/contracts/access/roles/MinterRole.sol\":786:905  function _addMinter(address account) internal {... */\n  pop\n  jump\t// out\n    /* \"https://github.com/OpenZeppelin/openzeppelin-contracts/blob/v2.5.0/contracts/token/ERC20/ERC20Detailed.sol\":1472:1553  function decimals() public view returns (uint8) {... */\ntag_23:\n    /* \"https://github.com/OpenZeppelin/openzeppelin-contracts/blob/v2.5.0/contracts/token/ERC20/ERC20Detailed.sol\":1513:1518  uint8 */\n  0x00\n    /* \"https://github.com/OpenZeppelin/openzeppelin-contracts/blob/v2.5.0/contracts/token/ERC20/ERC20Detailed.sol\":1537:1546  _decimals */\n  0x05\n  0x00\n  swap1\n  sload\n  swap1\n  0x0100\n  exp\n  swap1\n  div\n  0xff\n  and\n    /* \"https://github.com/OpenZeppelin/openzeppelin-contracts/blob/v2.5.0/contracts/token/ERC20/ERC20Detailed.sol\":1530:1546  return _decimals */\n  swap1\n  pop\n    /* \"https://github.com/OpenZeppelin/openzeppelin-contracts/blob/v2.5.0/contracts/token/ERC20/ERC20Detailed.sol\":1472:1553  function decimals() public view returns (uint8) {... */\n  swap1\n  jump\t// out\n    /* \"https://github.com/OpenZeppelin/openzeppelin-contracts/blob/v2.5.0/contracts/token/ERC20/ERC20.sol\":5962:6264  function _mint(address account, uint256 amount) internal {... */\ntag_24:\n    /* \"https://github.com/OpenZeppelin/openzeppelin-contracts/blob/v2.5.0/contracts/token/ERC20/ERC20.sol\":6056:6057  0 */\n  0x00\n    /* \"https://github.com/OpenZeppelin/openzeppelin-contracts/blob/v2.5.0/contracts/token/ERC20/ERC20.sol\":6037:6058  account != address(0) */\n  0xffffffffffffffffffffffffffffffffffffffff\n  and\n    /* \"https://github.com/OpenZeppelin/openzeppelin-contracts/blob/v2.5.0/contracts/token/ERC20/ERC20.sol\":6037:6044  account */\n  dup3\n    /* \"https://github.com/OpenZeppelin/openzeppelin-contracts/blob/v2.5.0/contracts/token/ERC20/ERC20.sol\":6037:6058  account != address(0) */\n  0xffffffffffffffffffffffffffffffffffffffff\n  and\n  eq\n  iszero\n    /* \"https://github.com/OpenZeppelin/openzeppelin-contracts/blob/v2.5.0/contracts/token/ERC20/ERC20.sol\":6029:6094  require(account != address(0), \"ERC20: mint to the zero address\") */\n  iszero\n  iszero\n  tag_33\n  jumpi\n  mload(0x40)\n  0x08c379a000000000000000000000000000000000000000000000000000000000\n  dup2\n  mstore\n  0x04\n  add\n  dup1\n  dup1\n  0x20\n  add\n  dup3\n  dup2\n  sub\n  dup3\n  mstore\n  0x1f\n  dup2\n  mstore\n  0x20\n  add\n  dup1\n  0x45524332303a206d696e7420746f20746865207a65726f206164647265737300\n  dup2\n  mstore\n  pop\n  0x20\n  add\n  swap2\n  pop\n  pop\n  mload(0x40)\n  dup1\n  swap2\n  sub\n  swap1\n  revert\ntag_33:\n    /* \"https://github.com/OpenZeppelin/openzeppelin-contracts/blob/v2.5.0/contracts/token/ERC20/ERC20.sol\":6120:6144  _totalSupply.add(amount) */\n  tag_34\n    /* \"https://github.com/OpenZeppelin/openzeppelin-contracts/blob/v2.5.0/contracts/token/ERC20/ERC20.sol\":6137:6143  amount */\n  dup2\n    /* \"https://github.com/OpenZeppelin/openzeppelin-contracts/blob/v2.5.0/contracts/token/ERC20/ERC20.sol\":6120:6132  _totalSupply */\n  sload(0x02)\n    /* \"https://github.com/OpenZeppelin/openzeppelin-contracts/blob/v2.5.0/contracts/token/ERC20/ERC20.sol\":6120:6136  _totalSupply.add */\n  or(tag_0_163, shl(0x20, tag_35))\n  swap1\n    /* \"https://github.com/OpenZeppelin/openzeppelin-contracts/blob/v2.5.0/contracts/token/ERC20/ERC20.sol\":6120:6144  _totalSupply.add(amount) */\n  swap2\n  swap1\n  0x20\n  shr\n  jump\t// in\ntag_34:\n    /* \"https://github.com/OpenZeppelin/openzeppelin-contracts/blob/v2.5.0/contracts/token/ERC20/ERC20.sol\":6105:6117  _totalSupply */\n  0x02\n    /* \"https://github.com/OpenZeppelin/openzeppelin-contracts/blob/v2.5.0/contracts/token/ERC20/ERC20.sol\":6105:6144  _totalSupply = _totalSupply.add(amount) */\n  dup2\n  swap1\n  sstore\n  pop\n    /* \"https://github.com/OpenZeppelin/openzeppelin-contracts/blob/v2.5.0/contracts/token/ERC20/ERC20.sol\":6175:6205  _balances[account].add(amount) */\n  tag_36\n    /* \"https://github.com/OpenZeppelin/openzeppelin-contracts/blob/v2.5.0/contracts/token/ERC20/ERC20.sol\":6198:6204  amount */\n  dup2\n    /* \"https://github.com/OpenZeppelin/openzeppelin-contracts/blob/v2.5.0/contracts/token/ERC20/ERC20.sol\":6175:6184  _balances */\n  0x00\n    /* \"https://github.com/OpenZeppelin/openzeppelin-contracts/blob/v2.5.0/contracts/token/ERC20/ERC20.sol\":6175:6193  _balances[account] */\n  dup1\n    /* \"https://github.com/OpenZeppelin/openzeppelin-contracts/blob/v2.5.0/contracts/token/ERC20/ERC20.sol\":6185:6192  account */\n  dup6\n    /* \"https://github.com/OpenZeppelin/openzeppelin-contracts/blob/v2.5.0/contracts/token/ERC20/ERC20.sol\":6175:6193  _balances[account] */\n  0xffffffffffffffffffffffffffffffffffffffff\n  and\n  0xffffffffffffffffffffffffffffffffffffffff\n  and\n  dup2\n  mstore\n  0x20\n  add\n  swap1\n  dup2\n  mstore\n  0x20\n  add\n  0x00\n  keccak256\n  sload\n    /* \"https://github.com/OpenZeppelin/openzeppelin-contracts/blob/v2.5.0/contracts/token/ERC20/ERC20.sol\":6175:6197  _balances[account].add */\n  or(tag_0_163, shl(0x20, tag_35))\n  swap1\n    /* \"https://github.com/OpenZeppelin/openzeppelin-contracts/blob/v2.5.0/contracts/token/ERC20/ERC20.sol\":6175:6205  _balances[account].add(amount) */\n  swap2\n  swap1\n  0x20\n  shr\n  jump\t// in\ntag_36:\n    /* \"https://github.com/OpenZeppelin/openzeppelin-contracts/blob/v2.5.0/contracts/token/ERC20/ERC20.sol\":6154:6163  _balances */\n  0x00\n    /* \"https://github.com/OpenZeppelin/openzeppelin-contracts/blob/v2.5.0/contracts/token/ERC20/ERC20.sol\":6154:6172  _balances[account] */\n  dup1\n    /* \"https://github.com/OpenZeppelin/openzeppelin-contracts/blob/v2.5.0/contracts/token/ERC20/ERC20.sol\":6164:6171  account */\n  dup5\n    /* \"https://github.com/OpenZeppelin/openzeppelin-contracts/blob/v2.5.0/contracts/token/ERC20/ERC20.sol\":6154:6172  _balances[account] */\n  0xffffffffffffffffffffffffffffffffffffffff\n  and\n  0xffffffffffffffffffffffffffffffffffffffff\n  and\n  dup2\n  mstore\n  0x20\n  add\n  swap1\n  dup2\n  mstore\n  0x20\n  add\n  0x00\n  keccak256\n    /* \"https://github.com/OpenZeppelin/openzeppelin-contracts/blob/v2.5.0/contracts/token/ERC20/ERC20.sol\":6154:6205  _balances[account] = _balances[account].add(amount) */\n  dup2\n  swap1\n  sstore\n  pop\n    /* \"https://github.com/OpenZeppelin/openzeppelin-contracts/blob/v2.5.0/contracts/token/ERC20/ERC20.sol\":6241:6248  account */\n  dup2\n    /* \"https://github.com/OpenZeppelin/openzeppelin-contracts/blob/v2.5.0/contracts/token/ERC20/ERC20.sol\":6220:6257  Transfer(address(0), account, amount) */\n  0xffffffffffffffffffffffffffffffffffffffff\n  and\n    /* \"https://github.com/OpenZeppelin/openzeppelin-contracts/blob/v2.5.0/contracts/token/ERC20/ERC20.sol\":6237:6238  0 */\n  0x00\n    /* \"https://github.com/OpenZeppelin/openzeppelin-contracts/blob/v2.5.0/contracts/token/ERC20/ERC20.sol\":6220:6257  Transfer(address(0), account, amount) */\n  0xffffffffffffffffffffffffffffffffffffffff\n  and\n  0xddf252ad1be2c89b69c2b068fc378daa952ba7f163c4a11628f55a4df523b3ef\n    /* \"https://github.com/OpenZeppelin/openzeppelin-contracts/blob/v2.5.0/contracts/token/ERC20/ERC20.sol\":6250:6256  amount */\n  dup4\n    /* \"https://github.com/OpenZeppelin/openzeppelin-contracts/blob/v2.5.0/contracts/token/ERC20/ERC20.sol\":6220:6257  Transfer(address(0), account, amount) */\n  mload(0x40)\n  dup1\n  dup3\n  dup2\n  mstore\n  0x20\n  add\n  swap2\n  pop\n  pop\n  mload(0x40)\n  dup1\n  swap2\n  sub\n  swap1\n  log3\n    /* \"https://github.com/OpenZeppelin/openzeppelin-contracts/blob/v2.5.0/contracts/token/ERC20/ERC20.sol\":5962:6264  function _mint(address account, uint256 amount) internal {... */\n  pop\n  pop\n  jump\t// out\n    /* \"https://github.com/OpenZeppelin/openzeppelin-contracts/blob/v2.5.0/contracts/access/Roles.sol\":260:435  function add(Role storage role, address account) internal {... */\ntag_30:\n    /* \"https://github.com/OpenZeppelin/openzeppelin-contracts/blob/v2.5.0/contracts/access/Roles.sol\":337:355  has(role, account) */\n  tag_38\n    /* \"https://github.com/OpenZeppelin/openzeppelin-contracts/blob/v2.5.0/contracts/access/Roles.sol\":341:345  role */\n  dup3\n    /* \"https://github.com/OpenZeppelin/openzeppelin-contracts/blob/v2.5.0/contracts/access/Roles.sol\":347:354  account */\n  dup3\n    /* \"https://github.com/OpenZeppelin/openzeppelin-contracts/blob/v2.5.0/contracts/access/Roles.sol\":337:340  has */\n  shl(0x20, tag_39)\n    /* \"https://github.com/OpenZeppelin/openzeppelin-contracts/blob/v2.5.0/contracts/access/Roles.sol\":337:355  has(role, account) */\n  0x20\n  shr\n  jump\t// in\ntag_38:\n    /* \"https://github.com/OpenZeppelin/openzeppelin-contracts/blob/v2.5.0/contracts/access/Roles.sol\":336:355  !has(role, account) */\n  iszero\n    /* \"https://github.com/OpenZeppelin/openzeppelin-contracts/blob/v2.5.0/contracts/access/Roles.sol\":328:391  require(!has(role, account), \"Roles: account already has role\") */\n  iszero\n  iszero\n  tag_40\n  jumpi\n  mload(0x40)\n  0x08c379a000000000000000000000000000000000000000000000000000000000\n  dup2\n  mstore\n  0x04\n  add\n  dup1\n  dup1\n  0x20\n  add\n  dup3\n  dup2\n  sub\n  dup3\n  mstore\n  0x1f\n  dup2\n  mstore\n  0x20\n  add\n  dup1\n  0x526f6c65733a206163636f756e7420616c72656164792068617320726f6c6500\n  dup2\n  mstore\n  pop\n  0x20\n  add\n  swap2\n  pop\n  pop\n  mload(0x40)\n  dup1\n  swap2\n  sub\n  swap1\n  revert\ntag_40:\n    /* \"https://github.com/OpenZeppelin/openzeppelin-contracts/blob/v2.5.0/contracts/access/Roles.sol\":424:428  true */\n  0x01\n    /* \"https://github.com/OpenZeppelin/openzeppelin-contracts/blob/v2.5.0/contracts/access/Roles.sol\":401:405  role */\n  dup3\n    /* \"https://github.com/OpenZeppelin/openzeppelin-contracts/blob/v2.5.0/contracts/access/Roles.sol\":401:412  role.bearer */\n  0x00\n  add\n    /* \"https://github.com/OpenZeppelin/openzeppelin-contracts/blob/v2.5.0/contracts/access/Roles.sol\":401:421  role.bearer[account] */\n  0x00\n    /* \"https://github.com/OpenZeppelin/openzeppelin-contracts/blob/v2.5.0/contracts/access/Roles.sol\":413:420  account */\n  dup4\n    /* \"https://github.com/OpenZeppelin/openzeppelin-contracts/blob/v2.5.0/contracts/access/Roles.sol\":401:421  role.bearer[account] */\n  0xffffffffffffffffffffffffffffffffffffffff\n  and\n  0xffffffffffffffffffffffffffffffffffffffff\n  and\n  dup2\n  mstore\n  0x20\n  add\n  swap1\n  dup2\n  mstore\n  0x20\n  add\n  0x00\n  keccak256\n  0x00\n    /* \"https://github.com/OpenZeppelin/openzeppelin-contracts/blob/v2.5.0/contracts/access/Roles.sol\":401:428  role.bearer[account] = true */\n  0x0100\n  exp\n  dup2\n  sload\n  dup2\n  0xff\n  mul\n  not\n  and\n  swap1\n  dup4\n  iszero\n  iszero\n  mul\n  or\n  swap1\n  sstore\n  pop\n    /* \"https://github.com/OpenZeppelin/openzeppelin-contracts/blob/v2.5.0/contracts/access/Roles.sol\":260:435  function add(Role storage role, address account) internal {... */\n  pop\n  pop\n  jump\t// out\n    /* \"https://github.com/OpenZeppelin/openzeppelin-contracts/blob/v2.5.0/contracts/math/SafeMath.sol\":834:1010  function add(uint256 a, uint256 b) internal pure returns (uint256) {... */\ntag_35:\n    /* \"https://github.com/OpenZeppelin/openzeppelin-contracts/blob/v2.5.0/contracts/math/SafeMath.sol\":892:899  uint256 */\n  0x00\n    /* \"https://github.com/OpenZeppelin/openzeppelin-contracts/blob/v2.5.0/contracts/math/SafeMath.sol\":911:920  uint256 c */\n  dup1\n    /* \"https://github.com/OpenZeppelin/openzeppelin-contracts/blob/v2.5.0/contracts/math/SafeMath.sol\":927:928  b */\n  dup3\n    /* \"https://github.com/OpenZeppelin/openzeppelin-contracts/blob/v2.5.0/contracts/math/SafeMath.sol\":923:924  a */\n  dup5\n    /* \"https://github.com/OpenZeppelin/openzeppelin-contracts/blob/v2.5.0/contracts/math/SafeMath.sol\":923:928  a + b */\n  add\n    /* \"https://github.com/OpenZeppelin/openzeppelin-contracts/blob/v2.5.0/contracts/math/SafeMath.sol\":911:928  uint256 c = a + b */\n  swap1\n  pop\n    /* \"https://github.com/OpenZeppelin/openzeppelin-contracts/blob/v2.5.0/contracts/math/SafeMath.sol\":951:952  a */\n  dup4\n    /* \"https://github.com/OpenZeppelin/openzeppelin-contracts/blob/v2.5.0/contracts/math/SafeMath.sol\":946:947  c */\n  dup2\n    /* \"https://github.com/OpenZeppelin/openzeppelin-contracts/blob/v2.5.0/contracts/math/SafeMath.sol\":946:952  c >= a */\n  lt\n  iszero\n    /* \"https://github.com/OpenZeppelin/openzeppelin-contracts/blob/v2.5.0/contracts/math/SafeMath.sol\":938:984  require(c >= a, \"SafeMath: addition overflow\") */\n  iszero\n  iszero\n  tag_42\n  jumpi\n  mload(0x40)\n  0x08c379a000000000000000000000000000000000000000000000000000000000\n  dup2\n  mstore\n  0x04\n  add\n  dup1\n  dup1\n  0x20\n  add\n  dup3\n  dup2\n  sub\n  dup3\n  mstore\n  0x1b\n  dup2\n  mstore\n  0x20\n  add\n  dup1\n  0x536166654d6174683a206164646974696f6e206f766572666c6f770000000000\n  dup2\n  mstore\n  pop\n  0x20\n  add\n  swap2\n  pop\n  pop\n  mload(0x40)\n  dup1\n  swap2\n  sub\n  swap1\n  revert\ntag_42:\n    /* \"https://github.com/OpenZeppelin/openzeppelin-contracts/blob/v2.5.0/contracts/math/SafeMath.sol\":1002:1003  c */\n  dup1\n    /* \"https://github.com/OpenZeppelin/openzeppelin-contracts/blob/v2.5.0/contracts/math/SafeMath.sol\":995:1003  return c */\n  swap2\n  pop\n  pop\n    /* \"https://github.com/OpenZeppelin/openzeppelin-contracts/blob/v2.5.0/contracts/math/SafeMath.sol\":834:1010  function add(uint256 a, uint256 b) internal pure returns (uint256) {... */\n  swap3\n  swap2\n  pop\n  pop\n  jump\t// out\n    /* \"https://github.com/OpenZeppelin/openzeppelin-contracts/blob/v2.5.0/contracts/access/Roles.sol\":779:979  function has(Role storage role, address account) internal view returns (bool) {... */\ntag_39:\n    /* \"https://github.com/OpenZeppelin/openzeppelin-contracts/blob/v2.5.0/contracts/access/Roles.sol\":851:855  bool */\n  0x00\n    /* \"https://github.com/OpenZeppelin/openzeppelin-contracts/blob/v2.5.0/contracts/access/Roles.sol\":894:895  0 */\n  dup1\n    /* \"https://github.com/OpenZeppelin/openzeppelin-contracts/blob/v2.5.0/contracts/access/Roles.sol\":875:896  account != address(0) */\n  0xffffffffffffffffffffffffffffffffffffffff\n  and\n    /* \"https://github.com/OpenZeppelin/openzeppelin-contracts/blob/v2.5.0/contracts/access/Roles.sol\":875:882  account */\n  dup3\n    /* \"https://github.com/OpenZeppelin/openzeppelin-contracts/blob/v2.5.0/contracts/access/Roles.sol\":875:896  account != address(0) */\n  0xffffffffffffffffffffffffffffffffffffffff\n  and\n  eq\n  iszero\n    /* \"https://github.com/OpenZeppelin/openzeppelin-contracts/blob/v2.5.0/contracts/access/Roles.sol\":867:935  require(account != address(0), \"Roles: account is the zero address\") */\n  iszero\n  iszero\n  tag_44\n  jumpi\n  mload(0x40)\n  0x08c379a000000000000000000000000000000000000000000000000000000000\n  dup2\n  mstore\n  0x04\n  add\n  dup1\n  dup1\n  0x20\n  add\n  dup3\n  dup2\n  sub\n  dup3\n  mstore\n  0x22\n  dup2\n  mstore\n  0x20\n  add\n  dup1\n  data_9d214fa89563f4e6456a3929327e54500ea1cde2c0ba9fb2035ec106190d682f\n  0x22\n  swap2\n  codecopy\n  0x40\n  add\n  swap2\n  pop\n  pop\n  mload(0x40)\n  dup1\n  swap2\n  sub\n  swap1\n  revert\ntag_44:\n    /* \"https://github.com/OpenZeppelin/openzeppelin-contracts/blob/v2.5.0/contracts/access/Roles.sol\":952:956  role */\n  dup3\n    /* \"https://github.com/OpenZeppelin/openzeppelin-contracts/blob/v2.5.0/contracts/access/Roles.sol\":952:963  role.bearer */\n  0x00\n  add\n    /* \"https://github.com/OpenZeppelin/openzeppelin-contracts/blob/v2.5.0/contracts/access/Roles.sol\":952:972  role.bearer[account] */\n  0x00\n    /* \"https://github.com/OpenZeppelin/openzeppelin-contracts/blob/v2.5.0/contracts/access/Roles.sol\":964:971  account */\n  dup4\n    /* \"https://github.com/OpenZeppelin/openzeppelin-contracts/blob/v2.5.0/contracts/access/Roles.sol\":952:972  role.bearer[account] */\n  0xffffffffffffffffffffffffffffffffffffffff\n  and\n  0xffffffffffffffffffffffffffffffffffffffff\n  and\n  dup2\n  mstore\n  0x20\n  add\n  swap1\n  dup2\n  mstore\n  0x20\n  add\n  0x00\n  keccak256\n  0x00\n  swap1\n  sload\n  swap1\n  0x0100\n  exp\n  swap1\n  div\n  0xff\n  and\n    /* \"https://github.com/OpenZeppelin/openzeppelin-contracts/blob/v2.5.0/contracts/access/Roles.sol\":945:972  return role.bearer[account] */\n  swap1\n  pop\n    /* \"https://github.com/OpenZeppelin/openzeppelin-contracts/blob/v2.5.0/contracts/access/Roles.sol\":779:979  function has(Role storage role, address account) internal view returns (bool) {... */\n  swap3\n  swap2\n  pop\n  pop\n  jump\t// out\n    /* \"RE_dApp/OwnershipToken.sol\":510:2585  contract OwnershipToken is ERC20, ERC20Detailed, ERC20Mintable, Ownable {... */\ntag_11:\n  dup3\n  dup1\n  sload\n  0x01\n  dup2\n  0x01\n  and\n  iszero\n  0x0100\n  mul\n  sub\n  and\n  0x02\n  swap1\n  div\n  swap1\n  0x00\n  mstore\n  keccak256(0x00, 0x20)\n  swap1\n  0x1f\n  add\n  0x20\n  swap1\n  div\n  dup2\n  add\n  swap3\n  dup3\n  0x1f\n  lt\n  tag_46\n  jumpi\n  dup1\n  mload\n  not(0xff)\n  and\n  dup4\n  dup1\n  add\n  or\n  dup6\n  sstore\n  jump(tag_45)\ntag_46:\n  dup3\n  dup1\n  add\n  0x01\n  add\n  dup6\n  sstore\n  dup3\n  iszero\n  tag_45\n  jumpi\n  swap2\n  dup3\n  add\ntag_47:\n  dup3\n  dup2\n  gt\n  iszero\n  tag_48\n  jumpi\n  dup3\n  mload\n  dup3\n  sstore\n  swap2\n  0x20\n  add\n  swap2\n  swap1\n  0x01\n  add\n  swap1\n  jump(tag_47)\ntag_48:\ntag_45:\n  pop\n  swap1\n  pop\n  tag_49\n  swap2\n  swap1\n  tag_50\n  jump\t// in\ntag_49:\n  pop\n  swap1\n  jump\t// out\ntag_50:\n  tag_51\n  swap2\n  swap1\ntag_52:\n  dup1\n  dup3\n  gt\n  iszero\n  tag_53\n  jumpi\n  0x00\n  dup2\n  0x00\n  swap1\n  sstore\n  pop\n  0x01\n  add\n  jump(tag_52)\ntag_53:\n  pop\n  swap1\n  jump\ntag_51:\n  swap1\n  jump\t// out\ntag_26:\n  dataSize(sub_0)\n  dup1\n  dataOffset(sub_0)\n  0x00\n  codecopy\n  0x00\n  return\nstop\ndata_9d214fa89563f4e6456a3929327e54500ea1cde2c0ba9fb2035ec106190d682f 526f6c65733a206163636f756e7420697320746865207a65726f2061646472657373\n\nsub_0: assembly {\n        /* \"RE_dApp/OwnershipToken.sol\":510:2585  contract OwnershipToken is ERC20, ERC20Detailed, ERC20Mintable, Ownable {... */\n      mstore(0x40, 0x80)\n      jumpi(tag_1, lt(calldatasize, 0x04))\n      shr(0xe0, calldataload(0x00))\n      dup1\n      0x715018a6\n      gt\n      tag_27\n      jumpi\n      dup1\n      0x98650275\n      gt\n      tag_28\n      jumpi\n      dup1\n      0xaa271e1a\n      gt\n      tag_29\n      jumpi\n      dup1\n      0xaa271e1a\n      eq\n      tag_23\n      jumpi\n      dup1\n      0xdd62ed3e\n      eq\n      tag_24\n      jumpi\n      dup1\n      0xf2fde38b\n      eq\n      tag_25\n      jumpi\n      dup1\n      0xf3a5303e\n      eq\n      tag_26\n      jumpi\n      jump(tag_1)\n    tag_29:\n      dup1\n      0x98650275\n      eq\n      tag_20\n      jumpi\n      dup1\n      0xa457c2d7\n      eq\n      tag_21\n      jumpi\n      dup1\n      0xa9059cbb\n      eq\n      tag_22\n      jumpi\n      jump(tag_1)\n    tag_28:\n      dup1\n      0x715018a6\n      eq\n      tag_14\n      jumpi\n      dup1\n      0x883400e6\n      eq\n      tag_15\n      jumpi\n      dup1\n      0x8da5cb5b\n      eq\n      tag_16\n      jumpi\n      dup1\n      0x8f32d59b\n      eq\n      tag_17\n      jumpi\n      dup1\n      0x95d89b41\n      eq\n      tag_18\n      jumpi\n      dup1\n      0x983b2d56\n      eq\n      tag_19\n      jumpi\n      jump(tag_1)\n    tag_27:\n      dup1\n      0x313ce567\n      gt\n      tag_30\n      jumpi\n      dup1\n      0x313ce567\n      eq\n      tag_8\n      jumpi\n      dup1\n      0x3290ce29\n      eq\n      tag_9\n      jumpi\n      dup1\n      0x32a4031b\n      eq\n      tag_10\n      jumpi\n      dup1\n      0x39509351\n      eq\n      tag_11\n      jumpi\n      dup1\n      0x40c10f19\n      eq\n      tag_12\n      jumpi\n      dup1\n      0x70a08231\n      eq\n      tag_13\n      jumpi\n      jump(tag_1)\n    tag_30:\n      dup1\n      0x0514ae7b\n      eq\n      tag_2\n      jumpi\n      dup1\n      0x06fdde03\n      eq\n      tag_3\n      jumpi\n      dup1\n      0x06ffce53\n      eq\n      tag_4\n      jumpi\n      dup1\n      0x095ea7b3\n      eq\n      tag_5\n      jumpi\n      dup1\n      0x18160ddd\n      eq\n      tag_6\n      jumpi\n      dup1\n      0x23b872dd\n      eq\n      tag_7\n      jumpi\n    tag_1:\n      0x00\n      dup1\n      revert\n        /* \"RE_dApp/OwnershipToken.sol\":1170:1295  function updateTokenValue(uint256 newPropertyValue) public onlyOwner {... */\n    tag_2:\n      callvalue\n        /* \"--CODEGEN--\":8:17   */\n      dup1\n        /* \"--CODEGEN--\":5:7   */\n      iszero\n      tag_31\n      jumpi\n        /* \"--CODEGEN--\":30:31   */\n      0x00\n        /* \"--CODEGEN--\":27:28   */\n      dup1\n        /* \"--CODEGEN--\":20:32   */\n      revert\n        /* \"--CODEGEN--\":5:7   */\n    tag_31:\n        /* \"RE_dApp/OwnershipToken.sol\":1170:1295  function updateTokenValue(uint256 newPropertyValue) public onlyOwner {... */\n      pop\n      tag_32\n      0x04\n      dup1\n      calldatasize\n      sub\n        /* \"--CODEGEN--\":13:15   */\n      0x20\n        /* \"--CODEGEN--\":8:11   */\n      dup2\n        /* \"--CODEGEN--\":5:16   */\n      lt\n        /* \"--CODEGEN--\":2:4   */\n      iszero\n      tag_33\n      jumpi\n        /* \"--CODEGEN--\":29:30   */\n      0x00\n        /* \"--CODEGEN--\":26:27   */\n      dup1\n        /* \"--CODEGEN--\":19:31   */\n      revert\n        /* \"--CODEGEN--\":2:4   */\n    tag_33:\n        /* \"RE_dApp/OwnershipToken.sol\":1170:1295  function updateTokenValue(uint256 newPropertyValue) public onlyOwner {... */\n      dup2\n      add\n      swap1\n      dup1\n      dup1\n      calldataload\n      swap1\n      0x20\n      add\n      swap1\n      swap3\n      swap2\n      swap1\n      pop\n      pop\n      pop\n      tag_34\n      jump\t// in\n    tag_32:\n      stop\n        /* \"https://github.com/OpenZeppelin/openzeppelin-contracts/blob/v2.5.0/contracts/token/ERC20/ERC20Detailed.sol\":644:725  function name() public view returns (string memory) {... */\n    tag_3:\n      callvalue\n        /* \"--CODEGEN--\":8:17   */\n      dup1\n        /* \"--CODEGEN--\":5:7   */\n      iszero\n      tag_35\n      jumpi\n        /* \"--CODEGEN--\":30:31   */\n      0x00\n        /* \"--CODEGEN--\":27:28   */\n      dup1\n        /* \"--CODEGEN--\":20:32   */\n      revert\n        /* \"--CODEGEN--\":5:7   */\n    tag_35:\n        /* \"https://github.com/OpenZeppelin/openzeppelin-contracts/blob/v2.5.0/contracts/token/ERC20/ERC20Detailed.sol\":644:725  function name() public view returns (string memory) {... */\n      pop\n      tag_36\n      tag_37\n      jump\t// in\n    tag_36:\n      mload(0x40)\n      dup1\n      dup1\n      0x20\n      add\n      dup3\n      dup2\n      sub\n      dup3\n      mstore\n      dup4\n      dup2\n      dup2\n      mload\n      dup2\n      mstore\n      0x20\n      add\n      swap2\n      pop\n      dup1\n      mload\n      swap1\n      0x20\n      add\n      swap1\n      dup1\n      dup4\n      dup4\n        /* \"--CODEGEN--\":23:24   */\n      0x00\n        /* \"--CODEGEN--\":8:108   */\n    tag_38:\n        /* \"--CODEGEN--\":33:36   */\n      dup4\n        /* \"--CODEGEN--\":30:31   */\n      dup2\n        /* \"--CODEGEN--\":27:37   */\n      lt\n        /* \"--CODEGEN--\":8:108   */\n      iszero\n      tag_39\n      jumpi\n        /* \"--CODEGEN--\":99:100   */\n      dup1\n        /* \"--CODEGEN--\":94:97   */\n      dup3\n        /* \"--CODEGEN--\":90:101   */\n      add\n        /* \"--CODEGEN--\":84:102   */\n      mload\n        /* \"--CODEGEN--\":80:81   */\n      dup2\n        /* \"--CODEGEN--\":75:78   */\n      dup5\n        /* \"--CODEGEN--\":71:82   */\n      add\n        /* \"--CODEGEN--\":64:103   */\n      mstore\n        /* \"--CODEGEN--\":52:54   */\n      0x20\n        /* \"--CODEGEN--\":49:50   */\n      dup2\n        /* \"--CODEGEN--\":45:55   */\n      add\n        /* \"--CODEGEN--\":40:55   */\n      swap1\n      pop\n        /* \"--CODEGEN--\":8:108   */\n      jump(tag_38)\n    tag_39:\n        /* \"--CODEGEN--\":12:26   */\n      pop\n        /* \"https://github.com/OpenZeppelin/openzeppelin-contracts/blob/v2.5.0/contracts/token/ERC20/ERC20Detailed.sol\":644:725  function name() public view returns (string memory) {... */\n      pop\n      pop\n      pop\n      swap1\n      pop\n      swap1\n      dup2\n      add\n      swap1\n      0x1f\n      and\n      dup1\n      iszero\n      tag_41\n      jumpi\n      dup1\n      dup3\n      sub\n      dup1\n      mload\n      0x01\n      dup4\n      0x20\n      sub\n      0x0100\n      exp\n      sub\n      not\n      and\n      dup2\n      mstore\n      0x20\n      add\n      swap2\n      pop\n    tag_41:\n      pop\n      swap3\n      pop\n      pop\n      pop\n      mload(0x40)\n      dup1\n      swap2\n      sub\n      swap1\n      return\n        /* \"RE_dApp/OwnershipToken.sol\":1301:1406  function getTokenValue() public view returns (uint256) {... */\n    tag_4:\n      callvalue\n        /* \"--CODEGEN--\":8:17   */\n      dup1\n        /* \"--CODEGEN--\":5:7   */\n      iszero\n      tag_42\n      jumpi\n        /* \"--CODEGEN--\":30:31   */\n      0x00\n        /* \"--CODEGEN--\":27:28   */\n      dup1\n        /* \"--CODEGEN--\":20:32   */\n      revert\n        /* \"--CODEGEN--\":5:7   */\n    tag_42:\n        /* \"RE_dApp/OwnershipToken.sol\":1301:1406  function getTokenValue() public view returns (uint256) {... */\n      pop\n      tag_43\n      tag_44\n      jump\t// in\n    tag_43:\n      mload(0x40)\n      dup1\n      dup3\n      dup2\n      mstore\n      0x20\n      add\n      swap2\n      pop\n      pop\n      mload(0x40)\n      dup1\n      swap2\n      sub\n      swap1\n      return\n        /* \"https://github.com/OpenZeppelin/openzeppelin-contracts/blob/v2.5.0/contracts/token/ERC20/ERC20.sol\":2500:2649  function approve(address spender, uint256 amount) public returns (bool) {... */\n    tag_5:\n      callvalue\n        /* \"--CODEGEN--\":8:17   */\n      dup1\n        /* \"--CODEGEN--\":5:7   */\n      iszero\n      tag_45\n      jumpi\n        /* \"--CODEGEN--\":30:31   */\n      0x00\n        /* \"--CODEGEN--\":27:28   */\n      dup1\n        /* \"--CODEGEN--\":20:32   */\n      revert\n        /* \"--CODEGEN--\":5:7   */\n    tag_45:\n        /* \"https://github.com/OpenZeppelin/openzeppelin-contracts/blob/v2.5.0/contracts/token/ERC20/ERC20.sol\":2500:2649  function approve(address spender, uint256 amount) public returns (bool) {... */\n      pop\n      tag_46\n      0x04\n      dup1\n      calldatasize\n      sub\n        /* \"--CODEGEN--\":13:15   */\n      0x40\n        /* \"--CODEGEN--\":8:11   */\n      dup2\n        /* \"--CODEGEN--\":5:16   */\n      lt\n        /* \"--CODEGEN--\":2:4   */\n      iszero\n      tag_47\n      jumpi\n        /* \"--CODEGEN--\":29:30   */\n      0x00\n        /* \"--CODEGEN--\":26:27   */\n      dup1\n        /* \"--CODEGEN--\":19:31   */\n      revert\n        /* \"--CODEGEN--\":2:4   */\n    tag_47:\n        /* \"https://github.com/OpenZeppelin/openzeppelin-contracts/blob/v2.5.0/contracts/token/ERC20/ERC20.sol\":2500:2649  function approve(address spender, uint256 amount) public returns (bool) {... */\n      dup2\n      add\n      swap1\n      dup1\n      dup1\n      calldataload\n      0xffffffffffffffffffffffffffffffffffffffff\n      and\n      swap1\n      0x20\n      add\n      swap1\n      swap3\n      swap2\n      swap1\n      dup1\n      calldataload\n      swap1\n      0x20\n      add\n      swap1\n      swap3\n      swap2\n      swap1\n      pop\n      pop\n      pop\n      tag_48\n      jump\t// in\n    tag_46:\n      mload(0x40)\n      dup1\n      dup3\n      iszero\n      iszero\n      iszero\n      iszero\n      dup2\n      mstore\n      0x20\n      add\n      swap2\n      pop\n      pop\n      mload(0x40)\n      dup1\n      swap2\n      sub\n      swap1\n      return\n        /* \"https://github.com/OpenZeppelin/openzeppelin-contracts/blob/v2.5.0/contracts/token/ERC20/ERC20.sol\":1559:1648  function totalSupply() public view returns (uint256) {... */\n    tag_6:\n      callvalue\n        /* \"--CODEGEN--\":8:17   */\n      dup1\n        /* \"--CODEGEN--\":5:7   */\n      iszero\n      tag_49\n      jumpi\n        /* \"--CODEGEN--\":30:31   */\n      0x00\n        /* \"--CODEGEN--\":27:28   */\n      dup1\n        /* \"--CODEGEN--\":20:32   */\n      revert\n        /* \"--CODEGEN--\":5:7   */\n    tag_49:\n        /* \"https://github.com/OpenZeppelin/openzeppelin-contracts/blob/v2.5.0/contracts/token/ERC20/ERC20.sol\":1559:1648  function totalSupply() public view returns (uint256) {... */\n      pop\n      tag_50\n      tag_51\n      jump\t// in\n    tag_50:\n      mload(0x40)\n      dup1\n      dup3\n      dup2\n      mstore\n      0x20\n      add\n      swap2\n      pop\n      pop\n      mload(0x40)\n      dup1\n      swap2\n      sub\n      swap1\n      return\n        /* \"https://github.com/OpenZeppelin/openzeppelin-contracts/blob/v2.5.0/contracts/token/ERC20/ERC20.sol\":3107:3407  function transferFrom(address sender, address recipient, uint256 amount) public returns (bool) {... */\n    tag_7:\n      callvalue\n        /* \"--CODEGEN--\":8:17   */\n      dup1\n        /* \"--CODEGEN--\":5:7   */\n      iszero\n      tag_52\n      jumpi\n        /* \"--CODEGEN--\":30:31   */\n      0x00\n        /* \"--CODEGEN--\":27:28   */\n      dup1\n        /* \"--CODEGEN--\":20:32   */\n      revert\n        /* \"--CODEGEN--\":5:7   */\n    tag_52:\n        /* \"https://github.com/OpenZeppelin/openzeppelin-contracts/blob/v2.5.0/contracts/token/ERC20/ERC20.sol\":3107:3407  function transferFrom(address sender, address recipient, uint256 amount) public returns (bool) {... */\n      pop\n      tag_53\n      0x04\n      dup1\n      calldatasize\n      sub\n        /* \"--CODEGEN--\":13:15   */\n      0x60\n        /* \"--CODEGEN--\":8:11   */\n      dup2\n        /* \"--CODEGEN--\":5:16   */\n      lt\n        /* \"--CODEGEN--\":2:4   */\n      iszero\n      tag_54\n      jumpi\n        /* \"--CODEGEN--\":29:30   */\n      0x00\n        /* \"--CODEGEN--\":26:27   */\n      dup1\n        /* \"--CODEGEN--\":19:31   */\n      revert\n        /* \"--CODEGEN--\":2:4   */\n    tag_54:\n        /* \"https://github.com/OpenZeppelin/openzeppelin-contracts/blob/v2.5.0/contracts/token/ERC20/ERC20.sol\":3107:3407  function transferFrom(address sender, address recipient, uint256 amount) public returns (bool) {... */\n      dup2\n      add\n      swap1\n      dup1\n      dup1\n      calldataload\n      0xffffffffffffffffffffffffffffffffffffffff\n      and\n      swap1\n      0x20\n      add\n      swap1\n      swap3\n      swap2\n      swap1\n      dup1\n      calldataload\n      0xffffffffffffffffffffffffffffffffffffffff\n      and\n      swap1\n      0x20\n      add\n      swap1\n      swap3\n      swap2\n      swap1\n      dup1\n      calldataload\n      swap1\n      0x20\n      add\n      swap1\n      swap3\n      swap2\n      swap1\n      pop\n      pop\n      pop\n      tag_55\n      jump\t// in\n    tag_53:\n      mload(0x40)\n      dup1\n      dup3\n      iszero\n      iszero\n      iszero\n      iszero\n      dup2\n      mstore\n      0x20\n      add\n      swap2\n      pop\n      pop\n      mload(0x40)\n      dup1\n      swap2\n      sub\n      swap1\n      return\n        /* \"https://github.com/OpenZeppelin/openzeppelin-contracts/blob/v2.5.0/contracts/token/ERC20/ERC20Detailed.sol\":1472:1553  function decimals() public view returns (uint8) {... */\n    tag_8:\n      callvalue\n        /* \"--CODEGEN--\":8:17   */\n      dup1\n        /* \"--CODEGEN--\":5:7   */\n      iszero\n      tag_56\n      jumpi\n        /* \"--CODEGEN--\":30:31   */\n      0x00\n        /* \"--CODEGEN--\":27:28   */\n      dup1\n        /* \"--CODEGEN--\":20:32   */\n      revert\n        /* \"--CODEGEN--\":5:7   */\n    tag_56:\n        /* \"https://github.com/OpenZeppelin/openzeppelin-contracts/blob/v2.5.0/contracts/token/ERC20/ERC20Detailed.sol\":1472:1553  function decimals() public view returns (uint8) {... */\n      pop\n      tag_57\n      tag_58\n      jump\t// in\n    tag_57:\n      mload(0x40)\n      dup1\n      dup3\n      0xff\n      and\n      0xff\n      and\n      dup2\n      mstore\n      0x20\n      add\n      swap2\n      pop\n      pop\n      mload(0x40)\n      dup1\n      swap2\n      sub\n      swap1\n      return\n        /* \"RE_dApp/OwnershipToken.sol\":1412:1771  function purchaseTokens() public payable {... */\n    tag_9:\n      tag_59\n      tag_60\n      jump\t// in\n    tag_59:\n      stop\n        /* \"RE_dApp/OwnershipToken.sol\":2455:2583  function getInitialTokenValue(address account) public view returns (uint256) {... */\n    tag_10:\n      callvalue\n        /* \"--CODEGEN--\":8:17   */\n      dup1\n        /* \"--CODEGEN--\":5:7   */\n      iszero\n      tag_61\n      jumpi\n        /* \"--CODEGEN--\":30:31   */\n      0x00\n        /* \"--CODEGEN--\":27:28   */\n      dup1\n        /* \"--CODEGEN--\":20:32   */\n      revert\n        /* \"--CODEGEN--\":5:7   */\n    tag_61:\n        /* \"RE_dApp/OwnershipToken.sol\":2455:2583  function getInitialTokenValue(address account) public view returns (uint256) {... */\n      pop\n      tag_62\n      0x04\n      dup1\n      calldatasize\n      sub\n        /* \"--CODEGEN--\":13:15   */\n      0x20\n        /* \"--CODEGEN--\":8:11   */\n      dup2\n        /* \"--CODEGEN--\":5:16   */\n      lt\n        /* \"--CODEGEN--\":2:4   */\n      iszero\n      tag_63\n      jumpi\n        /* \"--CODEGEN--\":29:30   */\n      0x00\n        /* \"--CODEGEN--\":26:27   */\n      dup1\n        /* \"--CODEGEN--\":19:31   */\n      revert\n        /* \"--CODEGEN--\":2:4   */\n    tag_63:\n        /* \"RE_dApp/OwnershipToken.sol\":2455:2583  function getInitialTokenValue(address account) public view returns (uint256) {... */\n      dup2\n      add\n      swap1\n      dup1\n      dup1\n      calldataload\n      0xffffffffffffffffffffffffffffffffffffffff\n      and\n      swap1\n      0x20\n      add\n      swap1\n      swap3\n      swap2\n      swap1\n      pop\n      pop\n      pop\n      tag_64\n      jump\t// in\n    tag_62:\n      mload(0x40)\n      dup1\n      dup3\n      dup2\n      mstore\n      0x20\n      add\n      swap2\n      pop\n      pop\n      mload(0x40)\n      dup1\n      swap2\n      sub\n      swap1\n      return\n        /* \"https://github.com/OpenZeppelin/openzeppelin-contracts/blob/v2.5.0/contracts/token/ERC20/ERC20.sol\":3802:4009  function increaseAllowance(address spender, uint256 addedValue) public returns (bool) {... */\n    tag_11:\n      callvalue\n        /* \"--CODEGEN--\":8:17   */\n      dup1\n        /* \"--CODEGEN--\":5:7   */\n      iszero\n      tag_65\n      jumpi\n        /* \"--CODEGEN--\":30:31   */\n      0x00\n        /* \"--CODEGEN--\":27:28   */\n      dup1\n        /* \"--CODEGEN--\":20:32   */\n      revert\n        /* \"--CODEGEN--\":5:7   */\n    tag_65:\n        /* \"https://github.com/OpenZeppelin/openzeppelin-contracts/blob/v2.5.0/contracts/token/ERC20/ERC20.sol\":3802:4009  function increaseAllowance(address spender, uint256 addedValue) public returns (bool) {... */\n      pop\n      tag_66\n      0x04\n      dup1\n      calldatasize\n      sub\n        /* \"--CODEGEN--\":13:15   */\n      0x40\n        /* \"--CODEGEN--\":8:11   */\n      dup2\n        /* \"--CODEGEN--\":5:16   */\n      lt\n        /* \"--CODEGEN--\":2:4   */\n      iszero\n      tag_67\n      jumpi\n        /* \"--CODEGEN--\":29:30   */\n      0x00\n        /* \"--CODEGEN--\":26:27   */\n      dup1\n        /* \"--CODEGEN--\":19:31   */\n      revert\n        /* \"--CODEGEN--\":2:4   */\n    tag_67:\n        /* \"https://github.com/OpenZeppelin/openzeppelin-contracts/blob/v2.5.0/contracts/token/ERC20/ERC20.sol\":3802:4009  function increaseAllowance(address spender, uint256 addedValue) public returns (bool) {... */\n      dup2\n      add\n      swap1\n      dup1\n      dup1\n      calldataload\n      0xffffffffffffffffffffffffffffffffffffffff\n      and\n      swap1\n      0x20\n      add\n      swap1\n      swap3\n      swap2\n      swap1\n      dup1\n      calldataload\n      swap1\n      0x20\n      add\n      swap1\n      swap3\n      swap2\n      swap1\n      pop\n      pop\n      pop\n      tag_68\n      jump\t// in\n    tag_66:\n      mload(0x40)\n      dup1\n      dup3\n      iszero\n      iszero\n      iszero\n      iszero\n      dup2\n      mstore\n      0x20\n      add\n      swap2\n      pop\n      pop\n      mload(0x40)\n      dup1\n      swap2\n      sub\n      swap1\n      return\n        /* \"https://github.com/OpenZeppelin/openzeppelin-contracts/blob/v2.5.0/contracts/token/ERC20/ERC20Mintable.sol\":502:642  function mint(address account, uint256 amount) public onlyMinter returns (bool) {... */\n    tag_12:\n      callvalue\n        /* \"--CODEGEN--\":8:17   */\n      dup1\n        /* \"--CODEGEN--\":5:7   */\n      iszero\n      tag_69\n      jumpi\n        /* \"--CODEGEN--\":30:31   */\n      0x00\n        /* \"--CODEGEN--\":27:28   */\n      dup1\n        /* \"--CODEGEN--\":20:32   */\n      revert\n        /* \"--CODEGEN--\":5:7   */\n    tag_69:\n        /* \"https://github.com/OpenZeppelin/openzeppelin-contracts/blob/v2.5.0/contracts/token/ERC20/ERC20Mintable.sol\":502:642  function mint(address account, uint256 amount) public onlyMinter returns (bool) {... */\n      pop\n      tag_70\n      0x04\n      dup1\n      calldatasize\n      sub\n        /* \"--CODEGEN--\":13:15   */\n      0x40\n        /* \"--CODEGEN--\":8:11   */\n      dup2\n        /* \"--CODEGEN--\":5:16   */\n      lt\n        /* \"--CODEGEN--\":2:4   */\n      iszero\n      tag_71\n      jumpi\n        /* \"--CODEGEN--\":29:30   */\n      0x00\n        /* \"--CODEGEN--\":26:27   */\n      dup1\n        /* \"--CODEGEN--\":19:31   */\n      revert\n        /* \"--CODEGEN--\":2:4   */\n    tag_71:\n        /* \"https://github.com/OpenZeppelin/openzeppelin-contracts/blob/v2.5.0/contracts/token/ERC20/ERC20Mintable.sol\":502:642  function mint(address account, uint256 amount) public onlyMinter returns (bool) {... */\n      dup2\n      add\n      swap1\n      dup1\n      dup1\n      calldataload\n      0xffffffffffffffffffffffffffffffffffffffff\n      and\n      swap1\n      0x20\n      add\n      swap1\n      swap3\n      swap2\n      swap1\n      dup1\n      calldataload\n      swap1\n      0x20\n      add\n      swap1\n      swap3\n      swap2\n      swap1\n      pop\n      pop\n      pop\n      tag_72\n      jump\t// in\n    tag_70:\n      mload(0x40)\n      dup1\n      dup3\n      iszero\n      iszero\n      iszero\n      iszero\n      dup2\n      mstore\n      0x20\n      add\n      swap2\n      pop\n      pop\n      mload(0x40)\n      dup1\n      swap2\n      sub\n      swap1\n      return\n        /* \"https://github.com/OpenZeppelin/openzeppelin-contracts/blob/v2.5.0/contracts/token/ERC20/ERC20.sol\":1706:1814  function balanceOf(address account) public view returns (uint256) {... */\n    tag_13:\n      callvalue\n        /* \"--CODEGEN--\":8:17   */\n      dup1\n        /* \"--CODEGEN--\":5:7   */\n      iszero\n      tag_73\n      jumpi\n        /* \"--CODEGEN--\":30:31   */\n      0x00\n        /* \"--CODEGEN--\":27:28   */\n      dup1\n        /* \"--CODEGEN--\":20:32   */\n      revert\n        /* \"--CODEGEN--\":5:7   */\n    tag_73:\n        /* \"https://github.com/OpenZeppelin/openzeppelin-contracts/blob/v2.5.0/contracts/token/ERC20/ERC20.sol\":1706:1814  function balanceOf(address account) public view returns (uint256) {... */\n      pop\n      tag_74\n      0x04\n      dup1\n      calldatasize\n      sub\n        /* \"--CODEGEN--\":13:15   */\n      0x20\n        /* \"--CODEGEN--\":8:11   */\n      dup2\n        /* \"--CODEGEN--\":5:16   */\n      lt\n        /* \"--CODEGEN--\":2:4   */\n      iszero\n      tag_75\n      jumpi\n        /* \"--CODEGEN--\":29:30   */\n      0x00\n        /* \"--CODEGEN--\":26:27   */\n      dup1\n        /* \"--CODEGEN--\":19:31   */\n      revert\n        /* \"--CODEGEN--\":2:4   */\n    tag_75:\n        /* \"https://github.com/OpenZeppelin/openzeppelin-contracts/blob/v2.5.0/contracts/token/ERC20/ERC20.sol\":1706:1814  function balanceOf(address account) public view returns (uint256) {... */\n      dup2\n      add\n      swap1\n      dup1\n      dup1\n      calldataload\n      0xffffffffffffffffffffffffffffffffffffffff\n      and\n      swap1\n      0x20\n      add\n      swap1\n      swap3\n      swap2\n      swap1\n      pop\n      pop\n      pop\n      tag_76\n      jump\t// in\n    tag_74:\n      mload(0x40)\n      dup1\n      dup3\n      dup2\n      mstore\n      0x20\n      add\n      swap2\n      pop\n      pop\n      mload(0x40)\n      dup1\n      swap2\n      sub\n      swap1\n      return\n        /* \"https://github.com/OpenZeppelin/openzeppelin-contracts/blob/v2.5.0/contracts/ownership/Ownable.sol\":1684:1821  function renounceOwnership() public onlyOwner {... */\n    tag_14:\n      callvalue\n        /* \"--CODEGEN--\":8:17   */\n      dup1\n        /* \"--CODEGEN--\":5:7   */\n      iszero\n      tag_77\n      jumpi\n        /* \"--CODEGEN--\":30:31   */\n      0x00\n        /* \"--CODEGEN--\":27:28   */\n      dup1\n        /* \"--CODEGEN--\":20:32   */\n      revert\n        /* \"--CODEGEN--\":5:7   */\n    tag_77:\n        /* \"https://github.com/OpenZeppelin/openzeppelin-contracts/blob/v2.5.0/contracts/ownership/Ownable.sol\":1684:1821  function renounceOwnership() public onlyOwner {... */\n      pop\n      tag_78\n      tag_79\n      jump\t// in\n    tag_78:\n      stop\n        /* \"RE_dApp/OwnershipToken.sol\":629:664  uint256 public currentPropertyValue */\n    tag_15:\n      callvalue\n        /* \"--CODEGEN--\":8:17   */\n      dup1\n        /* \"--CODEGEN--\":5:7   */\n      iszero\n      tag_80\n      jumpi\n        /* \"--CODEGEN--\":30:31   */\n      0x00\n        /* \"--CODEGEN--\":27:28   */\n      dup1\n        /* \"--CODEGEN--\":20:32   */\n      revert\n        /* \"--CODEGEN--\":5:7   */\n    tag_80:\n        /* \"RE_dApp/OwnershipToken.sol\":629:664  uint256 public currentPropertyValue */\n      pop\n      tag_81\n      tag_82\n      jump\t// in\n    tag_81:\n      mload(0x40)\n      dup1\n      dup3\n      dup2\n      mstore\n      0x20\n      add\n      swap2\n      pop\n      pop\n      mload(0x40)\n      dup1\n      swap2\n      sub\n      swap1\n      return\n        /* \"https://github.com/OpenZeppelin/openzeppelin-contracts/blob/v2.5.0/contracts/ownership/Ownable.sol\":899:976  function owner() public view returns (address) {... */\n    tag_16:\n      callvalue\n        /* \"--CODEGEN--\":8:17   */\n      dup1\n        /* \"--CODEGEN--\":5:7   */\n      iszero\n      tag_83\n      jumpi\n        /* \"--CODEGEN--\":30:31   */\n      0x00\n        /* \"--CODEGEN--\":27:28   */\n      dup1\n        /* \"--CODEGEN--\":20:32   */\n      revert\n        /* \"--CODEGEN--\":5:7   */\n    tag_83:\n        /* \"https://github.com/OpenZeppelin/openzeppelin-contracts/blob/v2.5.0/contracts/ownership/Ownable.sol\":899:976  function owner() public view returns (address) {... */\n      pop\n      tag_84\n      tag_85\n      jump\t// in\n    tag_84:\n      mload(0x40)\n      dup1\n      dup3\n      0xffffffffffffffffffffffffffffffffffffffff\n      and\n      0xffffffffffffffffffffffffffffffffffffffff\n      and\n      dup2\n      mstore\n      0x20\n      add\n      swap2\n      pop\n      pop\n      mload(0x40)\n      dup1\n      swap2\n      sub\n      swap1\n      return\n        /* \"https://github.com/OpenZeppelin/openzeppelin-contracts/blob/v2.5.0/contracts/ownership/Ownable.sol\":1250:1342  function isOwner() public view returns (bool) {... */\n    tag_17:\n      callvalue\n        /* \"--CODEGEN--\":8:17   */\n      dup1\n        /* \"--CODEGEN--\":5:7   */\n      iszero\n      tag_86\n      jumpi\n        /* \"--CODEGEN--\":30:31   */\n      0x00\n        /* \"--CODEGEN--\":27:28   */\n      dup1\n        /* \"--CODEGEN--\":20:32   */\n      revert\n        /* \"--CODEGEN--\":5:7   */\n    tag_86:\n        /* \"https://github.com/OpenZeppelin/openzeppelin-contracts/blob/v2.5.0/contracts/ownership/Ownable.sol\":1250:1342  function isOwner() public view returns (bool) {... */\n      pop\n      tag_87\n      tag_88\n      jump\t// in\n    tag_87:\n      mload(0x40)\n      dup1\n      dup3\n      iszero\n      iszero\n      iszero\n      iszero\n      dup2\n      mstore\n      0x20\n      add\n      swap2\n      pop\n      pop\n      mload(0x40)\n      dup1\n      swap2\n      sub\n      swap1\n      return\n        /* \"https://github.com/OpenZeppelin/openzeppelin-contracts/blob/v2.5.0/contracts/token/ERC20/ERC20Detailed.sol\":838:923  function symbol() public view returns (string memory) {... */\n    tag_18:\n      callvalue\n        /* \"--CODEGEN--\":8:17   */\n      dup1\n        /* \"--CODEGEN--\":5:7   */\n      iszero\n      tag_89\n      jumpi\n        /* \"--CODEGEN--\":30:31   */\n      0x00\n        /* \"--CODEGEN--\":27:28   */\n      dup1\n        /* \"--CODEGEN--\":20:32   */\n      revert\n        /* \"--CODEGEN--\":5:7   */\n    tag_89:\n        /* \"https://github.com/OpenZeppelin/openzeppelin-contracts/blob/v2.5.0/contracts/token/ERC20/ERC20Detailed.sol\":838:923  function symbol() public view returns (string memory) {... */\n      pop\n      tag_90\n      tag_91\n      jump\t// in\n    tag_90:\n      mload(0x40)\n      dup1\n      dup1\n      0x20\n      add\n      dup3\n      dup2\n      sub\n      dup3\n      mstore\n      dup4\n      dup2\n      dup2\n      mload\n      dup2\n      mstore\n      0x20\n      add\n      swap2\n      pop\n      dup1\n      mload\n      swap1\n      0x20\n      add\n      swap1\n      dup1\n      dup4\n      dup4\n        /* \"--CODEGEN--\":23:24   */\n      0x00\n        /* \"--CODEGEN--\":8:108   */\n    tag_92:\n        /* \"--CODEGEN--\":33:36   */\n      dup4\n        /* \"--CODEGEN--\":30:31   */\n      dup2\n        /* \"--CODEGEN--\":27:37   */\n      lt\n        /* \"--CODEGEN--\":8:108   */\n      iszero\n      tag_93\n      jumpi\n        /* \"--CODEGEN--\":99:100   */\n      dup1\n        /* \"--CODEGEN--\":94:97   */\n      dup3\n        /* \"--CODEGEN--\":90:101   */\n      add\n        /* \"--CODEGEN--\":84:102   */\n      mload\n        /* \"--CODEGEN--\":80:81   */\n      dup2\n        /* \"--CODEGEN--\":75:78   */\n      dup5\n        /* \"--CODEGEN--\":71:82   */\n      add\n        /* \"--CODEGEN--\":64:103   */\n      mstore\n        /* \"--CODEGEN--\":52:54   */\n      0x20\n        /* \"--CODEGEN--\":49:50   */\n      dup2\n        /* \"--CODEGEN--\":45:55   */\n      add\n        /* \"--CODEGEN--\":40:55   */\n      swap1\n      pop\n        /* \"--CODEGEN--\":8:108   */\n      jump(tag_92)\n    tag_93:\n        /* \"--CODEGEN--\":12:26   */\n      pop\n        /* \"https://github.com/OpenZeppelin/openzeppelin-contracts/blob/v2.5.0/contracts/token/ERC20/ERC20Detailed.sol\":838:923  function symbol() public view returns (string memory) {... */\n      pop\n      pop\n      pop\n      swap1\n      pop\n      swap1\n      dup2\n      add\n      swap1\n      0x1f\n      and\n      dup1\n      iszero\n      tag_95\n      jumpi\n      dup1\n      dup3\n      sub\n      dup1\n      mload\n      0x01\n      dup4\n      0x20\n      sub\n      0x0100\n      exp\n      sub\n      not\n      and\n      dup2\n      mstore\n      0x20\n      add\n      swap2\n      pop\n    tag_95:\n      pop\n      swap3\n      pop\n      pop\n      pop\n      mload(0x40)\n      dup1\n      swap2\n      sub\n      swap1\n      return\n        /* \"https://github.com/OpenZeppelin/openzeppelin-contracts/blob/v2.5.0/contracts/access/roles/MinterRole.sol\":607:697  function addMinter(address account) public onlyMinter {... */\n    tag_19:\n      callvalue\n        /* \"--CODEGEN--\":8:17   */\n      dup1\n        /* \"--CODEGEN--\":5:7   */\n      iszero\n      tag_96\n      jumpi\n        /* \"--CODEGEN--\":30:31   */\n      0x00\n        /* \"--CODEGEN--\":27:28   */\n      dup1\n        /* \"--CODEGEN--\":20:32   */\n      revert\n        /* \"--CODEGEN--\":5:7   */\n    tag_96:\n        /* \"https://github.com/OpenZeppelin/openzeppelin-contracts/blob/v2.5.0/contracts/access/roles/MinterRole.sol\":607:697  function addMinter(address account) public onlyMinter {... */\n      pop\n      tag_97\n      0x04\n      dup1\n      calldatasize\n      sub\n        /* \"--CODEGEN--\":13:15   */\n      0x20\n        /* \"--CODEGEN--\":8:11   */\n      dup2\n        /* \"--CODEGEN--\":5:16   */\n      lt\n        /* \"--CODEGEN--\":2:4   */\n      iszero\n      tag_98\n      jumpi\n        /* \"--CODEGEN--\":29:30   */\n      0x00\n        /* \"--CODEGEN--\":26:27   */\n      dup1\n        /* \"--CODEGEN--\":19:31   */\n      revert\n        /* \"--CODEGEN--\":2:4   */\n    tag_98:\n        /* \"https://github.com/OpenZeppelin/openzeppelin-contracts/blob/v2.5.0/contracts/access/roles/MinterRole.sol\":607:697  function addMinter(address account) public onlyMinter {... */\n      dup2\n      add\n      swap1\n      dup1\n      dup1\n      calldataload\n      0xffffffffffffffffffffffffffffffffffffffff\n      and\n      swap1\n      0x20\n      add\n      swap1\n      swap3\n      swap2\n      swap1\n      pop\n      pop\n      pop\n      tag_99\n      jump\t// in\n    tag_97:\n      stop\n        /* \"https://github.com/OpenZeppelin/openzeppelin-contracts/blob/v2.5.0/contracts/access/roles/MinterRole.sol\":703:780  function renounceMinter() public {... */\n    tag_20:\n      callvalue\n        /* \"--CODEGEN--\":8:17   */\n      dup1\n        /* \"--CODEGEN--\":5:7   */\n      iszero\n      tag_100\n      jumpi\n        /* \"--CODEGEN--\":30:31   */\n      0x00\n        /* \"--CODEGEN--\":27:28   */\n      dup1\n        /* \"--CODEGEN--\":20:32   */\n      revert\n        /* \"--CODEGEN--\":5:7   */\n    tag_100:\n        /* \"https://github.com/OpenZeppelin/openzeppelin-contracts/blob/v2.5.0/contracts/access/roles/MinterRole.sol\":703:780  function renounceMinter() public {... */\n      pop\n      tag_101\n      tag_102\n      jump\t// in\n    tag_101:\n      stop\n        /* \"https://github.com/OpenZeppelin/openzeppelin-contracts/blob/v2.5.0/contracts/token/ERC20/ERC20.sol\":4496:4754  function decreaseAllowance(address spender, uint256 subtractedValue) public returns (bool) {... */\n    tag_21:\n      callvalue\n        /* \"--CODEGEN--\":8:17   */\n      dup1\n        /* \"--CODEGEN--\":5:7   */\n      iszero\n      tag_103\n      jumpi\n        /* \"--CODEGEN--\":30:31   */\n      0x00\n        /* \"--CODEGEN--\":27:28   */\n      dup1\n        /* \"--CODEGEN--\":20:32   */\n      revert\n        /* \"--CODEGEN--\":5:7   */\n    tag_103:\n        /* \"https://github.com/OpenZeppelin/openzeppelin-contracts/blob/v2.5.0/contracts/token/ERC20/ERC20.sol\":4496:4754  function decreaseAllowance(address spender, uint256 subtractedValue) public returns (bool) {... */\n      pop\n      tag_104\n      0x04\n      dup1\n      calldatasize\n      sub\n        /* \"--CODEGEN--\":13:15   */\n      0x40\n        /* \"--CODEGEN--\":8:11   */\n      dup2\n        /* \"--CODEGEN--\":5:16   */\n      lt\n        /* \"--CODEGEN--\":2:4   */\n      iszero\n      tag_105\n      jumpi\n        /* \"--CODEGEN--\":29:30   */\n      0x00\n        /* \"--CODEGEN--\":26:27   */\n      dup1\n        /* \"--CODEGEN--\":19:31   */\n      revert\n        /* \"--CODEGEN--\":2:4   */\n    tag_105:\n        /* \"https://github.com/OpenZeppelin/openzeppelin-contracts/blob/v2.5.0/contracts/token/ERC20/ERC20.sol\":4496:4754  function decreaseAllowance(address spender, uint256 subtractedValue) public returns (bool) {... */\n      dup2\n      add\n      swap1\n      dup1\n      dup1\n      calldataload\n      0xffffffffffffffffffffffffffffffffffffffff\n      and\n      swap1\n      0x20\n      add\n      swap1\n      swap3\n      swap2\n      swap1\n      dup1\n      calldataload\n      swap1\n      0x20\n      add\n      swap1\n      swap3\n      swap2\n      swap1\n      pop\n      pop\n      pop\n      tag_106\n      jump\t// in\n    tag_104:\n      mload(0x40)\n      dup1\n      dup3\n      iszero\n      iszero\n      iszero\n      iszero\n      dup2\n      mstore\n      0x20\n      add\n      swap2\n      pop\n      pop\n      mload(0x40)\n      dup1\n      swap2\n      sub\n      swap1\n      return\n        /* \"RE_dApp/OwnershipToken.sol\":1840:2449  function transfer(address recipient, uint256 amount) public returns (bool) {... */\n    tag_22:\n      callvalue\n        /* \"--CODEGEN--\":8:17   */\n      dup1\n        /* \"--CODEGEN--\":5:7   */\n      iszero\n      tag_107\n      jumpi\n        /* \"--CODEGEN--\":30:31   */\n      0x00\n        /* \"--CODEGEN--\":27:28   */\n      dup1\n        /* \"--CODEGEN--\":20:32   */\n      revert\n        /* \"--CODEGEN--\":5:7   */\n    tag_107:\n        /* \"RE_dApp/OwnershipToken.sol\":1840:2449  function transfer(address recipient, uint256 amount) public returns (bool) {... */\n      pop\n      tag_108\n      0x04\n      dup1\n      calldatasize\n      sub\n        /* \"--CODEGEN--\":13:15   */\n      0x40\n        /* \"--CODEGEN--\":8:11   */\n      dup2\n        /* \"--CODEGEN--\":5:16   */\n      lt\n        /* \"--CODEGEN--\":2:4   */\n      iszero\n      tag_109\n      jumpi\n        /* \"--CODEGEN--\":29:30   */\n      0x00\n        /* \"--CODEGEN--\":26:27   */\n      dup1\n        /* \"--CODEGEN--\":19:31   */\n      revert\n        /* \"--CODEGEN--\":2:4   */\n    tag_109:\n        /* \"RE_dApp/OwnershipToken.sol\":1840:2449  function transfer(address recipient, uint256 amount) public returns (bool) {... */\n      dup2\n      add\n      swap1\n      dup1\n      dup1\n      calldataload\n      0xffffffffffffffffffffffffffffffffffffffff\n      and\n      swap1\n      0x20\n      add\n      swap1\n      swap3\n      swap2\n      swap1\n      dup1\n      calldataload\n      swap1\n      0x20\n      add\n      swap1\n      swap3\n      swap2\n      swap1\n      pop\n      pop\n      pop\n      tag_110\n      jump\t// in\n    tag_108:\n      mload(0x40)\n      dup1\n      dup3\n      iszero\n      iszero\n      iszero\n      iszero\n      dup2\n      mstore\n      0x20\n      add\n      swap2\n      pop\n      pop\n      mload(0x40)\n      dup1\n      swap2\n      sub\n      swap1\n      return\n        /* \"https://github.com/OpenZeppelin/openzeppelin-contracts/blob/v2.5.0/contracts/access/roles/MinterRole.sol\":494:601  function isMinter(address account) public view returns (bool) {... */\n    tag_23:\n      callvalue\n        /* \"--CODEGEN--\":8:17   */\n      dup1\n        /* \"--CODEGEN--\":5:7   */\n      iszero\n      tag_111\n      jumpi\n        /* \"--CODEGEN--\":30:31   */\n      0x00\n        /* \"--CODEGEN--\":27:28   */\n      dup1\n        /* \"--CODEGEN--\":20:32   */\n      revert\n        /* \"--CODEGEN--\":5:7   */\n    tag_111:\n        /* \"https://github.com/OpenZeppelin/openzeppelin-contracts/blob/v2.5.0/contracts/access/roles/MinterRole.sol\":494:601  function isMinter(address account) public view returns (bool) {... */\n      pop\n      tag_112\n      0x04\n      dup1\n      calldatasize\n      sub\n        /* \"--CODEGEN--\":13:15   */\n      0x20\n        /* \"--CODEGEN--\":8:11   */\n      dup2\n        /* \"--CODEGEN--\":5:16   */\n      lt\n        /* \"--CODEGEN--\":2:4   */\n      iszero\n      tag_113\n      jumpi\n        /* \"--CODEGEN--\":29:30   */\n      0x00\n        /* \"--CODEGEN--\":26:27   */\n      dup1\n        /* \"--CODEGEN--\":19:31   */\n      revert\n        /* \"--CODEGEN--\":2:4   */\n    tag_113:\n        /* \"https://github.com/OpenZeppelin/openzeppelin-contracts/blob/v2.5.0/contracts/access/roles/MinterRole.sol\":494:601  function isMinter(address account) public view returns (bool) {... */\n      dup2\n      add\n      swap1\n      dup1\n      dup1\n      calldataload\n      0xffffffffffffffffffffffffffffffffffffffff\n      and\n      swap1\n      0x20\n      add\n      swap1\n      swap3\n      swap2\n      swap1\n      pop\n      pop\n      pop\n      tag_114\n      jump\t// in\n    tag_112:\n      mload(0x40)\n      dup1\n      dup3\n      iszero\n      iszero\n      iszero\n      iszero\n      dup2\n      mstore\n      0x20\n      add\n      swap2\n      pop\n      pop\n      mload(0x40)\n      dup1\n      swap2\n      sub\n      swap1\n      return\n        /* \"https://github.com/OpenZeppelin/openzeppelin-contracts/blob/v2.5.0/contracts/token/ERC20/ERC20.sol\":2230:2362  function allowance(address owner, address spender) public view returns (uint256) {... */\n    tag_24:\n      callvalue\n        /* \"--CODEGEN--\":8:17   */\n      dup1\n        /* \"--CODEGEN--\":5:7   */\n      iszero\n      tag_115\n      jumpi\n        /* \"--CODEGEN--\":30:31   */\n      0x00\n        /* \"--CODEGEN--\":27:28   */\n      dup1\n        /* \"--CODEGEN--\":20:32   */\n      revert\n        /* \"--CODEGEN--\":5:7   */\n    tag_115:\n        /* \"https://github.com/OpenZeppelin/openzeppelin-contracts/blob/v2.5.0/contracts/token/ERC20/ERC20.sol\":2230:2362  function allowance(address owner, address spender) public view returns (uint256) {... */\n      pop\n      tag_116\n      0x04\n      dup1\n      calldatasize\n      sub\n        /* \"--CODEGEN--\":13:15   */\n      0x40\n        /* \"--CODEGEN--\":8:11   */\n      dup2\n        /* \"--CODEGEN--\":5:16   */\n      lt\n        /* \"--CODEGEN--\":2:4   */\n      iszero\n      tag_117\n      jumpi\n        /* \"--CODEGEN--\":29:30   */\n      0x00\n        /* \"--CODEGEN--\":26:27   */\n      dup1\n        /* \"--CODEGEN--\":19:31   */\n      revert\n        /* \"--CODEGEN--\":2:4   */\n    tag_117:\n        /* \"https://github.com/OpenZeppelin/openzeppelin-contracts/blob/v2.5.0/contracts/token/ERC20/ERC20.sol\":2230:2362  function allowance(address owner, address spender) public view returns (uint256) {... */\n      dup2\n      add\n      swap1\n      dup1\n      dup1\n      calldataload\n      0xffffffffffffffffffffffffffffffffffffffff\n      and\n      swap1\n      0x20\n      add\n      swap1\n      swap3\n      swap2\n      swap1\n      dup1\n      calldataload\n      0xffffffffffffffffffffffffffffffffffffffff\n      and\n      swap1\n      0x20\n      add\n      swap1\n      swap3\n      swap2\n      swap1\n      pop\n      pop\n      pop\n      tag_118\n      jump\t// in\n    tag_116:\n      mload(0x40)\n      dup1\n      dup3\n      dup2\n      mstore\n      0x20\n      add\n      swap2\n      pop\n      pop\n      mload(0x40)\n      dup1\n      swap2\n      sub\n      swap1\n      return\n        /* \"https://github.com/OpenZeppelin/openzeppelin-contracts/blob/v2.5.0/contracts/ownership/Ownable.sol\":1970:2077  function transferOwnership(address newOwner) public onlyOwner {... */\n    tag_25:\n      callvalue\n        /* \"--CODEGEN--\":8:17   */\n      dup1\n        /* \"--CODEGEN--\":5:7   */\n      iszero\n      tag_119\n      jumpi\n        /* \"--CODEGEN--\":30:31   */\n      0x00\n        /* \"--CODEGEN--\":27:28   */\n      dup1\n        /* \"--CODEGEN--\":20:32   */\n      revert\n        /* \"--CODEGEN--\":5:7   */\n    tag_119:\n        /* \"https://github.com/OpenZeppelin/openzeppelin-contracts/blob/v2.5.0/contracts/ownership/Ownable.sol\":1970:2077  function transferOwnership(address newOwner) public onlyOwner {... */\n      pop\n      tag_120\n      0x04\n      dup1\n      calldatasize\n      sub\n        /* \"--CODEGEN--\":13:15   */\n      0x20\n        /* \"--CODEGEN--\":8:11   */\n      dup2\n        /* \"--CODEGEN--\":5:16   */\n      lt\n        /* \"--CODEGEN--\":2:4   */\n      iszero\n      tag_121\n      jumpi\n        /* \"--CODEGEN--\":29:30   */\n      0x00\n        /* \"--CODEGEN--\":26:27   */\n      dup1\n        /* \"--CODEGEN--\":19:31   */\n      revert\n        /* \"--CODEGEN--\":2:4   */\n    tag_121:\n        /* \"https://github.com/OpenZeppelin/openzeppelin-contracts/blob/v2.5.0/contracts/ownership/Ownable.sol\":1970:2077  function transferOwnership(address newOwner) public onlyOwner {... */\n      dup2\n      add\n      swap1\n      dup1\n      dup1\n      calldataload\n      0xffffffffffffffffffffffffffffffffffffffff\n      and\n      swap1\n      0x20\n      add\n      swap1\n      swap3\n      swap2\n      swap1\n      pop\n      pop\n      pop\n      tag_122\n      jump\t// in\n    tag_120:\n      stop\n        /* \"RE_dApp/OwnershipToken.sol\":588:623  uint256 public initialPropertyPrice */\n    tag_26:\n      callvalue\n        /* \"--CODEGEN--\":8:17   */\n      dup1\n        /* \"--CODEGEN--\":5:7   */\n      iszero\n      tag_123\n      jumpi\n        /* \"--CODEGEN--\":30:31   */\n      0x00\n        /* \"--CODEGEN--\":27:28   */\n      dup1\n        /* \"--CODEGEN--\":20:32   */\n      revert\n        /* \"--CODEGEN--\":5:7   */\n    tag_123:\n        /* \"RE_dApp/OwnershipToken.sol\":588:623  uint256 public initialPropertyPrice */\n      pop\n      tag_124\n      tag_125\n      jump\t// in\n    tag_124:\n      mload(0x40)\n      dup1\n      dup3\n      dup2\n      mstore\n      0x20\n      add\n      swap2\n      pop\n      pop\n      mload(0x40)\n      dup1\n      swap2\n      sub\n      swap1\n      return\n        /* \"RE_dApp/OwnershipToken.sol\":1170:1295  function updateTokenValue(uint256 newPropertyValue) public onlyOwner {... */\n    tag_34:\n        /* \"https://github.com/OpenZeppelin/openzeppelin-contracts/blob/v2.5.0/contracts/ownership/Ownable.sol\":1103:1112  isOwner() */\n      tag_127\n        /* \"https://github.com/OpenZeppelin/openzeppelin-contracts/blob/v2.5.0/contracts/ownership/Ownable.sol\":1103:1110  isOwner */\n      tag_88\n        /* \"https://github.com/OpenZeppelin/openzeppelin-contracts/blob/v2.5.0/contracts/ownership/Ownable.sol\":1103:1112  isOwner() */\n      jump\t// in\n    tag_127:\n        /* \"https://github.com/OpenZeppelin/openzeppelin-contracts/blob/v2.5.0/contracts/ownership/Ownable.sol\":1095:1149  require(isOwner(), \"Ownable: caller is not the owner\") */\n      iszero\n      iszero\n      tag_128\n      jumpi\n      mload(0x40)\n      0x08c379a000000000000000000000000000000000000000000000000000000000\n      dup2\n      mstore\n      0x04\n      add\n      dup1\n      dup1\n      0x20\n      add\n      dup3\n      dup2\n      sub\n      dup3\n      mstore\n      0x20\n      dup2\n      mstore\n      0x20\n      add\n      dup1\n      0x4f776e61626c653a2063616c6c6572206973206e6f7420746865206f776e6572\n      dup2\n      mstore\n      pop\n      0x20\n      add\n      swap2\n      pop\n      pop\n      mload(0x40)\n      dup1\n      swap2\n      sub\n      swap1\n      revert\n    tag_128:\n        /* \"RE_dApp/OwnershipToken.sol\":1272:1288  newPropertyValue */\n      dup1\n        /* \"RE_dApp/OwnershipToken.sol\":1249:1269  currentPropertyValue */\n      0x09\n        /* \"RE_dApp/OwnershipToken.sol\":1249:1288  currentPropertyValue = newPropertyValue */\n      dup2\n      swap1\n      sstore\n      pop\n        /* \"RE_dApp/OwnershipToken.sol\":1170:1295  function updateTokenValue(uint256 newPropertyValue) public onlyOwner {... */\n      pop\n      jump\t// out\n        /* \"https://github.com/OpenZeppelin/openzeppelin-contracts/blob/v2.5.0/contracts/token/ERC20/ERC20Detailed.sol\":644:725  function name() public view returns (string memory) {... */\n    tag_37:\n        /* \"https://github.com/OpenZeppelin/openzeppelin-contracts/blob/v2.5.0/contracts/token/ERC20/ERC20Detailed.sol\":681:694  string memory */\n      0x60\n        /* \"https://github.com/OpenZeppelin/openzeppelin-contracts/blob/v2.5.0/contracts/token/ERC20/ERC20Detailed.sol\":713:718  _name */\n      0x03\n        /* \"https://github.com/OpenZeppelin/openzeppelin-contracts/blob/v2.5.0/contracts/token/ERC20/ERC20Detailed.sol\":706:718  return _name */\n      dup1\n      sload\n      0x01\n      dup2\n      0x01\n      and\n      iszero\n      0x0100\n      mul\n      sub\n      and\n      0x02\n      swap1\n      div\n      dup1\n      0x1f\n      add\n      0x20\n      dup1\n      swap2\n      div\n      mul\n      0x20\n      add\n      mload(0x40)\n      swap1\n      dup2\n      add\n      0x40\n      mstore\n      dup1\n      swap3\n      swap2\n      swap1\n      dup2\n      dup2\n      mstore\n      0x20\n      add\n      dup3\n      dup1\n      sload\n      0x01\n      dup2\n      0x01\n      and\n      iszero\n      0x0100\n      mul\n      sub\n      and\n      0x02\n      swap1\n      div\n      dup1\n      iszero\n      tag_131\n      jumpi\n      dup1\n      0x1f\n      lt\n      tag_132\n      jumpi\n      0x0100\n      dup1\n      dup4\n      sload\n      div\n      mul\n      dup4\n      mstore\n      swap2\n      0x20\n      add\n      swap2\n      jump(tag_131)\n    tag_132:\n      dup3\n      add\n      swap2\n      swap1\n      0x00\n      mstore\n      keccak256(0x00, 0x20)\n      swap1\n    tag_133:\n      dup2\n      sload\n      dup2\n      mstore\n      swap1\n      0x01\n      add\n      swap1\n      0x20\n      add\n      dup1\n      dup4\n      gt\n      tag_133\n      jumpi\n      dup3\n      swap1\n      sub\n      0x1f\n      and\n      dup3\n      add\n      swap2\n    tag_131:\n      pop\n      pop\n      pop\n      pop\n      pop\n      swap1\n      pop\n        /* \"https://github.com/OpenZeppelin/openzeppelin-contracts/blob/v2.5.0/contracts/token/ERC20/ERC20Detailed.sol\":644:725  function name() public view returns (string memory) {... */\n      swap1\n      jump\t// out\n        /* \"RE_dApp/OwnershipToken.sol\":1301:1406  function getTokenValue() public view returns (uint256) {... */\n    tag_44:\n        /* \"RE_dApp/OwnershipToken.sol\":1347:1354  uint256 */\n      0x00\n        /* \"RE_dApp/OwnershipToken.sol\":1396:1399  100 */\n      0x64\n        /* \"RE_dApp/OwnershipToken.sol\":1373:1393  currentPropertyValue */\n      sload(0x09)\n        /* \"RE_dApp/OwnershipToken.sol\":1373:1399  currentPropertyValue / 100 */\n      dup2\n      iszero\n      iszero\n      tag_135\n      jumpi\n      invalid\n    tag_135:\n      div\n        /* \"RE_dApp/OwnershipToken.sol\":1366:1399  return currentPropertyValue / 100 */\n      swap1\n      pop\n        /* \"RE_dApp/OwnershipToken.sol\":1301:1406  function getTokenValue() public view returns (uint256) {... */\n      swap1\n      jump\t// out\n        /* \"https://github.com/OpenZeppelin/openzeppelin-contracts/blob/v2.5.0/contracts/token/ERC20/ERC20.sol\":2500:2649  function approve(address spender, uint256 amount) public returns (bool) {... */\n    tag_48:\n        /* \"https://github.com/OpenZeppelin/openzeppelin-contracts/blob/v2.5.0/contracts/token/ERC20/ERC20.sol\":2566:2570  bool */\n      0x00\n        /* \"https://github.com/OpenZeppelin/openzeppelin-contracts/blob/v2.5.0/contracts/token/ERC20/ERC20.sol\":2582:2621  _approve(_msgSender(), spender, amount) */\n      tag_137\n        /* \"https://github.com/OpenZeppelin/openzeppelin-contracts/blob/v2.5.0/contracts/token/ERC20/ERC20.sol\":2591:2603  _msgSender() */\n      tag_138\n        /* \"https://github.com/OpenZeppelin/openzeppelin-contracts/blob/v2.5.0/contracts/token/ERC20/ERC20.sol\":2591:2601  _msgSender */\n      tag_139\n        /* \"https://github.com/OpenZeppelin/openzeppelin-contracts/blob/v2.5.0/contracts/token/ERC20/ERC20.sol\":2591:2603  _msgSender() */\n      jump\t// in\n    tag_138:\n        /* \"https://github.com/OpenZeppelin/openzeppelin-contracts/blob/v2.5.0/contracts/token/ERC20/ERC20.sol\":2605:2612  spender */\n      dup5\n        /* \"https://github.com/OpenZeppelin/openzeppelin-contracts/blob/v2.5.0/contracts/token/ERC20/ERC20.sol\":2614:2620  amount */\n      dup5\n        /* \"https://github.com/OpenZeppelin/openzeppelin-contracts/blob/v2.5.0/contracts/token/ERC20/ERC20.sol\":2582:2590  _approve */\n      tag_140\n        /* \"https://github.com/OpenZeppelin/openzeppelin-contracts/blob/v2.5.0/contracts/token/ERC20/ERC20.sol\":2582:2621  _approve(_msgSender(), spender, amount) */\n      jump\t// in\n    tag_137:\n        /* \"https://github.com/OpenZeppelin/openzeppelin-contracts/blob/v2.5.0/contracts/token/ERC20/ERC20.sol\":2638:2642  true */\n      0x01\n        /* \"https://github.com/OpenZeppelin/openzeppelin-contracts/blob/v2.5.0/contracts/token/ERC20/ERC20.sol\":2631:2642  return true */\n      swap1\n      pop\n        /* \"https://github.com/OpenZeppelin/openzeppelin-contracts/blob/v2.5.0/contracts/token/ERC20/ERC20.sol\":2500:2649  function approve(address spender, uint256 amount) public returns (bool) {... */\n      swap3\n      swap2\n      pop\n      pop\n      jump\t// out\n        /* \"https://github.com/OpenZeppelin/openzeppelin-contracts/blob/v2.5.0/contracts/token/ERC20/ERC20.sol\":1559:1648  function totalSupply() public view returns (uint256) {... */\n    tag_51:\n        /* \"https://github.com/OpenZeppelin/openzeppelin-contracts/blob/v2.5.0/contracts/token/ERC20/ERC20.sol\":1603:1610  uint256 */\n      0x00\n        /* \"https://github.com/OpenZeppelin/openzeppelin-contracts/blob/v2.5.0/contracts/token/ERC20/ERC20.sol\":1629:1641  _totalSupply */\n      sload(0x02)\n        /* \"https://github.com/OpenZeppelin/openzeppelin-contracts/blob/v2.5.0/contracts/token/ERC20/ERC20.sol\":1622:1641  return _totalSupply */\n      swap1\n      pop\n        /* \"https://github.com/OpenZeppelin/openzeppelin-contracts/blob/v2.5.0/contracts/token/ERC20/ERC20.sol\":1559:1648  function totalSupply() public view returns (uint256) {... */\n      swap1\n      jump\t// out\n        /* \"https://github.com/OpenZeppelin/openzeppelin-contracts/blob/v2.5.0/contracts/token/ERC20/ERC20.sol\":3107:3407  function transferFrom(address sender, address recipient, uint256 amount) public returns (bool) {... */\n    tag_55:\n        /* \"https://github.com/OpenZeppelin/openzeppelin-contracts/blob/v2.5.0/contracts/token/ERC20/ERC20.sol\":3196:3200  bool */\n      0x00\n        /* \"https://github.com/OpenZeppelin/openzeppelin-contracts/blob/v2.5.0/contracts/token/ERC20/ERC20.sol\":3212:3248  _transfer(sender, recipient, amount) */\n      tag_143\n        /* \"https://github.com/OpenZeppelin/openzeppelin-contracts/blob/v2.5.0/contracts/token/ERC20/ERC20.sol\":3222:3228  sender */\n      dup5\n        /* \"https://github.com/OpenZeppelin/openzeppelin-contracts/blob/v2.5.0/contracts/token/ERC20/ERC20.sol\":3230:3239  recipient */\n      dup5\n        /* \"https://github.com/OpenZeppelin/openzeppelin-contracts/blob/v2.5.0/contracts/token/ERC20/ERC20.sol\":3241:3247  amount */\n      dup5\n        /* \"https://github.com/OpenZeppelin/openzeppelin-contracts/blob/v2.5.0/contracts/token/ERC20/ERC20.sol\":3212:3221  _transfer */\n      tag_144\n        /* \"https://github.com/OpenZeppelin/openzeppelin-contracts/blob/v2.5.0/contracts/token/ERC20/ERC20.sol\":3212:3248  _transfer(sender, recipient, amount) */\n      jump\t// in\n    tag_143:\n        /* \"https://github.com/OpenZeppelin/openzeppelin-contracts/blob/v2.5.0/contracts/token/ERC20/ERC20.sol\":3258:3379  _approve(sender, _msgSender(), _allowances[sender][_msgSender()].sub(amount, \"ERC20: transfer amount exceeds allowance\")) */\n      tag_145\n        /* \"https://github.com/OpenZeppelin/openzeppelin-contracts/blob/v2.5.0/contracts/token/ERC20/ERC20.sol\":3267:3273  sender */\n      dup5\n        /* \"https://github.com/OpenZeppelin/openzeppelin-contracts/blob/v2.5.0/contracts/token/ERC20/ERC20.sol\":3275:3287  _msgSender() */\n      tag_146\n        /* \"https://github.com/OpenZeppelin/openzeppelin-contracts/blob/v2.5.0/contracts/token/ERC20/ERC20.sol\":3275:3285  _msgSender */\n      tag_139\n        /* \"https://github.com/OpenZeppelin/openzeppelin-contracts/blob/v2.5.0/contracts/token/ERC20/ERC20.sol\":3275:3287  _msgSender() */\n      jump\t// in\n    tag_146:\n        /* \"https://github.com/OpenZeppelin/openzeppelin-contracts/blob/v2.5.0/contracts/token/ERC20/ERC20.sol\":3289:3378  _allowances[sender][_msgSender()].sub(amount, \"ERC20: transfer amount exceeds allowance\") */\n      tag_147\n        /* \"https://github.com/OpenZeppelin/openzeppelin-contracts/blob/v2.5.0/contracts/token/ERC20/ERC20.sol\":3327:3333  amount */\n      dup6\n        /* \"https://github.com/OpenZeppelin/openzeppelin-contracts/blob/v2.5.0/contracts/token/ERC20/ERC20.sol\":3289:3378  _allowances[sender][_msgSender()].sub(amount, \"ERC20: transfer amount exceeds allowance\") */\n      mload(0x40)\n      dup1\n      0x60\n      add\n      0x40\n      mstore\n      dup1\n      0x28\n      dup2\n      mstore\n      0x20\n      add\n      data_974d1b4421da69cc60b481194f0dad36a5bb4e23da810da7a7fb30cdba178330\n      0x28\n      swap2\n      codecopy\n        /* \"https://github.com/OpenZeppelin/openzeppelin-contracts/blob/v2.5.0/contracts/token/ERC20/ERC20.sol\":3289:3300  _allowances */\n      0x01\n        /* \"https://github.com/OpenZeppelin/openzeppelin-contracts/blob/v2.5.0/contracts/token/ERC20/ERC20.sol\":3289:3308  _allowances[sender] */\n      0x00\n        /* \"https://github.com/OpenZeppelin/openzeppelin-contracts/blob/v2.5.0/contracts/token/ERC20/ERC20.sol\":3301:3307  sender */\n      dup12\n        /* \"https://github.com/OpenZeppelin/openzeppelin-contracts/blob/v2.5.0/contracts/token/ERC20/ERC20.sol\":3289:3308  _allowances[sender] */\n      0xffffffffffffffffffffffffffffffffffffffff\n      and\n      0xffffffffffffffffffffffffffffffffffffffff\n      and\n      dup2\n      mstore\n      0x20\n      add\n      swap1\n      dup2\n      mstore\n      0x20\n      add\n      0x00\n      keccak256\n        /* \"https://github.com/OpenZeppelin/openzeppelin-contracts/blob/v2.5.0/contracts/token/ERC20/ERC20.sol\":3289:3322  _allowances[sender][_msgSender()] */\n      0x00\n        /* \"https://github.com/OpenZeppelin/openzeppelin-contracts/blob/v2.5.0/contracts/token/ERC20/ERC20.sol\":3309:3321  _msgSender() */\n      tag_148\n        /* \"https://github.com/OpenZeppelin/openzeppelin-contracts/blob/v2.5.0/contracts/token/ERC20/ERC20.sol\":3309:3319  _msgSender */\n      tag_139\n        /* \"https://github.com/OpenZeppelin/openzeppelin-contracts/blob/v2.5.0/contracts/token/ERC20/ERC20.sol\":3309:3321  _msgSender() */\n      jump\t// in\n    tag_148:\n        /* \"https://github.com/OpenZeppelin/openzeppelin-contracts/blob/v2.5.0/contracts/token/ERC20/ERC20.sol\":3289:3322  _allowances[sender][_msgSender()] */\n      0xffffffffffffffffffffffffffffffffffffffff\n      and\n      0xffffffffffffffffffffffffffffffffffffffff\n      and\n      dup2\n      mstore\n      0x20\n      add\n      swap1\n      dup2\n      mstore\n      0x20\n      add\n      0x00\n      keccak256\n      sload\n        /* \"https://github.com/OpenZeppelin/openzeppelin-contracts/blob/v2.5.0/contracts/token/ERC20/ERC20.sol\":3289:3326  _allowances[sender][_msgSender()].sub */\n      tag_149\n      swap1\n        /* \"https://github.com/OpenZeppelin/openzeppelin-contracts/blob/v2.5.0/contracts/token/ERC20/ERC20.sol\":3289:3378  _allowances[sender][_msgSender()].sub(amount, \"ERC20: transfer amount exceeds allowance\") */\n      swap3\n      swap2\n      swap1\n      0xffffffff\n      and\n      jump\t// in\n    tag_147:\n        /* \"https://github.com/OpenZeppelin/openzeppelin-contracts/blob/v2.5.0/contracts/token/ERC20/ERC20.sol\":3258:3266  _approve */\n      tag_140\n        /* \"https://github.com/OpenZeppelin/openzeppelin-contracts/blob/v2.5.0/contracts/token/ERC20/ERC20.sol\":3258:3379  _approve(sender, _msgSender(), _allowances[sender][_msgSender()].sub(amount, \"ERC20: transfer amount exceeds allowance\")) */\n      jump\t// in\n    tag_145:\n        /* \"https://github.com/OpenZeppelin/openzeppelin-contracts/blob/v2.5.0/contracts/token/ERC20/ERC20.sol\":3396:3400  true */\n      0x01\n        /* \"https://github.com/OpenZeppelin/openzeppelin-contracts/blob/v2.5.0/contracts/token/ERC20/ERC20.sol\":3389:3400  return true */\n      swap1\n      pop\n        /* \"https://github.com/OpenZeppelin/openzeppelin-contracts/blob/v2.5.0/contracts/token/ERC20/ERC20.sol\":3107:3407  function transferFrom(address sender, address recipient, uint256 amount) public returns (bool) {... */\n      swap4\n      swap3\n      pop\n      pop\n      pop\n      jump\t// out\n        /* \"https://github.com/OpenZeppelin/openzeppelin-contracts/blob/v2.5.0/contracts/token/ERC20/ERC20Detailed.sol\":1472:1553  function decimals() public view returns (uint8) {... */\n    tag_58:\n        /* \"https://github.com/OpenZeppelin/openzeppelin-contracts/blob/v2.5.0/contracts/token/ERC20/ERC20Detailed.sol\":1513:1518  uint8 */\n      0x00\n        /* \"https://github.com/OpenZeppelin/openzeppelin-contracts/blob/v2.5.0/contracts/token/ERC20/ERC20Detailed.sol\":1537:1546  _decimals */\n      0x05\n      0x00\n      swap1\n      sload\n      swap1\n      0x0100\n      exp\n      swap1\n      div\n      0xff\n      and\n        /* \"https://github.com/OpenZeppelin/openzeppelin-contracts/blob/v2.5.0/contracts/token/ERC20/ERC20Detailed.sol\":1530:1546  return _decimals */\n      swap1\n      pop\n        /* \"https://github.com/OpenZeppelin/openzeppelin-contracts/blob/v2.5.0/contracts/token/ERC20/ERC20Detailed.sol\":1472:1553  function decimals() public view returns (uint8) {... */\n      swap1\n      jump\t// out\n        /* \"RE_dApp/OwnershipToken.sol\":1412:1771  function purchaseTokens() public payable {... */\n    tag_60:\n        /* \"RE_dApp/OwnershipToken.sol\":1463:1481  uint256 tokenPrice */\n      0x00\n        /* \"RE_dApp/OwnershipToken.sol\":1484:1499  getTokenValue() */\n      tag_152\n        /* \"RE_dApp/OwnershipToken.sol\":1484:1497  getTokenValue */\n      tag_44\n        /* \"RE_dApp/OwnershipToken.sol\":1484:1499  getTokenValue() */\n      jump\t// in\n    tag_152:\n        /* \"RE_dApp/OwnershipToken.sol\":1463:1499  uint256 tokenPrice = getTokenValue() */\n      swap1\n      pop\n        /* \"RE_dApp/OwnershipToken.sol\":1509:1529  uint256 tokensToMint */\n      0x00\n        /* \"RE_dApp/OwnershipToken.sol\":1544:1554  tokenPrice */\n      dup2\n        /* \"RE_dApp/OwnershipToken.sol\":1532:1541  msg.value */\n      callvalue\n        /* \"RE_dApp/OwnershipToken.sol\":1532:1554  msg.value / tokenPrice */\n      dup2\n      iszero\n      iszero\n      tag_153\n      jumpi\n      invalid\n    tag_153:\n      div\n        /* \"RE_dApp/OwnershipToken.sol\":1509:1554  uint256 tokensToMint = msg.value / tokenPrice */\n      swap1\n      pop\n        /* \"RE_dApp/OwnershipToken.sol\":1587:1588  0 */\n      0x00\n        /* \"RE_dApp/OwnershipToken.sol\":1572:1584  tokensToMint */\n      dup2\n        /* \"RE_dApp/OwnershipToken.sol\":1572:1588  tokensToMint > 0 */\n      gt\n        /* \"RE_dApp/OwnershipToken.sol\":1564:1631  require(tokensToMint > 0, \"Not enough ETH sent to purchase tokens\") */\n      iszero\n      iszero\n      tag_154\n      jumpi\n      mload(0x40)\n      0x08c379a000000000000000000000000000000000000000000000000000000000\n      dup2\n      mstore\n      0x04\n      add\n      dup1\n      dup1\n      0x20\n      add\n      dup3\n      dup2\n      sub\n      dup3\n      mstore\n      0x26\n      dup2\n      mstore\n      0x20\n      add\n      dup1\n      data_2183296cf64ac3acf3a881b4acbaf8a2fa5fe478b9f569705d681f85553fcb86\n      0x26\n      swap2\n      codecopy\n      0x40\n      add\n      swap2\n      pop\n      pop\n      mload(0x40)\n      dup1\n      swap2\n      sub\n      swap1\n      revert\n    tag_154:\n        /* \"RE_dApp/OwnershipToken.sol\":1642:1673  _mint(msg.sender, tokensToMint) */\n      tag_155\n        /* \"RE_dApp/OwnershipToken.sol\":1648:1658  msg.sender */\n      caller\n        /* \"RE_dApp/OwnershipToken.sol\":1660:1672  tokensToMint */\n      dup3\n        /* \"RE_dApp/OwnershipToken.sol\":1642:1647  _mint */\n      tag_156\n        /* \"RE_dApp/OwnershipToken.sol\":1642:1673  _mint(msg.sender, tokensToMint) */\n      jump\t// in\n    tag_155:\n        /* \"RE_dApp/OwnershipToken.sol\":1716:1726  tokenPrice */\n      dup2\n        /* \"RE_dApp/OwnershipToken.sol\":1683:1701  initialTokenValues */\n      0x0a\n        /* \"RE_dApp/OwnershipToken.sol\":1683:1713  initialTokenValues[msg.sender] */\n      0x00\n        /* \"RE_dApp/OwnershipToken.sol\":1702:1712  msg.sender */\n      caller\n        /* \"RE_dApp/OwnershipToken.sol\":1683:1713  initialTokenValues[msg.sender] */\n      0xffffffffffffffffffffffffffffffffffffffff\n      and\n      0xffffffffffffffffffffffffffffffffffffffff\n      and\n      dup2\n      mstore\n      0x20\n      add\n      swap1\n      dup2\n      mstore\n      0x20\n      add\n      0x00\n      keccak256\n        /* \"RE_dApp/OwnershipToken.sol\":1683:1726  initialTokenValues[msg.sender] = tokenPrice */\n      dup2\n      swap1\n      sstore\n      pop\n        /* \"RE_dApp/OwnershipToken.sol\":1412:1771  function purchaseTokens() public payable {... */\n      pop\n      pop\n      jump\t// out\n        /* \"RE_dApp/OwnershipToken.sol\":2455:2583  function getInitialTokenValue(address account) public view returns (uint256) {... */\n    tag_64:\n        /* \"RE_dApp/OwnershipToken.sol\":2523:2530  uint256 */\n      0x00\n        /* \"RE_dApp/OwnershipToken.sol\":2549:2567  initialTokenValues */\n      0x0a\n        /* \"RE_dApp/OwnershipToken.sol\":2549:2576  initialTokenValues[account] */\n      0x00\n        /* \"RE_dApp/OwnershipToken.sol\":2568:2575  account */\n      dup4\n        /* \"RE_dApp/OwnershipToken.sol\":2549:2576  initialTokenValues[account] */\n      0xffffffffffffffffffffffffffffffffffffffff\n      and\n      0xffffffffffffffffffffffffffffffffffffffff\n      and\n      dup2\n      mstore\n      0x20\n      add\n      swap1\n      dup2\n      mstore\n      0x20\n      add\n      0x00\n      keccak256\n      sload\n        /* \"RE_dApp/OwnershipToken.sol\":2542:2576  return initialTokenValues[account] */\n      swap1\n      pop\n        /* \"RE_dApp/OwnershipToken.sol\":2455:2583  function getInitialTokenValue(address account) public view returns (uint256) {... */\n      swap2\n      swap1\n      pop\n      jump\t// out\n        /* \"https://github.com/OpenZeppelin/openzeppelin-contracts/blob/v2.5.0/contracts/token/ERC20/ERC20.sol\":3802:4009  function increaseAllowance(address spender, uint256 addedValue) public returns (bool) {... */\n    tag_68:\n        /* \"https://github.com/OpenZeppelin/openzeppelin-contracts/blob/v2.5.0/contracts/token/ERC20/ERC20.sol\":3882:3886  bool */\n      0x00\n        /* \"https://github.com/OpenZeppelin/openzeppelin-contracts/blob/v2.5.0/contracts/token/ERC20/ERC20.sol\":3898:3981  _approve(_msgSender(), spender, _allowances[_msgSender()][spender].add(addedValue)) */\n      tag_159\n        /* \"https://github.com/OpenZeppelin/openzeppelin-contracts/blob/v2.5.0/contracts/token/ERC20/ERC20.sol\":3907:3919  _msgSender() */\n      tag_160\n        /* \"https://github.com/OpenZeppelin/openzeppelin-contracts/blob/v2.5.0/contracts/token/ERC20/ERC20.sol\":3907:3917  _msgSender */\n      tag_139\n        /* \"https://github.com/OpenZeppelin/openzeppelin-contracts/blob/v2.5.0/contracts/token/ERC20/ERC20.sol\":3907:3919  _msgSender() */\n      jump\t// in\n    tag_160:\n        /* \"https://github.com/OpenZeppelin/openzeppelin-contracts/blob/v2.5.0/contracts/token/ERC20/ERC20.sol\":3921:3928  spender */\n      dup5\n        /* \"https://github.com/OpenZeppelin/openzeppelin-contracts/blob/v2.5.0/contracts/token/ERC20/ERC20.sol\":3930:3980  _allowances[_msgSender()][spender].add(addedValue) */\n      tag_161\n        /* \"https://github.com/OpenZeppelin/openzeppelin-contracts/blob/v2.5.0/contracts/token/ERC20/ERC20.sol\":3969:3979  addedValue */\n      dup6\n        /* \"https://github.com/OpenZeppelin/openzeppelin-contracts/blob/v2.5.0/contracts/token/ERC20/ERC20.sol\":3930:3941  _allowances */\n      0x01\n        /* \"https://github.com/OpenZeppelin/openzeppelin-contracts/blob/v2.5.0/contracts/token/ERC20/ERC20.sol\":3930:3955  _allowances[_msgSender()] */\n      0x00\n        /* \"https://github.com/OpenZeppelin/openzeppelin-contracts/blob/v2.5.0/contracts/token/ERC20/ERC20.sol\":3942:3954  _msgSender() */\n      tag_162\n        /* \"https://github.com/OpenZeppelin/openzeppelin-contracts/blob/v2.5.0/contracts/token/ERC20/ERC20.sol\":3942:3952  _msgSender */\n      tag_139\n        /* \"https://github.com/OpenZeppelin/openzeppelin-contracts/blob/v2.5.0/contracts/token/ERC20/ERC20.sol\":3942:3954  _msgSender() */\n      jump\t// in\n    tag_162:\n        /* \"https://github.com/OpenZeppelin/openzeppelin-contracts/blob/v2.5.0/contracts/token/ERC20/ERC20.sol\":3930:3955  _allowances[_msgSender()] */\n      0xffffffffffffffffffffffffffffffffffffffff\n      and\n      0xffffffffffffffffffffffffffffffffffffffff\n      and\n      dup2\n      mstore\n      0x20\n      add\n      swap1\n      dup2\n      mstore\n      0x20\n      add\n      0x00\n      keccak256\n        /* \"https://github.com/OpenZeppelin/openzeppelin-contracts/blob/v2.5.0/contracts/token/ERC20/ERC20.sol\":3930:3964  _allowances[_msgSender()][spender] */\n      0x00\n        /* \"https://github.com/OpenZeppelin/openzeppelin-contracts/blob/v2.5.0/contracts/token/ERC20/ERC20.sol\":3956:3963  spender */\n      dup10\n        /* \"https://github.com/OpenZeppelin/openzeppelin-contracts/blob/v2.5.0/contracts/token/ERC20/ERC20.sol\":3930:3964  _allowances[_msgSender()][spender] */\n      0xffffffffffffffffffffffffffffffffffffffff\n      and\n      0xffffffffffffffffffffffffffffffffffffffff\n      and\n      dup2\n      mstore\n      0x20\n      add\n      swap1\n      dup2\n      mstore\n      0x20\n      add\n      0x00\n      keccak256\n      sload\n        /* \"https://github.com/OpenZeppelin/openzeppelin-contracts/blob/v2.5.0/contracts/token/ERC20/ERC20.sol\":3930:3968  _allowances[_msgSender()][spender].add */\n      tag_163\n      swap1\n        /* \"https://github.com/OpenZeppelin/openzeppelin-contracts/blob/v2.5.0/contracts/token/ERC20/ERC20.sol\":3930:3980  _allowances[_msgSender()][spender].add(addedValue) */\n      swap2\n      swap1\n      0xffffffff\n      and\n      jump\t// in\n    tag_161:\n        /* \"https://github.com/OpenZeppelin/openzeppelin-contracts/blob/v2.5.0/contracts/token/ERC20/ERC20.sol\":3898:3906  _approve */\n      tag_140\n        /* \"https://github.com/OpenZeppelin/openzeppelin-contracts/blob/v2.5.0/contracts/token/ERC20/ERC20.sol\":3898:3981  _approve(_msgSender(), spender, _allowances[_msgSender()][spender].add(addedValue)) */\n      jump\t// in\n    tag_159:\n        /* \"https://github.com/OpenZeppelin/openzeppelin-contracts/blob/v2.5.0/contracts/token/ERC20/ERC20.sol\":3998:4002  true */\n      0x01\n        /* \"https://github.com/OpenZeppelin/openzeppelin-contracts/blob/v2.5.0/contracts/token/ERC20/ERC20.sol\":3991:4002  return true */\n      swap1\n      pop\n        /* \"https://github.com/OpenZeppelin/openzeppelin-contracts/blob/v2.5.0/contracts/token/ERC20/ERC20.sol\":3802:4009  function increaseAllowance(address spender, uint256 addedValue) public returns (bool) {... */\n      swap3\n      swap2\n      pop\n      pop\n      jump\t// out\n        /* \"https://github.com/OpenZeppelin/openzeppelin-contracts/blob/v2.5.0/contracts/token/ERC20/ERC20Mintable.sol\":502:642  function mint(address account, uint256 amount) public onlyMinter returns (bool) {... */\n    tag_72:\n        /* \"https://github.com/OpenZeppelin/openzeppelin-contracts/blob/v2.5.0/contracts/token/ERC20/ERC20Mintable.sol\":576:580  bool */\n      0x00\n        /* \"https://github.com/OpenZeppelin/openzeppelin-contracts/blob/v2.5.0/contracts/access/roles/MinterRole.sol\":395:417  isMinter(_msgSender()) */\n      tag_165\n        /* \"https://github.com/OpenZeppelin/openzeppelin-contracts/blob/v2.5.0/contracts/access/roles/MinterRole.sol\":404:416  _msgSender() */\n      tag_166\n        /* \"https://github.com/OpenZeppelin/openzeppelin-contracts/blob/v2.5.0/contracts/access/roles/MinterRole.sol\":404:414  _msgSender */\n      tag_139\n        /* \"https://github.com/OpenZeppelin/openzeppelin-contracts/blob/v2.5.0/contracts/access/roles/MinterRole.sol\":404:416  _msgSender() */\n      jump\t// in\n    tag_166:\n        /* \"https://github.com/OpenZeppelin/openzeppelin-contracts/blob/v2.5.0/contracts/access/roles/MinterRole.sol\":395:403  isMinter */\n      tag_114\n        /* \"https://github.com/OpenZeppelin/openzeppelin-contracts/blob/v2.5.0/contracts/access/roles/MinterRole.sol\":395:417  isMinter(_msgSender()) */\n      jump\t// in\n    tag_165:\n        /* \"https://github.com/OpenZeppelin/openzeppelin-contracts/blob/v2.5.0/contracts/access/roles/MinterRole.sol\":387:470  require(isMinter(_msgSender()), \"MinterRole: caller does not have the Minter role\") */\n      iszero\n      iszero\n      tag_167\n      jumpi\n      mload(0x40)\n      0x08c379a000000000000000000000000000000000000000000000000000000000\n      dup2\n      mstore\n      0x04\n      add\n      dup1\n      dup1\n      0x20\n      add\n      dup3\n      dup2\n      sub\n      dup3\n      mstore\n      0x30\n      dup2\n      mstore\n      0x20\n      add\n      dup1\n      data_79ecb50133735b20228dea9d08fe36a462bbc1350f591a146908848db91104cd\n      0x30\n      swap2\n      codecopy\n      0x40\n      add\n      swap2\n      pop\n      pop\n      mload(0x40)\n      dup1\n      swap2\n      sub\n      swap1\n      revert\n    tag_167:\n        /* \"https://github.com/OpenZeppelin/openzeppelin-contracts/blob/v2.5.0/contracts/token/ERC20/ERC20Mintable.sol\":592:614  _mint(account, amount) */\n      tag_169\n        /* \"https://github.com/OpenZeppelin/openzeppelin-contracts/blob/v2.5.0/contracts/token/ERC20/ERC20Mintable.sol\":598:605  account */\n      dup4\n        /* \"https://github.com/OpenZeppelin/openzeppelin-contracts/blob/v2.5.0/contracts/token/ERC20/ERC20Mintable.sol\":607:613  amount */\n      dup4\n        /* \"https://github.com/OpenZeppelin/openzeppelin-contracts/blob/v2.5.0/contracts/token/ERC20/ERC20Mintable.sol\":592:597  _mint */\n      tag_156\n        /* \"https://github.com/OpenZeppelin/openzeppelin-contracts/blob/v2.5.0/contracts/token/ERC20/ERC20Mintable.sol\":592:614  _mint(account, amount) */\n      jump\t// in\n    tag_169:\n        /* \"https://github.com/OpenZeppelin/openzeppelin-contracts/blob/v2.5.0/contracts/token/ERC20/ERC20Mintable.sol\":631:635  true */\n      0x01\n        /* \"https://github.com/OpenZeppelin/openzeppelin-contracts/blob/v2.5.0/contracts/token/ERC20/ERC20Mintable.sol\":624:635  return true */\n      swap1\n      pop\n        /* \"https://github.com/OpenZeppelin/openzeppelin-contracts/blob/v2.5.0/contracts/token/ERC20/ERC20Mintable.sol\":502:642  function mint(address account, uint256 amount) public onlyMinter returns (bool) {... */\n      swap3\n      swap2\n      pop\n      pop\n      jump\t// out\n        /* \"https://github.com/OpenZeppelin/openzeppelin-contracts/blob/v2.5.0/contracts/token/ERC20/ERC20.sol\":1706:1814  function balanceOf(address account) public view returns (uint256) {... */\n    tag_76:\n        /* \"https://github.com/OpenZeppelin/openzeppelin-contracts/blob/v2.5.0/contracts/token/ERC20/ERC20.sol\":1763:1770  uint256 */\n      0x00\n        /* \"https://github.com/OpenZeppelin/openzeppelin-contracts/blob/v2.5.0/contracts/token/ERC20/ERC20.sol\":1789:1798  _balances */\n      dup1\n        /* \"https://github.com/OpenZeppelin/openzeppelin-contracts/blob/v2.5.0/contracts/token/ERC20/ERC20.sol\":1789:1807  _balances[account] */\n      0x00\n        /* \"https://github.com/OpenZeppelin/openzeppelin-contracts/blob/v2.5.0/contracts/token/ERC20/ERC20.sol\":1799:1806  account */\n      dup4\n        /* \"https://github.com/OpenZeppelin/openzeppelin-contracts/blob/v2.5.0/contracts/token/ERC20/ERC20.sol\":1789:1807  _balances[account] */\n      0xffffffffffffffffffffffffffffffffffffffff\n      and\n      0xffffffffffffffffffffffffffffffffffffffff\n      and\n      dup2\n      mstore\n      0x20\n      add\n      swap1\n      dup2\n      mstore\n      0x20\n      add\n      0x00\n      keccak256\n      sload\n        /* \"https://github.com/OpenZeppelin/openzeppelin-contracts/blob/v2.5.0/contracts/token/ERC20/ERC20.sol\":1782:1807  return _balances[account] */\n      swap1\n      pop\n        /* \"https://github.com/OpenZeppelin/openzeppelin-contracts/blob/v2.5.0/contracts/token/ERC20/ERC20.sol\":1706:1814  function balanceOf(address account) public view returns (uint256) {... */\n      swap2\n      swap1\n      pop\n      jump\t// out\n        /* \"https://github.com/OpenZeppelin/openzeppelin-contracts/blob/v2.5.0/contracts/ownership/Ownable.sol\":1684:1821  function renounceOwnership() public onlyOwner {... */\n    tag_79:\n        /* \"https://github.com/OpenZeppelin/openzeppelin-contracts/blob/v2.5.0/contracts/ownership/Ownable.sol\":1103:1112  isOwner() */\n      tag_172\n        /* \"https://github.com/OpenZeppelin/openzeppelin-contracts/blob/v2.5.0/contracts/ownership/Ownable.sol\":1103:1110  isOwner */\n      tag_88\n        /* \"https://github.com/OpenZeppelin/openzeppelin-contracts/blob/v2.5.0/contracts/ownership/Ownable.sol\":1103:1112  isOwner() */\n      jump\t// in\n    tag_172:\n        /* \"https://github.com/OpenZeppelin/openzeppelin-contracts/blob/v2.5.0/contracts/ownership/Ownable.sol\":1095:1149  require(isOwner(), \"Ownable: caller is not the owner\") */\n      iszero\n      iszero\n      tag_173\n      jumpi\n      mload(0x40)\n      0x08c379a000000000000000000000000000000000000000000000000000000000\n      dup2\n      mstore\n      0x04\n      add\n      dup1\n      dup1\n      0x20\n      add\n      dup3\n      dup2\n      sub\n      dup3\n      mstore\n      0x20\n      dup2\n      mstore\n      0x20\n      add\n      dup1\n      0x4f776e61626c653a2063616c6c6572206973206e6f7420746865206f776e6572\n      dup2\n      mstore\n      pop\n      0x20\n      add\n      swap2\n      pop\n      pop\n      mload(0x40)\n      dup1\n      swap2\n      sub\n      swap1\n      revert\n    tag_173:\n        /* \"https://github.com/OpenZeppelin/openzeppelin-contracts/blob/v2.5.0/contracts/ownership/Ownable.sol\":1782:1783  0 */\n      0x00\n        /* \"https://github.com/OpenZeppelin/openzeppelin-contracts/blob/v2.5.0/contracts/ownership/Ownable.sol\":1745:1785  OwnershipTransferred(_owner, address(0)) */\n      0xffffffffffffffffffffffffffffffffffffffff\n      and\n        /* \"https://github.com/OpenZeppelin/openzeppelin-contracts/blob/v2.5.0/contracts/ownership/Ownable.sol\":1766:1772  _owner */\n      0x07\n      0x00\n      swap1\n      sload\n      swap1\n      0x0100\n      exp\n      swap1\n      div\n      0xffffffffffffffffffffffffffffffffffffffff\n      and\n        /* \"https://github.com/OpenZeppelin/openzeppelin-contracts/blob/v2.5.0/contracts/ownership/Ownable.sol\":1745:1785  OwnershipTransferred(_owner, address(0)) */\n      0xffffffffffffffffffffffffffffffffffffffff\n      and\n      0x8be0079c531659141344cd1fd0a4f28419497f9722a3daafe3b4186f6b6457e0\n      mload(0x40)\n      mload(0x40)\n      dup1\n      swap2\n      sub\n      swap1\n      log3\n        /* \"https://github.com/OpenZeppelin/openzeppelin-contracts/blob/v2.5.0/contracts/ownership/Ownable.sol\":1812:1813  0 */\n      0x00\n        /* \"https://github.com/OpenZeppelin/openzeppelin-contracts/blob/v2.5.0/contracts/ownership/Ownable.sol\":1795:1801  _owner */\n      0x07\n      0x00\n        /* \"https://github.com/OpenZeppelin/openzeppelin-contracts/blob/v2.5.0/contracts/ownership/Ownable.sol\":1795:1814  _owner = address(0) */\n      0x0100\n      exp\n      dup2\n      sload\n      dup2\n      0xffffffffffffffffffffffffffffffffffffffff\n      mul\n      not\n      and\n      swap1\n      dup4\n      0xffffffffffffffffffffffffffffffffffffffff\n      and\n      mul\n      or\n      swap1\n      sstore\n      pop\n        /* \"https://github.com/OpenZeppelin/openzeppelin-contracts/blob/v2.5.0/contracts/ownership/Ownable.sol\":1684:1821  function renounceOwnership() public onlyOwner {... */\n      jump\t// out\n        /* \"RE_dApp/OwnershipToken.sol\":629:664  uint256 public currentPropertyValue */\n    tag_82:\n      sload(0x09)\n      dup2\n      jump\t// out\n        /* \"https://github.com/OpenZeppelin/openzeppelin-contracts/blob/v2.5.0/contracts/ownership/Ownable.sol\":899:976  function owner() public view returns (address) {... */\n    tag_85:\n        /* \"https://github.com/OpenZeppelin/openzeppelin-contracts/blob/v2.5.0/contracts/ownership/Ownable.sol\":937:944  address */\n      0x00\n        /* \"https://github.com/OpenZeppelin/openzeppelin-contracts/blob/v2.5.0/contracts/ownership/Ownable.sol\":963:969  _owner */\n      0x07\n      0x00\n      swap1\n      sload\n      swap1\n      0x0100\n      exp\n      swap1\n      div\n      0xffffffffffffffffffffffffffffffffffffffff\n      and\n        /* \"https://github.com/OpenZeppelin/openzeppelin-contracts/blob/v2.5.0/contracts/ownership/Ownable.sol\":956:969  return _owner */\n      swap1\n      pop\n        /* \"https://github.com/OpenZeppelin/openzeppelin-contracts/blob/v2.5.0/contracts/ownership/Ownable.sol\":899:976  function owner() public view returns (address) {... */\n      swap1\n      jump\t// out\n        /* \"https://github.com/OpenZeppelin/openzeppelin-contracts/blob/v2.5.0/contracts/ownership/Ownable.sol\":1250:1342  function isOwner() public view returns (bool) {... */\n    tag_88:\n        /* \"https://github.com/OpenZeppelin/openzeppelin-contracts/blob/v2.5.0/contracts/ownership/Ownable.sol\":1290:1294  bool */\n      0x00\n        /* \"https://github.com/OpenZeppelin/openzeppelin-contracts/blob/v2.5.0/contracts/ownership/Ownable.sol\":1329:1335  _owner */\n      0x07\n      0x00\n      swap1\n      sload\n      swap1\n      0x0100\n      exp\n      swap1\n      div\n      0xffffffffffffffffffffffffffffffffffffffff\n      and\n        /* \"https://github.com/OpenZeppelin/openzeppelin-contracts/blob/v2.5.0/contracts/ownership/Ownable.sol\":1313:1335  _msgSender() == _owner */\n      0xffffffffffffffffffffffffffffffffffffffff\n      and\n        /* \"https://github.com/OpenZeppelin/openzeppelin-contracts/blob/v2.5.0/contracts/ownership/Ownable.sol\":1313:1325  _msgSender() */\n      tag_177\n        /* \"https://github.com/OpenZeppelin/openzeppelin-contracts/blob/v2.5.0/contracts/ownership/Ownable.sol\":1313:1323  _msgSender */\n      tag_139\n        /* \"https://github.com/OpenZeppelin/openzeppelin-contracts/blob/v2.5.0/contracts/ownership/Ownable.sol\":1313:1325  _msgSender() */\n      jump\t// in\n    tag_177:\n        /* \"https://github.com/OpenZeppelin/openzeppelin-contracts/blob/v2.5.0/contracts/ownership/Ownable.sol\":1313:1335  _msgSender() == _owner */\n      0xffffffffffffffffffffffffffffffffffffffff\n      and\n      eq\n        /* \"https://github.com/OpenZeppelin/openzeppelin-contracts/blob/v2.5.0/contracts/ownership/Ownable.sol\":1306:1335  return _msgSender() == _owner */\n      swap1\n      pop\n        /* \"https://github.com/OpenZeppelin/openzeppelin-contracts/blob/v2.5.0/contracts/ownership/Ownable.sol\":1250:1342  function isOwner() public view returns (bool) {... */\n      swap1\n      jump\t// out\n        /* \"https://github.com/OpenZeppelin/openzeppelin-contracts/blob/v2.5.0/contracts/token/ERC20/ERC20Detailed.sol\":838:923  function symbol() public view returns (string memory) {... */\n    tag_91:\n        /* \"https://github.com/OpenZeppelin/openzeppelin-contracts/blob/v2.5.0/contracts/token/ERC20/ERC20Detailed.sol\":877:890  string memory */\n      0x60\n        /* \"https://github.com/OpenZeppelin/openzeppelin-contracts/blob/v2.5.0/contracts/token/ERC20/ERC20Detailed.sol\":909:916  _symbol */\n      0x04\n        /* \"https://github.com/OpenZeppelin/openzeppelin-contracts/blob/v2.5.0/contracts/token/ERC20/ERC20Detailed.sol\":902:916  return _symbol */\n      dup1\n      sload\n      0x01\n      dup2\n      0x01\n      and\n      iszero\n      0x0100\n      mul\n      sub\n      and\n      0x02\n      swap1\n      div\n      dup1\n      0x1f\n      add\n      0x20\n      dup1\n      swap2\n      div\n      mul\n      0x20\n      add\n      mload(0x40)\n      swap1\n      dup2\n      add\n      0x40\n      mstore\n      dup1\n      swap3\n      swap2\n      swap1\n      dup2\n      dup2\n      mstore\n      0x20\n      add\n      dup3\n      dup1\n      sload\n      0x01\n      dup2\n      0x01\n      and\n      iszero\n      0x0100\n      mul\n      sub\n      and\n      0x02\n      swap1\n      div\n      dup1\n      iszero\n      tag_179\n      jumpi\n      dup1\n      0x1f\n      lt\n      tag_180\n      jumpi\n      0x0100\n      dup1\n      dup4\n      sload\n      div\n      mul\n      dup4\n      mstore\n      swap2\n      0x20\n      add\n      swap2\n      jump(tag_179)\n    tag_180:\n      dup3\n      add\n      swap2\n      swap1\n      0x00\n      mstore\n      keccak256(0x00, 0x20)\n      swap1\n    tag_181:\n      dup2\n      sload\n      dup2\n      mstore\n      swap1\n      0x01\n      add\n      swap1\n      0x20\n      add\n      dup1\n      dup4\n      gt\n      tag_181\n      jumpi\n      dup3\n      swap1\n      sub\n      0x1f\n      and\n      dup3\n      add\n      swap2\n    tag_179:\n      pop\n      pop\n      pop\n      pop\n      pop\n      swap1\n      pop\n        /* \"https://github.com/OpenZeppelin/openzeppelin-contracts/blob/v2.5.0/contracts/token/ERC20/ERC20Detailed.sol\":838:923  function symbol() public view returns (string memory) {... */\n      swap1\n      jump\t// out\n        /* \"https://github.com/OpenZeppelin/openzeppelin-contracts/blob/v2.5.0/contracts/access/roles/MinterRole.sol\":607:697  function addMinter(address account) public onlyMinter {... */\n    tag_99:\n        /* \"https://github.com/OpenZeppelin/openzeppelin-contracts/blob/v2.5.0/contracts/access/roles/MinterRole.sol\":395:417  isMinter(_msgSender()) */\n      tag_183\n        /* \"https://github.com/OpenZeppelin/openzeppelin-contracts/blob/v2.5.0/contracts/access/roles/MinterRole.sol\":404:416  _msgSender() */\n      tag_184\n        /* \"https://github.com/OpenZeppelin/openzeppelin-contracts/blob/v2.5.0/contracts/access/roles/MinterRole.sol\":404:414  _msgSender */\n      tag_139\n        /* \"https://github.com/OpenZeppelin/openzeppelin-contracts/blob/v2.5.0/contracts/access/roles/MinterRole.sol\":404:416  _msgSender() */\n      jump\t// in\n    tag_184:\n        /* \"https://github.com/OpenZeppelin/openzeppelin-contracts/blob/v2.5.0/contracts/access/roles/MinterRole.sol\":395:403  isMinter */\n      tag_114\n        /* \"https://github.com/OpenZeppelin/openzeppelin-contracts/blob/v2.5.0/contracts/access/roles/MinterRole.sol\":395:417  isMinter(_msgSender()) */\n      jump\t// in\n    tag_183:\n        /* \"https://github.com/OpenZeppelin/openzeppelin-contracts/blob/v2.5.0/contracts/access/roles/MinterRole.sol\":387:470  require(isMinter(_msgSender()), \"MinterRole: caller does not have the Minter role\") */\n      iszero\n      iszero\n      tag_185\n      jumpi\n      mload(0x40)\n      0x08c379a000000000000000000000000000000000000000000000000000000000\n      dup2\n      mstore\n      0x04\n      add\n      dup1\n      dup1\n      0x20\n      add\n      dup3\n      dup2\n      sub\n      dup3\n      mstore\n      0x30\n      dup2\n      mstore\n      0x20\n      add\n      dup1\n      data_79ecb50133735b20228dea9d08fe36a462bbc1350f591a146908848db91104cd\n      0x30\n      swap2\n      codecopy\n      0x40\n      add\n      swap2\n      pop\n      pop\n      mload(0x40)\n      dup1\n      swap2\n      sub\n      swap1\n      revert\n    tag_185:\n        /* \"https://github.com/OpenZeppelin/openzeppelin-contracts/blob/v2.5.0/contracts/access/roles/MinterRole.sol\":671:690  _addMinter(account) */\n      tag_187\n        /* \"https://github.com/OpenZeppelin/openzeppelin-contracts/blob/v2.5.0/contracts/access/roles/MinterRole.sol\":682:689  account */\n      dup2\n        /* \"https://github.com/OpenZeppelin/openzeppelin-contracts/blob/v2.5.0/contracts/access/roles/MinterRole.sol\":671:681  _addMinter */\n      tag_188\n        /* \"https://github.com/OpenZeppelin/openzeppelin-contracts/blob/v2.5.0/contracts/access/roles/MinterRole.sol\":671:690  _addMinter(account) */\n      jump\t// in\n    tag_187:\n        /* \"https://github.com/OpenZeppelin/openzeppelin-contracts/blob/v2.5.0/contracts/access/roles/MinterRole.sol\":607:697  function addMinter(address account) public onlyMinter {... */\n      pop\n      jump\t// out\n        /* \"https://github.com/OpenZeppelin/openzeppelin-contracts/blob/v2.5.0/contracts/access/roles/MinterRole.sol\":703:780  function renounceMinter() public {... */\n    tag_102:\n        /* \"https://github.com/OpenZeppelin/openzeppelin-contracts/blob/v2.5.0/contracts/access/roles/MinterRole.sol\":746:773  _removeMinter(_msgSender()) */\n      tag_190\n        /* \"https://github.com/OpenZeppelin/openzeppelin-contracts/blob/v2.5.0/contracts/access/roles/MinterRole.sol\":760:772  _msgSender() */\n      tag_191\n        /* \"https://github.com/OpenZeppelin/openzeppelin-contracts/blob/v2.5.0/contracts/access/roles/MinterRole.sol\":760:770  _msgSender */\n      tag_139\n        /* \"https://github.com/OpenZeppelin/openzeppelin-contracts/blob/v2.5.0/contracts/access/roles/MinterRole.sol\":760:772  _msgSender() */\n      jump\t// in\n    tag_191:\n        /* \"https://github.com/OpenZeppelin/openzeppelin-contracts/blob/v2.5.0/contracts/access/roles/MinterRole.sol\":746:759  _removeMinter */\n      tag_192\n        /* \"https://github.com/OpenZeppelin/openzeppelin-contracts/blob/v2.5.0/contracts/access/roles/MinterRole.sol\":746:773  _removeMinter(_msgSender()) */\n      jump\t// in\n    tag_190:\n        /* \"https://github.com/OpenZeppelin/openzeppelin-contracts/blob/v2.5.0/contracts/access/roles/MinterRole.sol\":703:780  function renounceMinter() public {... */\n      jump\t// out\n        /* \"https://github.com/OpenZeppelin/openzeppelin-contracts/blob/v2.5.0/contracts/token/ERC20/ERC20.sol\":4496:4754  function decreaseAllowance(address spender, uint256 subtractedValue) public returns (bool) {... */\n    tag_106:\n        /* \"https://github.com/OpenZeppelin/openzeppelin-contracts/blob/v2.5.0/contracts/token/ERC20/ERC20.sol\":4581:4585  bool */\n      0x00\n        /* \"https://github.com/OpenZeppelin/openzeppelin-contracts/blob/v2.5.0/contracts/token/ERC20/ERC20.sol\":4597:4726  _approve(_msgSender(), spender, _allowances[_msgSender()][spender].sub(subtractedValue, \"ERC20: decreased allowance below zero\")) */\n      tag_194\n        /* \"https://github.com/OpenZeppelin/openzeppelin-contracts/blob/v2.5.0/contracts/token/ERC20/ERC20.sol\":4606:4618  _msgSender() */\n      tag_195\n        /* \"https://github.com/OpenZeppelin/openzeppelin-contracts/blob/v2.5.0/contracts/token/ERC20/ERC20.sol\":4606:4616  _msgSender */\n      tag_139\n        /* \"https://github.com/OpenZeppelin/openzeppelin-contracts/blob/v2.5.0/contracts/token/ERC20/ERC20.sol\":4606:4618  _msgSender() */\n      jump\t// in\n    tag_195:\n        /* \"https://github.com/OpenZeppelin/openzeppelin-contracts/blob/v2.5.0/contracts/token/ERC20/ERC20.sol\":4620:4627  spender */\n      dup5\n        /* \"https://github.com/OpenZeppelin/openzeppelin-contracts/blob/v2.5.0/contracts/token/ERC20/ERC20.sol\":4629:4725  _allowances[_msgSender()][spender].sub(subtractedValue, \"ERC20: decreased allowance below zero\") */\n      tag_196\n        /* \"https://github.com/OpenZeppelin/openzeppelin-contracts/blob/v2.5.0/contracts/token/ERC20/ERC20.sol\":4668:4683  subtractedValue */\n      dup6\n        /* \"https://github.com/OpenZeppelin/openzeppelin-contracts/blob/v2.5.0/contracts/token/ERC20/ERC20.sol\":4629:4725  _allowances[_msgSender()][spender].sub(subtractedValue, \"ERC20: decreased allowance below zero\") */\n      mload(0x40)\n      dup1\n      0x60\n      add\n      0x40\n      mstore\n      dup1\n      0x25\n      dup2\n      mstore\n      0x20\n      add\n      data_f8b476f7d28209d77d4a4ac1fe36b9f8259aa1bb6bddfa6e89de7e51615cf8a8\n      0x25\n      swap2\n      codecopy\n        /* \"https://github.com/OpenZeppelin/openzeppelin-contracts/blob/v2.5.0/contracts/token/ERC20/ERC20.sol\":4629:4640  _allowances */\n      0x01\n        /* \"https://github.com/OpenZeppelin/openzeppelin-contracts/blob/v2.5.0/contracts/token/ERC20/ERC20.sol\":4629:4654  _allowances[_msgSender()] */\n      0x00\n        /* \"https://github.com/OpenZeppelin/openzeppelin-contracts/blob/v2.5.0/contracts/token/ERC20/ERC20.sol\":4641:4653  _msgSender() */\n      tag_197\n        /* \"https://github.com/OpenZeppelin/openzeppelin-contracts/blob/v2.5.0/contracts/token/ERC20/ERC20.sol\":4641:4651  _msgSender */\n      tag_139\n        /* \"https://github.com/OpenZeppelin/openzeppelin-contracts/blob/v2.5.0/contracts/token/ERC20/ERC20.sol\":4641:4653  _msgSender() */\n      jump\t// in\n    tag_197:\n        /* \"https://github.com/OpenZeppelin/openzeppelin-contracts/blob/v2.5.0/contracts/token/ERC20/ERC20.sol\":4629:4654  _allowances[_msgSender()] */\n      0xffffffffffffffffffffffffffffffffffffffff\n      and\n      0xffffffffffffffffffffffffffffffffffffffff\n      and\n      dup2\n      mstore\n      0x20\n      add\n      swap1\n      dup2\n      mstore\n      0x20\n      add\n      0x00\n      keccak256\n        /* \"https://github.com/OpenZeppelin/openzeppelin-contracts/blob/v2.5.0/contracts/token/ERC20/ERC20.sol\":4629:4663  _allowances[_msgSender()][spender] */\n      0x00\n        /* \"https://github.com/OpenZeppelin/openzeppelin-contracts/blob/v2.5.0/contracts/token/ERC20/ERC20.sol\":4655:4662  spender */\n      dup11\n        /* \"https://github.com/OpenZeppelin/openzeppelin-contracts/blob/v2.5.0/contracts/token/ERC20/ERC20.sol\":4629:4663  _allowances[_msgSender()][spender] */\n      0xffffffffffffffffffffffffffffffffffffffff\n      and\n      0xffffffffffffffffffffffffffffffffffffffff\n      and\n      dup2\n      mstore\n      0x20\n      add\n      swap1\n      dup2\n      mstore\n      0x20\n      add\n      0x00\n      keccak256\n      sload\n        /* \"https://github.com/OpenZeppelin/openzeppelin-contracts/blob/v2.5.0/contracts/token/ERC20/ERC20.sol\":4629:4667  _allowances[_msgSender()][spender].sub */\n      tag_149\n      swap1\n        /* \"https://github.com/OpenZeppelin/openzeppelin-contracts/blob/v2.5.0/contracts/token/ERC20/ERC20.sol\":4629:4725  _allowances[_msgSender()][spender].sub(subtractedValue, \"ERC20: decreased allowance below zero\") */\n      swap3\n      swap2\n      swap1\n      0xffffffff\n      and\n      jump\t// in\n    tag_196:\n        /* \"https://github.com/OpenZeppelin/openzeppelin-contracts/blob/v2.5.0/contracts/token/ERC20/ERC20.sol\":4597:4605  _approve */\n      tag_140\n        /* \"https://github.com/OpenZeppelin/openzeppelin-contracts/blob/v2.5.0/contracts/token/ERC20/ERC20.sol\":4597:4726  _approve(_msgSender(), spender, _allowances[_msgSender()][spender].sub(subtractedValue, \"ERC20: decreased allowance below zero\")) */\n      jump\t// in\n    tag_194:\n        /* \"https://github.com/OpenZeppelin/openzeppelin-contracts/blob/v2.5.0/contracts/token/ERC20/ERC20.sol\":4743:4747  true */\n      0x01\n        /* \"https://github.com/OpenZeppelin/openzeppelin-contracts/blob/v2.5.0/contracts/token/ERC20/ERC20.sol\":4736:4747  return true */\n      swap1\n      pop\n        /* \"https://github.com/OpenZeppelin/openzeppelin-contracts/blob/v2.5.0/contracts/token/ERC20/ERC20.sol\":4496:4754  function decreaseAllowance(address spender, uint256 subtractedValue) public returns (bool) {... */\n      swap3\n      swap2\n      pop\n      pop\n      jump\t// out\n        /* \"RE_dApp/OwnershipToken.sol\":1840:2449  function transfer(address recipient, uint256 amount) public returns (bool) {... */\n    tag_110:\n        /* \"RE_dApp/OwnershipToken.sol\":1909:1913  bool */\n      0x00\n        /* \"RE_dApp/OwnershipToken.sol\":1946:1956  msg.sender */\n      caller\n        /* \"RE_dApp/OwnershipToken.sol\":1933:1956  recipient != msg.sender */\n      0xffffffffffffffffffffffffffffffffffffffff\n      and\n        /* \"RE_dApp/OwnershipToken.sol\":1933:1942  recipient */\n      dup4\n        /* \"RE_dApp/OwnershipToken.sol\":1933:1956  recipient != msg.sender */\n      0xffffffffffffffffffffffffffffffffffffffff\n      and\n      eq\n      iszero\n        /* \"RE_dApp/OwnershipToken.sol\":1925:2005  require(recipient != msg.sender, \"Sender cannot transfer tokens to themselves.\") */\n      iszero\n      iszero\n      tag_199\n      jumpi\n      mload(0x40)\n      0x08c379a000000000000000000000000000000000000000000000000000000000\n      dup2\n      mstore\n      0x04\n      add\n      dup1\n      dup1\n      0x20\n      add\n      dup3\n      dup2\n      sub\n      dup3\n      mstore\n      0x2c\n      dup2\n      mstore\n      0x20\n      add\n      dup1\n      data_e8585dec71adeaa9a1c0b9f087b67e38c4a931b5614c2b01fd1eddaa20f21450\n      0x2c\n      swap2\n      codecopy\n      0x40\n      add\n      swap2\n      pop\n      pop\n      mload(0x40)\n      dup1\n      swap2\n      sub\n      swap1\n      revert\n    tag_199:\n        /* \"RE_dApp/OwnershipToken.sol\":2032:2033  0 */\n      0x00\n        /* \"RE_dApp/OwnershipToken.sol\":2023:2029  amount */\n      dup3\n        /* \"RE_dApp/OwnershipToken.sol\":2023:2033  amount > 0 */\n      gt\n        /* \"RE_dApp/OwnershipToken.sol\":2015:2077  require(amount > 0, \"Transfer amount must be greater than 0.\") */\n      iszero\n      iszero\n      tag_200\n      jumpi\n      mload(0x40)\n      0x08c379a000000000000000000000000000000000000000000000000000000000\n      dup2\n      mstore\n      0x04\n      add\n      dup1\n      dup1\n      0x20\n      add\n      dup3\n      dup2\n      sub\n      dup3\n      mstore\n      0x27\n      dup2\n      mstore\n      0x20\n      add\n      dup1\n      data_5f79ae6cdcc31a95043767d5021f02d46552c2ffa16545542a25adc58021da9f\n      0x27\n      swap2\n      codecopy\n      0x40\n      add\n      swap2\n      pop\n      pop\n      mload(0x40)\n      dup1\n      swap2\n      sub\n      swap1\n      revert\n    tag_200:\n        /* \"RE_dApp/OwnershipToken.sol\":2120:2126  amount */\n      dup2\n        /* \"RE_dApp/OwnershipToken.sol\":2095:2116  balanceOf(msg.sender) */\n      tag_201\n        /* \"RE_dApp/OwnershipToken.sol\":2105:2115  msg.sender */\n      caller\n        /* \"RE_dApp/OwnershipToken.sol\":2095:2104  balanceOf */\n      tag_76\n        /* \"RE_dApp/OwnershipToken.sol\":2095:2116  balanceOf(msg.sender) */\n      jump\t// in\n    tag_201:\n        /* \"RE_dApp/OwnershipToken.sol\":2095:2126  balanceOf(msg.sender) >= amount */\n      lt\n      iszero\n        /* \"RE_dApp/OwnershipToken.sol\":2087:2178  require(balanceOf(msg.sender) >= amount, \"Sender does not have enough tokens to transfer.\") */\n      iszero\n      iszero\n      tag_202\n      jumpi\n      mload(0x40)\n      0x08c379a000000000000000000000000000000000000000000000000000000000\n      dup2\n      mstore\n      0x04\n      add\n      dup1\n      dup1\n      0x20\n      add\n      dup3\n      dup2\n      sub\n      dup3\n      mstore\n      0x2f\n      dup2\n      mstore\n      0x20\n      add\n      dup1\n      data_ea22d25b0d6ba9626551ef6a7cf4df9a691a3365c54334b320952b4c1a2b7115\n      0x2f\n      swap2\n      codecopy\n      0x40\n      add\n      swap2\n      pop\n      pop\n      mload(0x40)\n      dup1\n      swap2\n      sub\n      swap1\n      revert\n    tag_202:\n        /* \"RE_dApp/OwnershipToken.sol\":2189:2229  _transfer(msg.sender, recipient, amount) */\n      tag_203\n        /* \"RE_dApp/OwnershipToken.sol\":2199:2209  msg.sender */\n      caller\n        /* \"RE_dApp/OwnershipToken.sol\":2211:2220  recipient */\n      dup5\n        /* \"RE_dApp/OwnershipToken.sol\":2222:2228  amount */\n      dup5\n        /* \"RE_dApp/OwnershipToken.sol\":2189:2198  _transfer */\n      tag_144\n        /* \"RE_dApp/OwnershipToken.sol\":2189:2229  _transfer(msg.sender, recipient, amount) */\n      jump\t// in\n    tag_203:\n        /* \"RE_dApp/OwnershipToken.sol\":2271:2289  initialTokenValues */\n      0x0a\n        /* \"RE_dApp/OwnershipToken.sol\":2271:2301  initialTokenValues[msg.sender] */\n      0x00\n        /* \"RE_dApp/OwnershipToken.sol\":2290:2300  msg.sender */\n      caller\n        /* \"RE_dApp/OwnershipToken.sol\":2271:2301  initialTokenValues[msg.sender] */\n      0xffffffffffffffffffffffffffffffffffffffff\n      and\n      0xffffffffffffffffffffffffffffffffffffffff\n      and\n      dup2\n      mstore\n      0x20\n      add\n      swap1\n      dup2\n      mstore\n      0x20\n      add\n      0x00\n      keccak256\n      sload\n        /* \"RE_dApp/OwnershipToken.sol\":2239:2257  initialTokenValues */\n      0x0a\n        /* \"RE_dApp/OwnershipToken.sol\":2239:2268  initialTokenValues[recipient] */\n      0x00\n        /* \"RE_dApp/OwnershipToken.sol\":2258:2267  recipient */\n      dup6\n        /* \"RE_dApp/OwnershipToken.sol\":2239:2268  initialTokenValues[recipient] */\n      0xffffffffffffffffffffffffffffffffffffffff\n      and\n      0xffffffffffffffffffffffffffffffffffffffff\n      and\n      dup2\n      mstore\n      0x20\n      add\n      swap1\n      dup2\n      mstore\n      0x20\n      add\n      0x00\n      keccak256\n        /* \"RE_dApp/OwnershipToken.sol\":2239:2301  initialTokenValues[recipient] = initialTokenValues[msg.sender] */\n      dup2\n      swap1\n      sstore\n      pop\n        /* \"RE_dApp/OwnershipToken.sol\":2380:2389  recipient */\n      dup3\n        /* \"RE_dApp/OwnershipToken.sol\":2359:2398  Transfer(msg.sender, recipient, amount) */\n      0xffffffffffffffffffffffffffffffffffffffff\n      and\n        /* \"RE_dApp/OwnershipToken.sol\":2368:2378  msg.sender */\n      caller\n        /* \"RE_dApp/OwnershipToken.sol\":2359:2398  Transfer(msg.sender, recipient, amount) */\n      0xffffffffffffffffffffffffffffffffffffffff\n      and\n      0xddf252ad1be2c89b69c2b068fc378daa952ba7f163c4a11628f55a4df523b3ef\n        /* \"RE_dApp/OwnershipToken.sol\":2391:2397  amount */\n      dup5\n        /* \"RE_dApp/OwnershipToken.sol\":2359:2398  Transfer(msg.sender, recipient, amount) */\n      mload(0x40)\n      dup1\n      dup3\n      dup2\n      mstore\n      0x20\n      add\n      swap2\n      pop\n      pop\n      mload(0x40)\n      dup1\n      swap2\n      sub\n      swap1\n      log3\n        /* \"RE_dApp/OwnershipToken.sol\":2438:2442  true */\n      0x01\n        /* \"RE_dApp/OwnershipToken.sol\":2431:2442  return true */\n      swap1\n      pop\n        /* \"RE_dApp/OwnershipToken.sol\":1840:2449  function transfer(address recipient, uint256 amount) public returns (bool) {... */\n      swap3\n      swap2\n      pop\n      pop\n      jump\t// out\n        /* \"https://github.com/OpenZeppelin/openzeppelin-contracts/blob/v2.5.0/contracts/access/roles/MinterRole.sol\":494:601  function isMinter(address account) public view returns (bool) {... */\n    tag_114:\n        /* \"https://github.com/OpenZeppelin/openzeppelin-contracts/blob/v2.5.0/contracts/access/roles/MinterRole.sol\":550:554  bool */\n      0x00\n        /* \"https://github.com/OpenZeppelin/openzeppelin-contracts/blob/v2.5.0/contracts/access/roles/MinterRole.sol\":573:594  _minters.has(account) */\n      tag_205\n        /* \"https://github.com/OpenZeppelin/openzeppelin-contracts/blob/v2.5.0/contracts/access/roles/MinterRole.sol\":586:593  account */\n      dup3\n        /* \"https://github.com/OpenZeppelin/openzeppelin-contracts/blob/v2.5.0/contracts/access/roles/MinterRole.sol\":573:581  _minters */\n      0x06\n        /* \"https://github.com/OpenZeppelin/openzeppelin-contracts/blob/v2.5.0/contracts/access/roles/MinterRole.sol\":573:585  _minters.has */\n      tag_206\n      swap1\n        /* \"https://github.com/OpenZeppelin/openzeppelin-contracts/blob/v2.5.0/contracts/access/roles/MinterRole.sol\":573:594  _minters.has(account) */\n      swap2\n      swap1\n      0xffffffff\n      and\n      jump\t// in\n    tag_205:\n        /* \"https://github.com/OpenZeppelin/openzeppelin-contracts/blob/v2.5.0/contracts/access/roles/MinterRole.sol\":566:594  return _minters.has(account) */\n      swap1\n      pop\n        /* \"https://github.com/OpenZeppelin/openzeppelin-contracts/blob/v2.5.0/contracts/access/roles/MinterRole.sol\":494:601  function isMinter(address account) public view returns (bool) {... */\n      swap2\n      swap1\n      pop\n      jump\t// out\n        /* \"https://github.com/OpenZeppelin/openzeppelin-contracts/blob/v2.5.0/contracts/token/ERC20/ERC20.sol\":2230:2362  function allowance(address owner, address spender) public view returns (uint256) {... */\n    tag_118:\n        /* \"https://github.com/OpenZeppelin/openzeppelin-contracts/blob/v2.5.0/contracts/token/ERC20/ERC20.sol\":2302:2309  uint256 */\n      0x00\n        /* \"https://github.com/OpenZeppelin/openzeppelin-contracts/blob/v2.5.0/contracts/token/ERC20/ERC20.sol\":2328:2339  _allowances */\n      0x01\n        /* \"https://github.com/OpenZeppelin/openzeppelin-contracts/blob/v2.5.0/contracts/token/ERC20/ERC20.sol\":2328:2346  _allowances[owner] */\n      0x00\n        /* \"https://github.com/OpenZeppelin/openzeppelin-contracts/blob/v2.5.0/contracts/token/ERC20/ERC20.sol\":2340:2345  owner */\n      dup5\n        /* \"https://github.com/OpenZeppelin/openzeppelin-contracts/blob/v2.5.0/contracts/token/ERC20/ERC20.sol\":2328:2346  _allowances[owner] */\n      0xffffffffffffffffffffffffffffffffffffffff\n      and\n      0xffffffffffffffffffffffffffffffffffffffff\n      and\n      dup2\n      mstore\n      0x20\n      add\n      swap1\n      dup2\n      mstore\n      0x20\n      add\n      0x00\n      keccak256\n        /* \"https://github.com/OpenZeppelin/openzeppelin-contracts/blob/v2.5.0/contracts/token/ERC20/ERC20.sol\":2328:2355  _allowances[owner][spender] */\n      0x00\n        /* \"https://github.com/OpenZeppelin/openzeppelin-contracts/blob/v2.5.0/contracts/token/ERC20/ERC20.sol\":2347:2354  spender */\n      dup4\n        /* \"https://github.com/OpenZeppelin/openzeppelin-contracts/blob/v2.5.0/contracts/token/ERC20/ERC20.sol\":2328:2355  _allowances[owner][spender] */\n      0xffffffffffffffffffffffffffffffffffffffff\n      and\n      0xffffffffffffffffffffffffffffffffffffffff\n      and\n      dup2\n      mstore\n      0x20\n      add\n      swap1\n      dup2\n      mstore\n      0x20\n      add\n      0x00\n      keccak256\n      sload\n        /* \"https://github.com/OpenZeppelin/openzeppelin-contracts/blob/v2.5.0/contracts/token/ERC20/ERC20.sol\":2321:2355  return _allowances[owner][spender] */\n      swap1\n      pop\n        /* \"https://github.com/OpenZeppelin/openzeppelin-contracts/blob/v2.5.0/contracts/token/ERC20/ERC20.sol\":2230:2362  function allowance(address owner, address spender) public view returns (uint256) {... */\n      swap3\n      swap2\n      pop\n      pop\n      jump\t// out\n        /* \"https://github.com/OpenZeppelin/openzeppelin-contracts/blob/v2.5.0/contracts/ownership/Ownable.sol\":1970:2077  function transferOwnership(address newOwner) public onlyOwner {... */\n    tag_122:\n        /* \"https://github.com/OpenZeppelin/openzeppelin-contracts/blob/v2.5.0/contracts/ownership/Ownable.sol\":1103:1112  isOwner() */\n      tag_209\n        /* \"https://github.com/OpenZeppelin/openzeppelin-contracts/blob/v2.5.0/contracts/ownership/Ownable.sol\":1103:1110  isOwner */\n      tag_88\n        /* \"https://github.com/OpenZeppelin/openzeppelin-contracts/blob/v2.5.0/contracts/ownership/Ownable.sol\":1103:1112  isOwner() */\n      jump\t// in\n    tag_209:\n        /* \"https://github.com/OpenZeppelin/openzeppelin-contracts/blob/v2.5.0/contracts/ownership/Ownable.sol\":1095:1149  require(isOwner(), \"Ownable: caller is not the owner\") */\n      iszero\n      iszero\n      tag_210\n      jumpi\n      mload(0x40)\n      0x08c379a000000000000000000000000000000000000000000000000000000000\n      dup2\n      mstore\n      0x04\n      add\n      dup1\n      dup1\n      0x20\n      add\n      dup3\n      dup2\n      sub\n      dup3\n      mstore\n      0x20\n      dup2\n      mstore\n      0x20\n      add\n      dup1\n      0x4f776e61626c653a2063616c6c6572206973206e6f7420746865206f776e6572\n      dup2\n      mstore\n      pop\n      0x20\n      add\n      swap2\n      pop\n      pop\n      mload(0x40)\n      dup1\n      swap2\n      sub\n      swap1\n      revert\n    tag_210:\n        /* \"https://github.com/OpenZeppelin/openzeppelin-contracts/blob/v2.5.0/contracts/ownership/Ownable.sol\":2042:2070  _transferOwnership(newOwner) */\n      tag_212\n        /* \"https://github.com/OpenZeppelin/openzeppelin-contracts/blob/v2.5.0/contracts/ownership/Ownable.sol\":2061:2069  newOwner */\n      dup2\n        /* \"https://github.com/OpenZeppelin/openzeppelin-contracts/blob/v2.5.0/contracts/ownership/Ownable.sol\":2042:2060  _transferOwnership */\n      tag_213\n        /* \"https://github.com/OpenZeppelin/openzeppelin-contracts/blob/v2.5.0/contracts/ownership/Ownable.sol\":2042:2070  _transferOwnership(newOwner) */\n      jump\t// in\n    tag_212:\n        /* \"https://github.com/OpenZeppelin/openzeppelin-contracts/blob/v2.5.0/contracts/ownership/Ownable.sol\":1970:2077  function transferOwnership(address newOwner) public onlyOwner {... */\n      pop\n      jump\t// out\n        /* \"RE_dApp/OwnershipToken.sol\":588:623  uint256 public initialPropertyPrice */\n    tag_125:\n      sload(0x08)\n      dup2\n      jump\t// out\n        /* \"https://github.com/OpenZeppelin/openzeppelin-contracts/blob/v2.5.0/contracts/GSN/Context.sol\":788:884  function _msgSender() internal view returns (address payable) {... */\n    tag_139:\n        /* \"https://github.com/OpenZeppelin/openzeppelin-contracts/blob/v2.5.0/contracts/GSN/Context.sol\":833:848  address payable */\n      0x00\n        /* \"https://github.com/OpenZeppelin/openzeppelin-contracts/blob/v2.5.0/contracts/GSN/Context.sol\":867:877  msg.sender */\n      caller\n        /* \"https://github.com/OpenZeppelin/openzeppelin-contracts/blob/v2.5.0/contracts/GSN/Context.sol\":860:877  return msg.sender */\n      swap1\n      pop\n        /* \"https://github.com/OpenZeppelin/openzeppelin-contracts/blob/v2.5.0/contracts/GSN/Context.sol\":788:884  function _msgSender() internal view returns (address payable) {... */\n      swap1\n      jump\t// out\n        /* \"https://github.com/OpenZeppelin/openzeppelin-contracts/blob/v2.5.0/contracts/token/ERC20/ERC20.sol\":7350:7682  function _approve(address owner, address spender, uint256 amount) internal {... */\n    tag_140:\n        /* \"https://github.com/OpenZeppelin/openzeppelin-contracts/blob/v2.5.0/contracts/token/ERC20/ERC20.sol\":7460:7461  0 */\n      0x00\n        /* \"https://github.com/OpenZeppelin/openzeppelin-contracts/blob/v2.5.0/contracts/token/ERC20/ERC20.sol\":7443:7462  owner != address(0) */\n      0xffffffffffffffffffffffffffffffffffffffff\n      and\n        /* \"https://github.com/OpenZeppelin/openzeppelin-contracts/blob/v2.5.0/contracts/token/ERC20/ERC20.sol\":7443:7448  owner */\n      dup4\n        /* \"https://github.com/OpenZeppelin/openzeppelin-contracts/blob/v2.5.0/contracts/token/ERC20/ERC20.sol\":7443:7462  owner != address(0) */\n      0xffffffffffffffffffffffffffffffffffffffff\n      and\n      eq\n      iszero\n        /* \"https://github.com/OpenZeppelin/openzeppelin-contracts/blob/v2.5.0/contracts/token/ERC20/ERC20.sol\":7435:7503  require(owner != address(0), \"ERC20: approve from the zero address\") */\n      iszero\n      iszero\n      tag_216\n      jumpi\n      mload(0x40)\n      0x08c379a000000000000000000000000000000000000000000000000000000000\n      dup2\n      mstore\n      0x04\n      add\n      dup1\n      dup1\n      0x20\n      add\n      dup3\n      dup2\n      sub\n      dup3\n      mstore\n      0x24\n      dup2\n      mstore\n      0x20\n      add\n      dup1\n      data_c953f4879035ed60e766b34720f656aab5c697b141d924c283124ecedb91c208\n      0x24\n      swap2\n      codecopy\n      0x40\n      add\n      swap2\n      pop\n      pop\n      mload(0x40)\n      dup1\n      swap2\n      sub\n      swap1\n      revert\n    tag_216:\n        /* \"https://github.com/OpenZeppelin/openzeppelin-contracts/blob/v2.5.0/contracts/token/ERC20/ERC20.sol\":7540:7541  0 */\n      0x00\n        /* \"https://github.com/OpenZeppelin/openzeppelin-contracts/blob/v2.5.0/contracts/token/ERC20/ERC20.sol\":7521:7542  spender != address(0) */\n      0xffffffffffffffffffffffffffffffffffffffff\n      and\n        /* \"https://github.com/OpenZeppelin/openzeppelin-contracts/blob/v2.5.0/contracts/token/ERC20/ERC20.sol\":7521:7528  spender */\n      dup3\n        /* \"https://github.com/OpenZeppelin/openzeppelin-contracts/blob/v2.5.0/contracts/token/ERC20/ERC20.sol\":7521:7542  spender != address(0) */\n      0xffffffffffffffffffffffffffffffffffffffff\n      and\n      eq\n      iszero\n        /* \"https://github.com/OpenZeppelin/openzeppelin-contracts/blob/v2.5.0/contracts/token/ERC20/ERC20.sol\":7513:7581  require(spender != address(0), \"ERC20: approve to the zero address\") */\n      iszero\n      iszero\n      tag_217\n      jumpi\n      mload(0x40)\n      0x08c379a000000000000000000000000000000000000000000000000000000000\n      dup2\n      mstore\n      0x04\n      add\n      dup1\n      dup1\n      0x20\n      add\n      dup3\n      dup2\n      sub\n      dup3\n      mstore\n      0x22\n      dup2\n      mstore\n      0x20\n      add\n      dup1\n      data_24883cc5fe64ace9d0df1893501ecb93c77180f0ff69cca79affb3c316dc8029\n      0x22\n      swap2\n      codecopy\n      0x40\n      add\n      swap2\n      pop\n      pop\n      mload(0x40)\n      dup1\n      swap2\n      sub\n      swap1\n      revert\n    tag_217:\n        /* \"https://github.com/OpenZeppelin/openzeppelin-contracts/blob/v2.5.0/contracts/token/ERC20/ERC20.sol\":7622:7628  amount */\n      dup1\n        /* \"https://github.com/OpenZeppelin/openzeppelin-contracts/blob/v2.5.0/contracts/token/ERC20/ERC20.sol\":7592:7603  _allowances */\n      0x01\n        /* \"https://github.com/OpenZeppelin/openzeppelin-contracts/blob/v2.5.0/contracts/token/ERC20/ERC20.sol\":7592:7610  _allowances[owner] */\n      0x00\n        /* \"https://github.com/OpenZeppelin/openzeppelin-contracts/blob/v2.5.0/contracts/token/ERC20/ERC20.sol\":7604:7609  owner */\n      dup6\n        /* \"https://github.com/OpenZeppelin/openzeppelin-contracts/blob/v2.5.0/contracts/token/ERC20/ERC20.sol\":7592:7610  _allowances[owner] */\n      0xffffffffffffffffffffffffffffffffffffffff\n      and\n      0xffffffffffffffffffffffffffffffffffffffff\n      and\n      dup2\n      mstore\n      0x20\n      add\n      swap1\n      dup2\n      mstore\n      0x20\n      add\n      0x00\n      keccak256\n        /* \"https://github.com/OpenZeppelin/openzeppelin-contracts/blob/v2.5.0/contracts/token/ERC20/ERC20.sol\":7592:7619  _allowances[owner][spender] */\n      0x00\n        /* \"https://github.com/OpenZeppelin/openzeppelin-contracts/blob/v2.5.0/contracts/token/ERC20/ERC20.sol\":7611:7618  spender */\n      dup5\n        /* \"https://github.com/OpenZeppelin/openzeppelin-contracts/blob/v2.5.0/contracts/token/ERC20/ERC20.sol\":7592:7619  _allowances[owner][spender] */\n      0xffffffffffffffffffffffffffffffffffffffff\n      and\n      0xffffffffffffffffffffffffffffffffffffffff\n      and\n      dup2\n      mstore\n      0x20\n      add\n      swap1\n      dup2\n      mstore\n      0x20\n      add\n      0x00\n      keccak256\n        /* \"https://github.com/OpenZeppelin/openzeppelin-contracts/blob/v2.5.0/contracts/token/ERC20/ERC20.sol\":7592:7628  _allowances[owner][spender] = amount */\n      dup2\n      swap1\n      sstore\n      pop\n        /* \"https://github.com/OpenZeppelin/openzeppelin-contracts/blob/v2.5.0/contracts/token/ERC20/ERC20.sol\":7659:7666  spender */\n      dup2\n        /* \"https://github.com/OpenZeppelin/openzeppelin-contracts/blob/v2.5.0/contracts/token/ERC20/ERC20.sol\":7643:7675  Approval(owner, spender, amount) */\n      0xffffffffffffffffffffffffffffffffffffffff\n      and\n        /* \"https://github.com/OpenZeppelin/openzeppelin-contracts/blob/v2.5.0/contracts/token/ERC20/ERC20.sol\":7652:7657  owner */\n      dup4\n        /* \"https://github.com/OpenZeppelin/openzeppelin-contracts/blob/v2.5.0/contracts/token/ERC20/ERC20.sol\":7643:7675  Approval(owner, spender, amount) */\n      0xffffffffffffffffffffffffffffffffffffffff\n      and\n      0x8c5be1e5ebec7d5bd14f71427d1e84f3dd0314c0f7b2291e5b200ac8c7c3b925\n        /* \"https://github.com/OpenZeppelin/openzeppelin-contracts/blob/v2.5.0/contracts/token/ERC20/ERC20.sol\":7668:7674  amount */\n      dup4\n        /* \"https://github.com/OpenZeppelin/openzeppelin-contracts/blob/v2.5.0/contracts/token/ERC20/ERC20.sol\":7643:7675  Approval(owner, spender, amount) */\n      mload(0x40)\n      dup1\n      dup3\n      dup2\n      mstore\n      0x20\n      add\n      swap2\n      pop\n      pop\n      mload(0x40)\n      dup1\n      swap2\n      sub\n      swap1\n      log3\n        /* \"https://github.com/OpenZeppelin/openzeppelin-contracts/blob/v2.5.0/contracts/token/ERC20/ERC20.sol\":7350:7682  function _approve(address owner, address spender, uint256 amount) internal {... */\n      pop\n      pop\n      pop\n      jump\t// out\n        /* \"https://github.com/OpenZeppelin/openzeppelin-contracts/blob/v2.5.0/contracts/token/ERC20/ERC20.sol\":5228:5692  function _transfer(address sender, address recipient, uint256 amount) internal {... */\n    tag_144:\n        /* \"https://github.com/OpenZeppelin/openzeppelin-contracts/blob/v2.5.0/contracts/token/ERC20/ERC20.sol\":5343:5344  0 */\n      0x00\n        /* \"https://github.com/OpenZeppelin/openzeppelin-contracts/blob/v2.5.0/contracts/token/ERC20/ERC20.sol\":5325:5345  sender != address(0) */\n      0xffffffffffffffffffffffffffffffffffffffff\n      and\n        /* \"https://github.com/OpenZeppelin/openzeppelin-contracts/blob/v2.5.0/contracts/token/ERC20/ERC20.sol\":5325:5331  sender */\n      dup4\n        /* \"https://github.com/OpenZeppelin/openzeppelin-contracts/blob/v2.5.0/contracts/token/ERC20/ERC20.sol\":5325:5345  sender != address(0) */\n      0xffffffffffffffffffffffffffffffffffffffff\n      and\n      eq\n      iszero\n        /* \"https://github.com/OpenZeppelin/openzeppelin-contracts/blob/v2.5.0/contracts/token/ERC20/ERC20.sol\":5317:5387  require(sender != address(0), \"ERC20: transfer from the zero address\") */\n      iszero\n      iszero\n      tag_219\n      jumpi\n      mload(0x40)\n      0x08c379a000000000000000000000000000000000000000000000000000000000\n      dup2\n      mstore\n      0x04\n      add\n      dup1\n      dup1\n      0x20\n      add\n      dup3\n      dup2\n      sub\n      dup3\n      mstore\n      0x25\n      dup2\n      mstore\n      0x20\n      add\n      dup1\n      data_baecc556b46f4ed0f2b4cb599d60785ac8563dd2dc0a5bf12edea1c39e5e1fea\n      0x25\n      swap2\n      codecopy\n      0x40\n      add\n      swap2\n      pop\n      pop\n      mload(0x40)\n      dup1\n      swap2\n      sub\n      swap1\n      revert\n    tag_219:\n        /* \"https://github.com/OpenZeppelin/openzeppelin-contracts/blob/v2.5.0/contracts/token/ERC20/ERC20.sol\":5426:5427  0 */\n      0x00\n        /* \"https://github.com/OpenZeppelin/openzeppelin-contracts/blob/v2.5.0/contracts/token/ERC20/ERC20.sol\":5405:5428  recipient != address(0) */\n      0xffffffffffffffffffffffffffffffffffffffff\n      and\n        /* \"https://github.com/OpenZeppelin/openzeppelin-contracts/blob/v2.5.0/contracts/token/ERC20/ERC20.sol\":5405:5414  recipient */\n      dup3\n        /* \"https://github.com/OpenZeppelin/openzeppelin-contracts/blob/v2.5.0/contracts/token/ERC20/ERC20.sol\":5405:5428  recipient != address(0) */\n      0xffffffffffffffffffffffffffffffffffffffff\n      and\n      eq\n      iszero\n        /* \"https://github.com/OpenZeppelin/openzeppelin-contracts/blob/v2.5.0/contracts/token/ERC20/ERC20.sol\":5397:5468  require(recipient != address(0), \"ERC20: transfer to the zero address\") */\n      iszero\n      iszero\n      tag_220\n      jumpi\n      mload(0x40)\n      0x08c379a000000000000000000000000000000000000000000000000000000000\n      dup2\n      mstore\n      0x04\n      add\n      dup1\n      dup1\n      0x20\n      add\n      dup3\n      dup2\n      sub\n      dup3\n      mstore\n      0x23\n      dup2\n      mstore\n      0x20\n      add\n      dup1\n      data_0557e210f7a69a685100a7e4e3d0a7024c546085cee28910fd17d0b081d9516f\n      0x23\n      swap2\n      codecopy\n      0x40\n      add\n      swap2\n      pop\n      pop\n      mload(0x40)\n      dup1\n      swap2\n      sub\n      swap1\n      revert\n    tag_220:\n        /* \"https://github.com/OpenZeppelin/openzeppelin-contracts/blob/v2.5.0/contracts/token/ERC20/ERC20.sol\":5499:5570  _balances[sender].sub(amount, \"ERC20: transfer amount exceeds balance\") */\n      tag_221\n        /* \"https://github.com/OpenZeppelin/openzeppelin-contracts/blob/v2.5.0/contracts/token/ERC20/ERC20.sol\":5521:5527  amount */\n      dup2\n        /* \"https://github.com/OpenZeppelin/openzeppelin-contracts/blob/v2.5.0/contracts/token/ERC20/ERC20.sol\":5499:5570  _balances[sender].sub(amount, \"ERC20: transfer amount exceeds balance\") */\n      mload(0x40)\n      dup1\n      0x60\n      add\n      0x40\n      mstore\n      dup1\n      0x26\n      dup2\n      mstore\n      0x20\n      add\n      data_4107e8a8b9e94bf8ff83080ddec1c0bffe897ebc2241b89d44f66b3d274088b6\n      0x26\n      swap2\n      codecopy\n        /* \"https://github.com/OpenZeppelin/openzeppelin-contracts/blob/v2.5.0/contracts/token/ERC20/ERC20.sol\":5499:5508  _balances */\n      0x00\n        /* \"https://github.com/OpenZeppelin/openzeppelin-contracts/blob/v2.5.0/contracts/token/ERC20/ERC20.sol\":5499:5516  _balances[sender] */\n      dup1\n        /* \"https://github.com/OpenZeppelin/openzeppelin-contracts/blob/v2.5.0/contracts/token/ERC20/ERC20.sol\":5509:5515  sender */\n      dup8\n        /* \"https://github.com/OpenZeppelin/openzeppelin-contracts/blob/v2.5.0/contracts/token/ERC20/ERC20.sol\":5499:5516  _balances[sender] */\n      0xffffffffffffffffffffffffffffffffffffffff\n      and\n      0xffffffffffffffffffffffffffffffffffffffff\n      and\n      dup2\n      mstore\n      0x20\n      add\n      swap1\n      dup2\n      mstore\n      0x20\n      add\n      0x00\n      keccak256\n      sload\n        /* \"https://github.com/OpenZeppelin/openzeppelin-contracts/blob/v2.5.0/contracts/token/ERC20/ERC20.sol\":5499:5520  _balances[sender].sub */\n      tag_149\n      swap1\n        /* \"https://github.com/OpenZeppelin/openzeppelin-contracts/blob/v2.5.0/contracts/token/ERC20/ERC20.sol\":5499:5570  _balances[sender].sub(amount, \"ERC20: transfer amount exceeds balance\") */\n      swap3\n      swap2\n      swap1\n      0xffffffff\n      and\n      jump\t// in\n    tag_221:\n        /* \"https://github.com/OpenZeppelin/openzeppelin-contracts/blob/v2.5.0/contracts/token/ERC20/ERC20.sol\":5479:5488  _balances */\n      0x00\n        /* \"https://github.com/OpenZeppelin/openzeppelin-contracts/blob/v2.5.0/contracts/token/ERC20/ERC20.sol\":5479:5496  _balances[sender] */\n      dup1\n        /* \"https://github.com/OpenZeppelin/openzeppelin-contracts/blob/v2.5.0/contracts/token/ERC20/ERC20.sol\":5489:5495  sender */\n      dup6\n        /* \"https://github.com/OpenZeppelin/openzeppelin-contracts/blob/v2.5.0/contracts/token/ERC20/ERC20.sol\":5479:5496  _balances[sender] */\n      0xffffffffffffffffffffffffffffffffffffffff\n      and\n      0xffffffffffffffffffffffffffffffffffffffff\n      and\n      dup2\n      mstore\n      0x20\n      add\n      swap1\n      dup2\n      mstore\n      0x20\n      add\n      0x00\n      keccak256\n        /* \"https://github.com/OpenZeppelin/openzeppelin-contracts/blob/v2.5.0/contracts/token/ERC20/ERC20.sol\":5479:5570  _balances[sender] = _balances[sender].sub(amount, \"ERC20: transfer amount exceeds balance\") */\n      dup2\n      swap1\n      sstore\n      pop\n        /* \"https://github.com/OpenZeppelin/openzeppelin-contracts/blob/v2.5.0/contracts/token/ERC20/ERC20.sol\":5603:5635  _balances[recipient].add(amount) */\n      tag_222\n        /* \"https://github.com/OpenZeppelin/openzeppelin-contracts/blob/v2.5.0/contracts/token/ERC20/ERC20.sol\":5628:5634  amount */\n      dup2\n        /* \"https://github.com/OpenZeppelin/openzeppelin-contracts/blob/v2.5.0/contracts/token/ERC20/ERC20.sol\":5603:5612  _balances */\n      0x00\n        /* \"https://github.com/OpenZeppelin/openzeppelin-contracts/blob/v2.5.0/contracts/token/ERC20/ERC20.sol\":5603:5623  _balances[recipient] */\n      dup1\n        /* \"https://github.com/OpenZeppelin/openzeppelin-contracts/blob/v2.5.0/contracts/token/ERC20/ERC20.sol\":5613:5622  recipient */\n      dup6\n        /* \"https://github.com/OpenZeppelin/openzeppelin-contracts/blob/v2.5.0/contracts/token/ERC20/ERC20.sol\":5603:5623  _balances[recipient] */\n      0xffffffffffffffffffffffffffffffffffffffff\n      and\n      0xffffffffffffffffffffffffffffffffffffffff\n      and\n      dup2\n      mstore\n      0x20\n      add\n      swap1\n      dup2\n      mstore\n      0x20\n      add\n      0x00\n      keccak256\n      sload\n        /* \"https://github.com/OpenZeppelin/openzeppelin-contracts/blob/v2.5.0/contracts/token/ERC20/ERC20.sol\":5603:5627  _balances[recipient].add */\n      tag_163\n      swap1\n        /* \"https://github.com/OpenZeppelin/openzeppelin-contracts/blob/v2.5.0/contracts/token/ERC20/ERC20.sol\":5603:5635  _balances[recipient].add(amount) */\n      swap2\n      swap1\n      0xffffffff\n      and\n      jump\t// in\n    tag_222:\n        /* \"https://github.com/OpenZeppelin/openzeppelin-contracts/blob/v2.5.0/contracts/token/ERC20/ERC20.sol\":5580:5589  _balances */\n      0x00\n        /* \"https://github.com/OpenZeppelin/openzeppelin-contracts/blob/v2.5.0/contracts/token/ERC20/ERC20.sol\":5580:5600  _balances[recipient] */\n      dup1\n        /* \"https://github.com/OpenZeppelin/openzeppelin-contracts/blob/v2.5.0/contracts/token/ERC20/ERC20.sol\":5590:5599  recipient */\n      dup5\n        /* \"https://github.com/OpenZeppelin/openzeppelin-contracts/blob/v2.5.0/contracts/token/ERC20/ERC20.sol\":5580:5600  _balances[recipient] */\n      0xffffffffffffffffffffffffffffffffffffffff\n      and\n      0xffffffffffffffffffffffffffffffffffffffff\n      and\n      dup2\n      mstore\n      0x20\n      add\n      swap1\n      dup2\n      mstore\n      0x20\n      add\n      0x00\n      keccak256\n        /* \"https://github.com/OpenZeppelin/openzeppelin-contracts/blob/v2.5.0/contracts/token/ERC20/ERC20.sol\":5580:5635  _balances[recipient] = _balances[recipient].add(amount) */\n      dup2\n      swap1\n      sstore\n      pop\n        /* \"https://github.com/OpenZeppelin/openzeppelin-contracts/blob/v2.5.0/contracts/token/ERC20/ERC20.sol\":5667:5676  recipient */\n      dup2\n        /* \"https://github.com/OpenZeppelin/openzeppelin-contracts/blob/v2.5.0/contracts/token/ERC20/ERC20.sol\":5650:5685  Transfer(sender, recipient, amount) */\n      0xffffffffffffffffffffffffffffffffffffffff\n      and\n        /* \"https://github.com/OpenZeppelin/openzeppelin-contracts/blob/v2.5.0/contracts/token/ERC20/ERC20.sol\":5659:5665  sender */\n      dup4\n        /* \"https://github.com/OpenZeppelin/openzeppelin-contracts/blob/v2.5.0/contracts/token/ERC20/ERC20.sol\":5650:5685  Transfer(sender, recipient, amount) */\n      0xffffffffffffffffffffffffffffffffffffffff\n      and\n      0xddf252ad1be2c89b69c2b068fc378daa952ba7f163c4a11628f55a4df523b3ef\n        /* \"https://github.com/OpenZeppelin/openzeppelin-contracts/blob/v2.5.0/contracts/token/ERC20/ERC20.sol\":5678:5684  amount */\n      dup4\n        /* \"https://github.com/OpenZeppelin/openzeppelin-contracts/blob/v2.5.0/contracts/token/ERC20/ERC20.sol\":5650:5685  Transfer(sender, recipient, amount) */\n      mload(0x40)\n      dup1\n      dup3\n      dup2\n      mstore\n      0x20\n      add\n      swap2\n      pop\n      pop\n      mload(0x40)\n      dup1\n      swap2\n      sub\n      swap1\n      log3\n        /* \"https://github.com/OpenZeppelin/openzeppelin-contracts/blob/v2.5.0/contracts/token/ERC20/ERC20.sol\":5228:5692  function _transfer(address sender, address recipient, uint256 amount) internal {... */\n      pop\n      pop\n      pop\n      jump\t// out\n        /* \"https://github.com/OpenZeppelin/openzeppelin-contracts/blob/v2.5.0/contracts/math/SafeMath.sol\":1732:1919  function sub(uint256 a, uint256 b, string memory errorMessage) internal pure returns (uint256) {... */\n    tag_149:\n        /* \"https://github.com/OpenZeppelin/openzeppelin-contracts/blob/v2.5.0/contracts/math/SafeMath.sol\":1818:1825  uint256 */\n      0x00\n        /* \"https://github.com/OpenZeppelin/openzeppelin-contracts/blob/v2.5.0/contracts/math/SafeMath.sol\":1850:1851  a */\n      dup4\n        /* \"https://github.com/OpenZeppelin/openzeppelin-contracts/blob/v2.5.0/contracts/math/SafeMath.sol\":1845:1846  b */\n      dup4\n        /* \"https://github.com/OpenZeppelin/openzeppelin-contracts/blob/v2.5.0/contracts/math/SafeMath.sol\":1845:1851  b <= a */\n      gt\n      iszero\n        /* \"https://github.com/OpenZeppelin/openzeppelin-contracts/blob/v2.5.0/contracts/math/SafeMath.sol\":1853:1865  errorMessage */\n      dup3\n        /* \"https://github.com/OpenZeppelin/openzeppelin-contracts/blob/v2.5.0/contracts/math/SafeMath.sol\":1837:1866  require(b <= a, errorMessage) */\n      swap1\n      iszero\n      iszero\n      tag_224\n      jumpi\n      mload(0x40)\n      0x08c379a000000000000000000000000000000000000000000000000000000000\n      dup2\n      mstore\n      0x04\n      add\n      dup1\n      dup1\n      0x20\n      add\n      dup3\n      dup2\n      sub\n      dup3\n      mstore\n      dup4\n      dup2\n      dup2\n      mload\n      dup2\n      mstore\n      0x20\n      add\n      swap2\n      pop\n      dup1\n      mload\n      swap1\n      0x20\n      add\n      swap1\n      dup1\n      dup4\n      dup4\n        /* \"--CODEGEN--\":23:24   */\n      0x00\n        /* \"--CODEGEN--\":8:108   */\n    tag_225:\n        /* \"--CODEGEN--\":33:36   */\n      dup4\n        /* \"--CODEGEN--\":30:31   */\n      dup2\n        /* \"--CODEGEN--\":27:37   */\n      lt\n        /* \"--CODEGEN--\":8:108   */\n      iszero\n      tag_226\n      jumpi\n        /* \"--CODEGEN--\":99:100   */\n      dup1\n        /* \"--CODEGEN--\":94:97   */\n      dup3\n        /* \"--CODEGEN--\":90:101   */\n      add\n        /* \"--CODEGEN--\":84:102   */\n      mload\n        /* \"--CODEGEN--\":80:81   */\n      dup2\n        /* \"--CODEGEN--\":75:78   */\n      dup5\n        /* \"--CODEGEN--\":71:82   */\n      add\n        /* \"--CODEGEN--\":64:103   */\n      mstore\n        /* \"--CODEGEN--\":52:54   */\n      0x20\n        /* \"--CODEGEN--\":49:50   */\n      dup2\n        /* \"--CODEGEN--\":45:55   */\n      add\n        /* \"--CODEGEN--\":40:55   */\n      swap1\n      pop\n        /* \"--CODEGEN--\":8:108   */\n      jump(tag_225)\n    tag_226:\n        /* \"--CODEGEN--\":12:26   */\n      pop\n        /* \"https://github.com/OpenZeppelin/openzeppelin-contracts/blob/v2.5.0/contracts/math/SafeMath.sol\":1837:1866  require(b <= a, errorMessage) */\n      pop\n      pop\n      pop\n      swap1\n      pop\n      swap1\n      dup2\n      add\n      swap1\n      0x1f\n      and\n      dup1\n      iszero\n      tag_228\n      jumpi\n      dup1\n      dup3\n      sub\n      dup1\n      mload\n      0x01\n      dup4\n      0x20\n      sub\n      0x0100\n      exp\n      sub\n      not\n      and\n      dup2\n      mstore\n      0x20\n      add\n      swap2\n      pop\n    tag_228:\n      pop\n      swap3\n      pop\n      pop\n      pop\n      mload(0x40)\n      dup1\n      swap2\n      sub\n      swap1\n      revert\n    tag_224:\n      pop\n        /* \"https://github.com/OpenZeppelin/openzeppelin-contracts/blob/v2.5.0/contracts/math/SafeMath.sol\":1876:1885  uint256 c */\n      0x00\n        /* \"https://github.com/OpenZeppelin/openzeppelin-contracts/blob/v2.5.0/contracts/math/SafeMath.sol\":1892:1893  b */\n      dup4\n        /* \"https://github.com/OpenZeppelin/openzeppelin-contracts/blob/v2.5.0/contracts/math/SafeMath.sol\":1888:1889  a */\n      dup6\n        /* \"https://github.com/OpenZeppelin/openzeppelin-contracts/blob/v2.5.0/contracts/math/SafeMath.sol\":1888:1893  a - b */\n      sub\n        /* \"https://github.com/OpenZeppelin/openzeppelin-contracts/blob/v2.5.0/contracts/math/SafeMath.sol\":1876:1893  uint256 c = a - b */\n      swap1\n      pop\n        /* \"https://github.com/OpenZeppelin/openzeppelin-contracts/blob/v2.5.0/contracts/math/SafeMath.sol\":1911:1912  c */\n      dup1\n        /* \"https://github.com/OpenZeppelin/openzeppelin-contracts/blob/v2.5.0/contracts/math/SafeMath.sol\":1904:1912  return c */\n      swap2\n      pop\n      pop\n        /* \"https://github.com/OpenZeppelin/openzeppelin-contracts/blob/v2.5.0/contracts/math/SafeMath.sol\":1732:1919  function sub(uint256 a, uint256 b, string memory errorMessage) internal pure returns (uint256) {... */\n      swap4\n      swap3\n      pop\n      pop\n      pop\n      jump\t// out\n        /* \"https://github.com/OpenZeppelin/openzeppelin-contracts/blob/v2.5.0/contracts/token/ERC20/ERC20.sol\":5962:6264  function _mint(address account, uint256 amount) internal {... */\n    tag_156:\n        /* \"https://github.com/OpenZeppelin/openzeppelin-contracts/blob/v2.5.0/contracts/token/ERC20/ERC20.sol\":6056:6057  0 */\n      0x00\n        /* \"https://github.com/OpenZeppelin/openzeppelin-contracts/blob/v2.5.0/contracts/token/ERC20/ERC20.sol\":6037:6058  account != address(0) */\n      0xffffffffffffffffffffffffffffffffffffffff\n      and\n        /* \"https://github.com/OpenZeppelin/openzeppelin-contracts/blob/v2.5.0/contracts/token/ERC20/ERC20.sol\":6037:6044  account */\n      dup3\n        /* \"https://github.com/OpenZeppelin/openzeppelin-contracts/blob/v2.5.0/contracts/token/ERC20/ERC20.sol\":6037:6058  account != address(0) */\n      0xffffffffffffffffffffffffffffffffffffffff\n      and\n      eq\n      iszero\n        /* \"https://github.com/OpenZeppelin/openzeppelin-contracts/blob/v2.5.0/contracts/token/ERC20/ERC20.sol\":6029:6094  require(account != address(0), \"ERC20: mint to the zero address\") */\n      iszero\n      iszero\n      tag_230\n      jumpi\n      mload(0x40)\n      0x08c379a000000000000000000000000000000000000000000000000000000000\n      dup2\n      mstore\n      0x04\n      add\n      dup1\n      dup1\n      0x20\n      add\n      dup3\n      dup2\n      sub\n      dup3\n      mstore\n      0x1f\n      dup2\n      mstore\n      0x20\n      add\n      dup1\n      0x45524332303a206d696e7420746f20746865207a65726f206164647265737300\n      dup2\n      mstore\n      pop\n      0x20\n      add\n      swap2\n      pop\n      pop\n      mload(0x40)\n      dup1\n      swap2\n      sub\n      swap1\n      revert\n    tag_230:\n        /* \"https://github.com/OpenZeppelin/openzeppelin-contracts/blob/v2.5.0/contracts/token/ERC20/ERC20.sol\":6120:6144  _totalSupply.add(amount) */\n      tag_231\n        /* \"https://github.com/OpenZeppelin/openzeppelin-contracts/blob/v2.5.0/contracts/token/ERC20/ERC20.sol\":6137:6143  amount */\n      dup2\n        /* \"https://github.com/OpenZeppelin/openzeppelin-contracts/blob/v2.5.0/contracts/token/ERC20/ERC20.sol\":6120:6132  _totalSupply */\n      sload(0x02)\n        /* \"https://github.com/OpenZeppelin/openzeppelin-contracts/blob/v2.5.0/contracts/token/ERC20/ERC20.sol\":6120:6136  _totalSupply.add */\n      tag_163\n      swap1\n        /* \"https://github.com/OpenZeppelin/openzeppelin-contracts/blob/v2.5.0/contracts/token/ERC20/ERC20.sol\":6120:6144  _totalSupply.add(amount) */\n      swap2\n      swap1\n      0xffffffff\n      and\n      jump\t// in\n    tag_231:\n        /* \"https://github.com/OpenZeppelin/openzeppelin-contracts/blob/v2.5.0/contracts/token/ERC20/ERC20.sol\":6105:6117  _totalSupply */\n      0x02\n        /* \"https://github.com/OpenZeppelin/openzeppelin-contracts/blob/v2.5.0/contracts/token/ERC20/ERC20.sol\":6105:6144  _totalSupply = _totalSupply.add(amount) */\n      dup2\n      swap1\n      sstore\n      pop\n        /* \"https://github.com/OpenZeppelin/openzeppelin-contracts/blob/v2.5.0/contracts/token/ERC20/ERC20.sol\":6175:6205  _balances[account].add(amount) */\n      tag_232\n        /* \"https://github.com/OpenZeppelin/openzeppelin-contracts/blob/v2.5.0/contracts/token/ERC20/ERC20.sol\":6198:6204  amount */\n      dup2\n        /* \"https://github.com/OpenZeppelin/openzeppelin-contracts/blob/v2.5.0/contracts/token/ERC20/ERC20.sol\":6175:6184  _balances */\n      0x00\n        /* \"https://github.com/OpenZeppelin/openzeppelin-contracts/blob/v2.5.0/contracts/token/ERC20/ERC20.sol\":6175:6193  _balances[account] */\n      dup1\n        /* \"https://github.com/OpenZeppelin/openzeppelin-contracts/blob/v2.5.0/contracts/token/ERC20/ERC20.sol\":6185:6192  account */\n      dup6\n        /* \"https://github.com/OpenZeppelin/openzeppelin-contracts/blob/v2.5.0/contracts/token/ERC20/ERC20.sol\":6175:6193  _balances[account] */\n      0xffffffffffffffffffffffffffffffffffffffff\n      and\n      0xffffffffffffffffffffffffffffffffffffffff\n      and\n      dup2\n      mstore\n      0x20\n      add\n      swap1\n      dup2\n      mstore\n      0x20\n      add\n      0x00\n      keccak256\n      sload\n        /* \"https://github.com/OpenZeppelin/openzeppelin-contracts/blob/v2.5.0/contracts/token/ERC20/ERC20.sol\":6175:6197  _balances[account].add */\n      tag_163\n      swap1\n        /* \"https://github.com/OpenZeppelin/openzeppelin-contracts/blob/v2.5.0/contracts/token/ERC20/ERC20.sol\":6175:6205  _balances[account].add(amount) */\n      swap2\n      swap1\n      0xffffffff\n      and\n      jump\t// in\n    tag_232:\n        /* \"https://github.com/OpenZeppelin/openzeppelin-contracts/blob/v2.5.0/contracts/token/ERC20/ERC20.sol\":6154:6163  _balances */\n      0x00\n        /* \"https://github.com/OpenZeppelin/openzeppelin-contracts/blob/v2.5.0/contracts/token/ERC20/ERC20.sol\":6154:6172  _balances[account] */\n      dup1\n        /* \"https://github.com/OpenZeppelin/openzeppelin-contracts/blob/v2.5.0/contracts/token/ERC20/ERC20.sol\":6164:6171  account */\n      dup5\n        /* \"https://github.com/OpenZeppelin/openzeppelin-contracts/blob/v2.5.0/contracts/token/ERC20/ERC20.sol\":6154:6172  _balances[account] */\n      0xffffffffffffffffffffffffffffffffffffffff\n      and\n      0xffffffffffffffffffffffffffffffffffffffff\n      and\n      dup2\n      mstore\n      0x20\n      add\n      swap1\n      dup2\n      mstore\n      0x20\n      add\n      0x00\n      keccak256\n        /* \"https://github.com/OpenZeppelin/openzeppelin-contracts/blob/v2.5.0/contracts/token/ERC20/ERC20.sol\":6154:6205  _balances[account] = _balances[account].add(amount) */\n      dup2\n      swap1\n      sstore\n      pop\n        /* \"https://github.com/OpenZeppelin/openzeppelin-contracts/blob/v2.5.0/contracts/token/ERC20/ERC20.sol\":6241:6248  account */\n      dup2\n        /* \"https://github.com/OpenZeppelin/openzeppelin-contracts/blob/v2.5.0/contracts/token/ERC20/ERC20.sol\":6220:6257  Transfer(address(0), account, amount) */\n      0xffffffffffffffffffffffffffffffffffffffff\n      and\n        /* \"https://github.com/OpenZeppelin/openzeppelin-contracts/blob/v2.5.0/contracts/token/ERC20/ERC20.sol\":6237:6238  0 */\n      0x00\n        /* \"https://github.com/OpenZeppelin/openzeppelin-contracts/blob/v2.5.0/contracts/token/ERC20/ERC20.sol\":6220:6257  Transfer(address(0), account, amount) */\n      0xffffffffffffffffffffffffffffffffffffffff\n      and\n      0xddf252ad1be2c89b69c2b068fc378daa952ba7f163c4a11628f55a4df523b3ef\n        /* \"https://github.com/OpenZeppelin/openzeppelin-contracts/blob/v2.5.0/contracts/token/ERC20/ERC20.sol\":6250:6256  amount */\n      dup4\n        /* \"https://github.com/OpenZeppelin/openzeppelin-contracts/blob/v2.5.0/contracts/token/ERC20/ERC20.sol\":6220:6257  Transfer(address(0), account, amount) */\n      mload(0x40)\n      dup1\n      dup3\n      dup2\n      mstore\n      0x20\n      add\n      swap2\n      pop\n      pop\n      mload(0x40)\n      dup1\n      swap2\n      sub\n      swap1\n      log3\n        /* \"https://github.com/OpenZeppelin/openzeppelin-contracts/blob/v2.5.0/contracts/token/ERC20/ERC20.sol\":5962:6264  function _mint(address account, uint256 amount) internal {... */\n      pop\n      pop\n      jump\t// out\n        /* \"https://github.com/OpenZeppelin/openzeppelin-contracts/blob/v2.5.0/contracts/math/SafeMath.sol\":834:1010  function add(uint256 a, uint256 b) internal pure returns (uint256) {... */\n    tag_163:\n        /* \"https://github.com/OpenZeppelin/openzeppelin-contracts/blob/v2.5.0/contracts/math/SafeMath.sol\":892:899  uint256 */\n      0x00\n        /* \"https://github.com/OpenZeppelin/openzeppelin-contracts/blob/v2.5.0/contracts/math/SafeMath.sol\":911:920  uint256 c */\n      dup1\n        /* \"https://github.com/OpenZeppelin/openzeppelin-contracts/blob/v2.5.0/contracts/math/SafeMath.sol\":927:928  b */\n      dup3\n        /* \"https://github.com/OpenZeppelin/openzeppelin-contracts/blob/v2.5.0/contracts/math/SafeMath.sol\":923:924  a */\n      dup5\n        /* \"https://github.com/OpenZeppelin/openzeppelin-contracts/blob/v2.5.0/contracts/math/SafeMath.sol\":923:928  a + b */\n      add\n        /* \"https://github.com/OpenZeppelin/openzeppelin-contracts/blob/v2.5.0/contracts/math/SafeMath.sol\":911:928  uint256 c = a + b */\n      swap1\n      pop\n        /* \"https://github.com/OpenZeppelin/openzeppelin-contracts/blob/v2.5.0/contracts/math/SafeMath.sol\":951:952  a */\n      dup4\n        /* \"https://github.com/OpenZeppelin/openzeppelin-contracts/blob/v2.5.0/contracts/math/SafeMath.sol\":946:947  c */\n      dup2\n        /* \"https://github.com/OpenZeppelin/openzeppelin-contracts/blob/v2.5.0/contracts/math/SafeMath.sol\":946:952  c >= a */\n      lt\n      iszero\n        /* \"https://github.com/OpenZeppelin/openzeppelin-contracts/blob/v2.5.0/contracts/math/SafeMath.sol\":938:984  require(c >= a, \"SafeMath: addition overflow\") */\n      iszero\n      iszero\n      tag_234\n      jumpi\n      mload(0x40)\n      0x08c379a000000000000000000000000000000000000000000000000000000000\n      dup2\n      mstore\n      0x04\n      add\n      dup1\n      dup1\n      0x20\n      add\n      dup3\n      dup2\n      sub\n      dup3\n      mstore\n      0x1b\n      dup2\n      mstore\n      0x20\n      add\n      dup1\n      0x536166654d6174683a206164646974696f6e206f766572666c6f770000000000\n      dup2\n      mstore\n      pop\n      0x20\n      add\n      swap2\n      pop\n      pop\n      mload(0x40)\n      dup1\n      swap2\n      sub\n      swap1\n      revert\n    tag_234:\n        /* \"https://github.com/OpenZeppelin/openzeppelin-contracts/blob/v2.5.0/contracts/math/SafeMath.sol\":1002:1003  c */\n      dup1\n        /* \"https://github.com/OpenZeppelin/openzeppelin-contracts/blob/v2.5.0/contracts/math/SafeMath.sol\":995:1003  return c */\n      swap2\n      pop\n      pop\n        /* \"https://github.com/OpenZeppelin/openzeppelin-contracts/blob/v2.5.0/contracts/math/SafeMath.sol\":834:1010  function add(uint256 a, uint256 b) internal pure returns (uint256) {... */\n      swap3\n      swap2\n      pop\n      pop\n      jump\t// out\n        /* \"https://github.com/OpenZeppelin/openzeppelin-contracts/blob/v2.5.0/contracts/access/roles/MinterRole.sol\":786:905  function _addMinter(address account) internal {... */\n    tag_188:\n        /* \"https://github.com/OpenZeppelin/openzeppelin-contracts/blob/v2.5.0/contracts/access/roles/MinterRole.sol\":842:863  _minters.add(account) */\n      tag_236\n        /* \"https://github.com/OpenZeppelin/openzeppelin-contracts/blob/v2.5.0/contracts/access/roles/MinterRole.sol\":855:862  account */\n      dup2\n        /* \"https://github.com/OpenZeppelin/openzeppelin-contracts/blob/v2.5.0/contracts/access/roles/MinterRole.sol\":842:850  _minters */\n      0x06\n        /* \"https://github.com/OpenZeppelin/openzeppelin-contracts/blob/v2.5.0/contracts/access/roles/MinterRole.sol\":842:854  _minters.add */\n      tag_237\n      swap1\n        /* \"https://github.com/OpenZeppelin/openzeppelin-contracts/blob/v2.5.0/contracts/access/roles/MinterRole.sol\":842:863  _minters.add(account) */\n      swap2\n      swap1\n      0xffffffff\n      and\n      jump\t// in\n    tag_236:\n        /* \"https://github.com/OpenZeppelin/openzeppelin-contracts/blob/v2.5.0/contracts/access/roles/MinterRole.sol\":890:897  account */\n      dup1\n        /* \"https://github.com/OpenZeppelin/openzeppelin-contracts/blob/v2.5.0/contracts/access/roles/MinterRole.sol\":878:898  MinterAdded(account) */\n      0xffffffffffffffffffffffffffffffffffffffff\n      and\n      0x6ae172837ea30b801fbfcdd4108aa1d5bf8ff775444fd70256b44e6bf3dfc3f6\n      mload(0x40)\n      mload(0x40)\n      dup1\n      swap2\n      sub\n      swap1\n      log2\n        /* \"https://github.com/OpenZeppelin/openzeppelin-contracts/blob/v2.5.0/contracts/access/roles/MinterRole.sol\":786:905  function _addMinter(address account) internal {... */\n      pop\n      jump\t// out\n        /* \"https://github.com/OpenZeppelin/openzeppelin-contracts/blob/v2.5.0/contracts/access/roles/MinterRole.sol\":911:1038  function _removeMinter(address account) internal {... */\n    tag_192:\n        /* \"https://github.com/OpenZeppelin/openzeppelin-contracts/blob/v2.5.0/contracts/access/roles/MinterRole.sol\":970:994  _minters.remove(account) */\n      tag_239\n        /* \"https://github.com/OpenZeppelin/openzeppelin-contracts/blob/v2.5.0/contracts/access/roles/MinterRole.sol\":986:993  account */\n      dup2\n        /* \"https://github.com/OpenZeppelin/openzeppelin-contracts/blob/v2.5.0/contracts/access/roles/MinterRole.sol\":970:978  _minters */\n      0x06\n        /* \"https://github.com/OpenZeppelin/openzeppelin-contracts/blob/v2.5.0/contracts/access/roles/MinterRole.sol\":970:985  _minters.remove */\n      tag_240\n      swap1\n        /* \"https://github.com/OpenZeppelin/openzeppelin-contracts/blob/v2.5.0/contracts/access/roles/MinterRole.sol\":970:994  _minters.remove(account) */\n      swap2\n      swap1\n      0xffffffff\n      and\n      jump\t// in\n    tag_239:\n        /* \"https://github.com/OpenZeppelin/openzeppelin-contracts/blob/v2.5.0/contracts/access/roles/MinterRole.sol\":1023:1030  account */\n      dup1\n        /* \"https://github.com/OpenZeppelin/openzeppelin-contracts/blob/v2.5.0/contracts/access/roles/MinterRole.sol\":1009:1031  MinterRemoved(account) */\n      0xffffffffffffffffffffffffffffffffffffffff\n      and\n      0xe94479a9f7e1952cc78f2d6baab678adc1b772d936c6583def489e524cb66692\n      mload(0x40)\n      mload(0x40)\n      dup1\n      swap2\n      sub\n      swap1\n      log2\n        /* \"https://github.com/OpenZeppelin/openzeppelin-contracts/blob/v2.5.0/contracts/access/roles/MinterRole.sol\":911:1038  function _removeMinter(address account) internal {... */\n      pop\n      jump\t// out\n        /* \"https://github.com/OpenZeppelin/openzeppelin-contracts/blob/v2.5.0/contracts/access/Roles.sol\":779:979  function has(Role storage role, address account) internal view returns (bool) {... */\n    tag_206:\n        /* \"https://github.com/OpenZeppelin/openzeppelin-contracts/blob/v2.5.0/contracts/access/Roles.sol\":851:855  bool */\n      0x00\n        /* \"https://github.com/OpenZeppelin/openzeppelin-contracts/blob/v2.5.0/contracts/access/Roles.sol\":894:895  0 */\n      dup1\n        /* \"https://github.com/OpenZeppelin/openzeppelin-contracts/blob/v2.5.0/contracts/access/Roles.sol\":875:896  account != address(0) */\n      0xffffffffffffffffffffffffffffffffffffffff\n      and\n        /* \"https://github.com/OpenZeppelin/openzeppelin-contracts/blob/v2.5.0/contracts/access/Roles.sol\":875:882  account */\n      dup3\n        /* \"https://github.com/OpenZeppelin/openzeppelin-contracts/blob/v2.5.0/contracts/access/Roles.sol\":875:896  account != address(0) */\n      0xffffffffffffffffffffffffffffffffffffffff\n      and\n      eq\n      iszero\n        /* \"https://github.com/OpenZeppelin/openzeppelin-contracts/blob/v2.5.0/contracts/access/Roles.sol\":867:935  require(account != address(0), \"Roles: account is the zero address\") */\n      iszero\n      iszero\n      tag_242\n      jumpi\n      mload(0x40)\n      0x08c379a000000000000000000000000000000000000000000000000000000000\n      dup2\n      mstore\n      0x04\n      add\n      dup1\n      dup1\n      0x20\n      add\n      dup3\n      dup2\n      sub\n      dup3\n      mstore\n      0x22\n      dup2\n      mstore\n      0x20\n      add\n      dup1\n      data_9d214fa89563f4e6456a3929327e54500ea1cde2c0ba9fb2035ec106190d682f\n      0x22\n      swap2\n      codecopy\n      0x40\n      add\n      swap2\n      pop\n      pop\n      mload(0x40)\n      dup1\n      swap2\n      sub\n      swap1\n      revert\n    tag_242:\n        /* \"https://github.com/OpenZeppelin/openzeppelin-contracts/blob/v2.5.0/contracts/access/Roles.sol\":952:956  role */\n      dup3\n        /* \"https://github.com/OpenZeppelin/openzeppelin-contracts/blob/v2.5.0/contracts/access/Roles.sol\":952:963  role.bearer */\n      0x00\n      add\n        /* \"https://github.com/OpenZeppelin/openzeppelin-contracts/blob/v2.5.0/contracts/access/Roles.sol\":952:972  role.bearer[account] */\n      0x00\n        /* \"https://github.com/OpenZeppelin/openzeppelin-contracts/blob/v2.5.0/contracts/access/Roles.sol\":964:971  account */\n      dup4\n        /* \"https://github.com/OpenZeppelin/openzeppelin-contracts/blob/v2.5.0/contracts/access/Roles.sol\":952:972  role.bearer[account] */\n      0xffffffffffffffffffffffffffffffffffffffff\n      and\n      0xffffffffffffffffffffffffffffffffffffffff\n      and\n      dup2\n      mstore\n      0x20\n      add\n      swap1\n      dup2\n      mstore\n      0x20\n      add\n      0x00\n      keccak256\n      0x00\n      swap1\n      sload\n      swap1\n      0x0100\n      exp\n      swap1\n      div\n      0xff\n      and\n        /* \"https://github.com/OpenZeppelin/openzeppelin-contracts/blob/v2.5.0/contracts/access/Roles.sol\":945:972  return role.bearer[account] */\n      swap1\n      pop\n        /* \"https://github.com/OpenZeppelin/openzeppelin-contracts/blob/v2.5.0/contracts/access/Roles.sol\":779:979  function has(Role storage role, address account) internal view returns (bool) {... */\n      swap3\n      swap2\n      pop\n      pop\n      jump\t// out\n        /* \"https://github.com/OpenZeppelin/openzeppelin-contracts/blob/v2.5.0/contracts/ownership/Ownable.sol\":2178:2403  function _transferOwnership(address newOwner) internal {... */\n    tag_213:\n        /* \"https://github.com/OpenZeppelin/openzeppelin-contracts/blob/v2.5.0/contracts/ownership/Ownable.sol\":2271:2272  0 */\n      0x00\n        /* \"https://github.com/OpenZeppelin/openzeppelin-contracts/blob/v2.5.0/contracts/ownership/Ownable.sol\":2251:2273  newOwner != address(0) */\n      0xffffffffffffffffffffffffffffffffffffffff\n      and\n        /* \"https://github.com/OpenZeppelin/openzeppelin-contracts/blob/v2.5.0/contracts/ownership/Ownable.sol\":2251:2259  newOwner */\n      dup2\n        /* \"https://github.com/OpenZeppelin/openzeppelin-contracts/blob/v2.5.0/contracts/ownership/Ownable.sol\":2251:2273  newOwner != address(0) */\n      0xffffffffffffffffffffffffffffffffffffffff\n      and\n      eq\n      iszero\n        /* \"https://github.com/OpenZeppelin/openzeppelin-contracts/blob/v2.5.0/contracts/ownership/Ownable.sol\":2243:2316  require(newOwner != address(0), \"Ownable: new owner is the zero address\") */\n      iszero\n      iszero\n      tag_244\n      jumpi\n      mload(0x40)\n      0x08c379a000000000000000000000000000000000000000000000000000000000\n      dup2\n      mstore\n      0x04\n      add\n      dup1\n      dup1\n      0x20\n      add\n      dup3\n      dup2\n      sub\n      dup3\n      mstore\n      0x26\n      dup2\n      mstore\n      0x20\n      add\n      dup1\n      data_245f15ff17f551913a7a18385165551503906a406f905ac1c2437281a7cd0cfe\n      0x26\n      swap2\n      codecopy\n      0x40\n      add\n      swap2\n      pop\n      pop\n      mload(0x40)\n      dup1\n      swap2\n      sub\n      swap1\n      revert\n    tag_244:\n        /* \"https://github.com/OpenZeppelin/openzeppelin-contracts/blob/v2.5.0/contracts/ownership/Ownable.sol\":2360:2368  newOwner */\n      dup1\n        /* \"https://github.com/OpenZeppelin/openzeppelin-contracts/blob/v2.5.0/contracts/ownership/Ownable.sol\":2331:2369  OwnershipTransferred(_owner, newOwner) */\n      0xffffffffffffffffffffffffffffffffffffffff\n      and\n        /* \"https://github.com/OpenZeppelin/openzeppelin-contracts/blob/v2.5.0/contracts/ownership/Ownable.sol\":2352:2358  _owner */\n      0x07\n      0x00\n      swap1\n      sload\n      swap1\n      0x0100\n      exp\n      swap1\n      div\n      0xffffffffffffffffffffffffffffffffffffffff\n      and\n        /* \"https://github.com/OpenZeppelin/openzeppelin-contracts/blob/v2.5.0/contracts/ownership/Ownable.sol\":2331:2369  OwnershipTransferred(_owner, newOwner) */\n      0xffffffffffffffffffffffffffffffffffffffff\n      and\n      0x8be0079c531659141344cd1fd0a4f28419497f9722a3daafe3b4186f6b6457e0\n      mload(0x40)\n      mload(0x40)\n      dup1\n      swap2\n      sub\n      swap1\n      log3\n        /* \"https://github.com/OpenZeppelin/openzeppelin-contracts/blob/v2.5.0/contracts/ownership/Ownable.sol\":2388:2396  newOwner */\n      dup1\n        /* \"https://github.com/OpenZeppelin/openzeppelin-contracts/blob/v2.5.0/contracts/ownership/Ownable.sol\":2379:2385  _owner */\n      0x07\n      0x00\n        /* \"https://github.com/OpenZeppelin/openzeppelin-contracts/blob/v2.5.0/contracts/ownership/Ownable.sol\":2379:2396  _owner = newOwner */\n      0x0100\n      exp\n      dup2\n      sload\n      dup2\n      0xffffffffffffffffffffffffffffffffffffffff\n      mul\n      not\n      and\n      swap1\n      dup4\n      0xffffffffffffffffffffffffffffffffffffffff\n      and\n      mul\n      or\n      swap1\n      sstore\n      pop\n        /* \"https://github.com/OpenZeppelin/openzeppelin-contracts/blob/v2.5.0/contracts/ownership/Ownable.sol\":2178:2403  function _transferOwnership(address newOwner) internal {... */\n      pop\n      jump\t// out\n        /* \"https://github.com/OpenZeppelin/openzeppelin-contracts/blob/v2.5.0/contracts/access/Roles.sol\":260:435  function add(Role storage role, address account) internal {... */\n    tag_237:\n        /* \"https://github.com/OpenZeppelin/openzeppelin-contracts/blob/v2.5.0/contracts/access/Roles.sol\":337:355  has(role, account) */\n      tag_246\n        /* \"https://github.com/OpenZeppelin/openzeppelin-contracts/blob/v2.5.0/contracts/access/Roles.sol\":341:345  role */\n      dup3\n        /* \"https://github.com/OpenZeppelin/openzeppelin-contracts/blob/v2.5.0/contracts/access/Roles.sol\":347:354  account */\n      dup3\n        /* \"https://github.com/OpenZeppelin/openzeppelin-contracts/blob/v2.5.0/contracts/access/Roles.sol\":337:340  has */\n      tag_206\n        /* \"https://github.com/OpenZeppelin/openzeppelin-contracts/blob/v2.5.0/contracts/access/Roles.sol\":337:355  has(role, account) */\n      jump\t// in\n    tag_246:\n        /* \"https://github.com/OpenZeppelin/openzeppelin-contracts/blob/v2.5.0/contracts/access/Roles.sol\":336:355  !has(role, account) */\n      iszero\n        /* \"https://github.com/OpenZeppelin/openzeppelin-contracts/blob/v2.5.0/contracts/access/Roles.sol\":328:391  require(!has(role, account), \"Roles: account already has role\") */\n      iszero\n      iszero\n      tag_247\n      jumpi\n      mload(0x40)\n      0x08c379a000000000000000000000000000000000000000000000000000000000\n      dup2\n      mstore\n      0x04\n      add\n      dup1\n      dup1\n      0x20\n      add\n      dup3\n      dup2\n      sub\n      dup3\n      mstore\n      0x1f\n      dup2\n      mstore\n      0x20\n      add\n      dup1\n      0x526f6c65733a206163636f756e7420616c72656164792068617320726f6c6500\n      dup2\n      mstore\n      pop\n      0x20\n      add\n      swap2\n      pop\n      pop\n      mload(0x40)\n      dup1\n      swap2\n      sub\n      swap1\n      revert\n    tag_247:\n        /* \"https://github.com/OpenZeppelin/openzeppelin-contracts/blob/v2.5.0/contracts/access/Roles.sol\":424:428  true */\n      0x01\n        /* \"https://github.com/OpenZeppelin/openzeppelin-contracts/blob/v2.5.0/contracts/access/Roles.sol\":401:405  role */\n      dup3\n        /* \"https://github.com/OpenZeppelin/openzeppelin-contracts/blob/v2.5.0/contracts/access/Roles.sol\":401:412  role.bearer */\n      0x00\n      add\n        /* \"https://github.com/OpenZeppelin/openzeppelin-contracts/blob/v2.5.0/contracts/access/Roles.sol\":401:421  role.bearer[account] */\n      0x00\n        /* \"https://github.com/OpenZeppelin/openzeppelin-contracts/blob/v2.5.0/contracts/access/Roles.sol\":413:420  account */\n      dup4\n        /* \"https://github.com/OpenZeppelin/openzeppelin-contracts/blob/v2.5.0/contracts/access/Roles.sol\":401:421  role.bearer[account] */\n      0xffffffffffffffffffffffffffffffffffffffff\n      and\n      0xffffffffffffffffffffffffffffffffffffffff\n      and\n      dup2\n      mstore\n      0x20\n      add\n      swap1\n      dup2\n      mstore\n      0x20\n      add\n      0x00\n      keccak256\n      0x00\n        /* \"https://github.com/OpenZeppelin/openzeppelin-contracts/blob/v2.5.0/contracts/access/Roles.sol\":401:428  role.bearer[account] = true */\n      0x0100\n      exp\n      dup2\n      sload\n      dup2\n      0xff\n      mul\n      not\n      and\n      swap1\n      dup4\n      iszero\n      iszero\n      mul\n      or\n      swap1\n      sstore\n      pop\n        /* \"https://github.com/OpenZeppelin/openzeppelin-contracts/blob/v2.5.0/contracts/access/Roles.sol\":260:435  function add(Role storage role, address account) internal {... */\n      pop\n      pop\n      jump\t// out\n        /* \"https://github.com/OpenZeppelin/openzeppelin-contracts/blob/v2.5.0/contracts/access/Roles.sol\":510:690  function remove(Role storage role, address account) internal {... */\n    tag_240:\n        /* \"https://github.com/OpenZeppelin/openzeppelin-contracts/blob/v2.5.0/contracts/access/Roles.sol\":589:607  has(role, account) */\n      tag_249\n        /* \"https://github.com/OpenZeppelin/openzeppelin-contracts/blob/v2.5.0/contracts/access/Roles.sol\":593:597  role */\n      dup3\n        /* \"https://github.com/OpenZeppelin/openzeppelin-contracts/blob/v2.5.0/contracts/access/Roles.sol\":599:606  account */\n      dup3\n        /* \"https://github.com/OpenZeppelin/openzeppelin-contracts/blob/v2.5.0/contracts/access/Roles.sol\":589:592  has */\n      tag_206\n        /* \"https://github.com/OpenZeppelin/openzeppelin-contracts/blob/v2.5.0/contracts/access/Roles.sol\":589:607  has(role, account) */\n      jump\t// in\n    tag_249:\n        /* \"https://github.com/OpenZeppelin/openzeppelin-contracts/blob/v2.5.0/contracts/access/Roles.sol\":581:645  require(has(role, account), \"Roles: account does not have role\") */\n      iszero\n      iszero\n      tag_250\n      jumpi\n      mload(0x40)\n      0x08c379a000000000000000000000000000000000000000000000000000000000\n      dup2\n      mstore\n      0x04\n      add\n      dup1\n      dup1\n      0x20\n      add\n      dup3\n      dup2\n      sub\n      dup3\n      mstore\n      0x21\n      dup2\n      mstore\n      0x20\n      add\n      dup1\n      data_7bd893145ac435f339bb7c288622d270324b7033b011f693aca172f5cbc3c257\n      0x21\n      swap2\n      codecopy\n      0x40\n      add\n      swap2\n      pop\n      pop\n      mload(0x40)\n      dup1\n      swap2\n      sub\n      swap1\n      revert\n    tag_250:\n        /* \"https://github.com/OpenZeppelin/openzeppelin-contracts/blob/v2.5.0/contracts/access/Roles.sol\":678:683  false */\n      0x00\n        /* \"https://github.com/OpenZeppelin/openzeppelin-contracts/blob/v2.5.0/contracts/access/Roles.sol\":655:659  role */\n      dup3\n        /* \"https://github.com/OpenZeppelin/openzeppelin-contracts/blob/v2.5.0/contracts/access/Roles.sol\":655:666  role.bearer */\n      0x00\n      add\n        /* \"https://github.com/OpenZeppelin/openzeppelin-contracts/blob/v2.5.0/contracts/access/Roles.sol\":655:675  role.bearer[account] */\n      0x00\n        /* \"https://github.com/OpenZeppelin/openzeppelin-contracts/blob/v2.5.0/contracts/access/Roles.sol\":667:674  account */\n      dup4\n        /* \"https://github.com/OpenZeppelin/openzeppelin-contracts/blob/v2.5.0/contracts/access/Roles.sol\":655:675  role.bearer[account] */\n      0xffffffffffffffffffffffffffffffffffffffff\n      and\n      0xffffffffffffffffffffffffffffffffffffffff\n      and\n      dup2\n      mstore\n      0x20\n      add\n      swap1\n      dup2\n      mstore\n      0x20\n      add\n      0x00\n      keccak256\n      0x00\n        /* \"https://github.com/OpenZeppelin/openzeppelin-contracts/blob/v2.5.0/contracts/access/Roles.sol\":655:683  role.bearer[account] = false */\n      0x0100\n      exp\n      dup2\n      sload\n      dup2\n      0xff\n      mul\n      not\n      and\n      swap1\n      dup4\n      iszero\n      iszero\n      mul\n      or\n      swap1\n      sstore\n      pop\n        /* \"https://github.com/OpenZeppelin/openzeppelin-contracts/blob/v2.5.0/contracts/access/Roles.sol\":510:690  function remove(Role storage role, address account) internal {... */\n      pop\n      pop\n      jump\t// out\n    stop\n    data_0557e210f7a69a685100a7e4e3d0a7024c546085cee28910fd17d0b081d9516f 45524332303a207472616e7366657220746f20746865207a65726f2061646472657373\n    data_2183296cf64ac3acf3a881b4acbaf8a2fa5fe478b9f569705d681f85553fcb86 4e6f7420656e6f756768204554482073656e7420746f20707572636861736520746f6b656e73\n    data_245f15ff17f551913a7a18385165551503906a406f905ac1c2437281a7cd0cfe 4f776e61626c653a206e6577206f776e657220697320746865207a65726f2061646472657373\n    data_24883cc5fe64ace9d0df1893501ecb93c77180f0ff69cca79affb3c316dc8029 45524332303a20617070726f766520746f20746865207a65726f2061646472657373\n    data_4107e8a8b9e94bf8ff83080ddec1c0bffe897ebc2241b89d44f66b3d274088b6 45524332303a207472616e7366657220616d6f756e7420657863656564732062616c616e6365\n    data_5f79ae6cdcc31a95043767d5021f02d46552c2ffa16545542a25adc58021da9f 5472616e7366657220616d6f756e74206d7573742062652067726561746572207468616e20302e\n    data_79ecb50133735b20228dea9d08fe36a462bbc1350f591a146908848db91104cd 4d696e746572526f6c653a2063616c6c657220646f6573206e6f74206861766520746865204d696e74657220726f6c65\n    data_7bd893145ac435f339bb7c288622d270324b7033b011f693aca172f5cbc3c257 526f6c65733a206163636f756e7420646f6573206e6f74206861766520726f6c65\n    data_974d1b4421da69cc60b481194f0dad36a5bb4e23da810da7a7fb30cdba178330 45524332303a207472616e7366657220616d6f756e74206578636565647320616c6c6f77616e6365\n    data_9d214fa89563f4e6456a3929327e54500ea1cde2c0ba9fb2035ec106190d682f 526f6c65733a206163636f756e7420697320746865207a65726f2061646472657373\n    data_baecc556b46f4ed0f2b4cb599d60785ac8563dd2dc0a5bf12edea1c39e5e1fea 45524332303a207472616e736665722066726f6d20746865207a65726f2061646472657373\n    data_c953f4879035ed60e766b34720f656aab5c697b141d924c283124ecedb91c208 45524332303a20617070726f76652066726f6d20746865207a65726f2061646472657373\n    data_e8585dec71adeaa9a1c0b9f087b67e38c4a931b5614c2b01fd1eddaa20f21450 53656e6465722063616e6e6f74207472616e7366657220746f6b656e7320746f207468656d73656c7665732e\n    data_ea22d25b0d6ba9626551ef6a7cf4df9a691a3365c54334b320952b4c1a2b7115 53656e64657220646f6573206e6f74206861766520656e6f75676820746f6b656e7320746f207472616e736665722e\n    data_f8b476f7d28209d77d4a4ac1fe36b9f8259aa1bb6bddfa6e89de7e51615cf8a8 45524332303a2064656372656173656420616c6c6f77616e63652062656c6f77207a65726f\n\n    auxdata: 0xa165627a7a723058201863be9300cb4b9fc2cf5c34d017e8efb0354c7b36596a735fb1598fec245b900029\n}\n",
				"bytecode": {
					"linkReferences": {},
					"object": "60806040523480156200001157600080fd5b5060405160408062002c3d833981018060405260408110156200003357600080fd5b8101908080519060200190929190805190602001909291905050506040518060400160405280600e81526020017f4f776e657273686970546f6b656e0000000000000000000000000000000000008152506040518060400160405280600381526020017f4f574e000000000000000000000000000000000000000000000000000000000081525060028260039080519060200190620000d49291906200070d565b508160049080519060200190620000ed9291906200070d565b5080600560006101000a81548160ff021916908360ff1602179055505050506200012c620001206200026e60201b60201c565b6200027660201b60201c565b60006200013e6200026e60201b60201c565b905080600760006101000a81548173ffffffffffffffffffffffffffffffffffffffff021916908373ffffffffffffffffffffffffffffffffffffffff1602179055508073ffffffffffffffffffffffffffffffffffffffff16600073ffffffffffffffffffffffffffffffffffffffff167f8be0079c531659141344cd1fd0a4f28419497f9722a3daafe3b4186f6b6457e060405160405180910390a3508160088190555080600981905550620002153362000200620002d760201b60201c565b60ff16600a0a606402620002ee60201b60201c565b6064828115156200022257fe5b04600a60003373ffffffffffffffffffffffffffffffffffffffff1673ffffffffffffffffffffffffffffffffffffffff168152602001908152602001600020819055505050620007bc565b600033905090565b62000291816006620004ba60201b620020451790919060201c565b8073ffffffffffffffffffffffffffffffffffffffff167f6ae172837ea30b801fbfcdd4108aa1d5bf8ff775444fd70256b44e6bf3dfc3f660405160405180910390a250565b6000600560009054906101000a900460ff16905090565b600073ffffffffffffffffffffffffffffffffffffffff168273ffffffffffffffffffffffffffffffffffffffff161415151562000394576040517f08c379a000000000000000000000000000000000000000000000000000000000815260040180806020018281038252601f8152602001807f45524332303a206d696e7420746f20746865207a65726f20616464726573730081525060200191505060405180910390fd5b620003b081600254620005a060201b62001cdf1790919060201c565b6002819055506200040e816000808573ffffffffffffffffffffffffffffffffffffffff1673ffffffffffffffffffffffffffffffffffffffff16815260200190815260200160002054620005a060201b62001cdf1790919060201c565b6000808473ffffffffffffffffffffffffffffffffffffffff1673ffffffffffffffffffffffffffffffffffffffff168152602001908152602001600020819055508173ffffffffffffffffffffffffffffffffffffffff16600073ffffffffffffffffffffffffffffffffffffffff167fddf252ad1be2c89b69c2b068fc378daa952ba7f163c4a11628f55a4df523b3ef836040518082815260200191505060405180910390a35050565b620004cc82826200062b60201b60201c565b15151562000542576040517f08c379a000000000000000000000000000000000000000000000000000000000815260040180806020018281038252601f8152602001807f526f6c65733a206163636f756e7420616c72656164792068617320726f6c650081525060200191505060405180910390fd5b60018260000160008373ffffffffffffffffffffffffffffffffffffffff1673ffffffffffffffffffffffffffffffffffffffff16815260200190815260200160002060006101000a81548160ff0219169083151502179055505050565b600080828401905083811015151562000621576040517f08c379a000000000000000000000000000000000000000000000000000000000815260040180806020018281038252601b8152602001807f536166654d6174683a206164646974696f6e206f766572666c6f77000000000081525060200191505060405180910390fd5b8091505092915050565b60008073ffffffffffffffffffffffffffffffffffffffff168273ffffffffffffffffffffffffffffffffffffffff1614151515620006b6576040517f08c379a000000000000000000000000000000000000000000000000000000000815260040180806020018281038252602281526020018062002c1b6022913960400191505060405180910390fd5b8260000160008373ffffffffffffffffffffffffffffffffffffffff1673ffffffffffffffffffffffffffffffffffffffff16815260200190815260200160002060009054906101000a900460ff16905092915050565b828054600181600116156101000203166002900490600052602060002090601f016020900481019282601f106200075057805160ff191683800117855562000781565b8280016001018555821562000781579182015b828111156200078057825182559160200191906001019062000763565b5b50905062000790919062000794565b5090565b620007b991905b80821115620007b55760008160009055506001016200079b565b5090565b90565b61244f80620007cc6000396000f3fe6080604052600436106101665760003560e01c8063715018a6116100d1578063986502751161008a578063aa271e1a11610064578063aa271e1a14610823578063dd62ed3e1461088c578063f2fde38b14610911578063f3a5303e1461096257610166565b80639865027514610726578063a457c2d71461073d578063a9059cbb146107b057610166565b8063715018a61461057d578063883400e6146105945780638da5cb5b146105bf5780638f32d59b1461061657806395d89b4114610645578063983b2d56146106d557610166565b8063313ce56711610123578063313ce567146103925780633290ce29146103c357806332a4031b146103cd578063395093511461043257806340c10f19146104a557806370a082311461051857610166565b80630514ae7b1461016b57806306fdde03146101a657806306ffce5314610236578063095ea7b31461026157806318160ddd146102d457806323b872dd146102ff575b600080fd5b34801561017757600080fd5b506101a46004803603602081101561018e57600080fd5b810190808035906020019092919050505061098d565b005b3480156101b257600080fd5b506101bb610a13565b6040518080602001828103825283818151815260200191508051906020019080838360005b838110156101fb5780820151818401526020810190506101e0565b50505050905090810190601f1680156102285780820380516001836020036101000a031916815260200191505b509250505060405180910390f35b34801561024257600080fd5b5061024b610ab5565b6040518082815260200191505060405180910390f35b34801561026d57600080fd5b506102ba6004803603604081101561028457600080fd5b81019080803573ffffffffffffffffffffffffffffffffffffffff16906020019092919080359060200190929190505050610acb565b604051808215151515815260200191505060405180910390f35b3480156102e057600080fd5b506102e9610ae9565b6040518082815260200191505060405180910390f35b34801561030b57600080fd5b506103786004803603606081101561032257600080fd5b81019080803573ffffffffffffffffffffffffffffffffffffffff169060200190929190803573ffffffffffffffffffffffffffffffffffffffff16906020019092919080359060200190929190505050610af3565b604051808215151515815260200191505060405180910390f35b34801561039e57600080fd5b506103a7610bcc565b604051808260ff1660ff16815260200191505060405180910390f35b6103cb610be3565b005b3480156103d957600080fd5b5061041c600480360360208110156103f057600080fd5b81019080803573ffffffffffffffffffffffffffffffffffffffff169060200190929190505050610cac565b6040518082815260200191505060405180910390f35b34801561043e57600080fd5b5061048b6004803603604081101561045557600080fd5b81019080803573ffffffffffffffffffffffffffffffffffffffff16906020019092919080359060200190929190505050610cf5565b604051808215151515815260200191505060405180910390f35b3480156104b157600080fd5b506104fe600480360360408110156104c857600080fd5b81019080803573ffffffffffffffffffffffffffffffffffffffff16906020019092919080359060200190929190505050610da8565b604051808215151515815260200191505060405180910390f35b34801561052457600080fd5b506105676004803603602081101561053b57600080fd5b81019080803573ffffffffffffffffffffffffffffffffffffffff169060200190929190505050610e25565b6040518082815260200191505060405180910390f35b34801561058957600080fd5b50610592610e6d565b005b3480156105a057600080fd5b506105a9610faa565b6040518082815260200191505060405180910390f35b3480156105cb57600080fd5b506105d4610fb0565b604051808273ffffffffffffffffffffffffffffffffffffffff1673ffffffffffffffffffffffffffffffffffffffff16815260200191505060405180910390f35b34801561062257600080fd5b5061062b610fda565b604051808215151515815260200191505060405180910390f35b34801561065157600080fd5b5061065a611039565b6040518080602001828103825283818151815260200191508051906020019080838360005b8381101561069a57808201518184015260208101905061067f565b50505050905090810190601f1680156106c75780820380516001836020036101000a031916815260200191505b509250505060405180910390f35b3480156106e157600080fd5b50610724600480360360208110156106f857600080fd5b81019080803573ffffffffffffffffffffffffffffffffffffffff1690602001909291905050506110db565b005b34801561073257600080fd5b5061073b61114e565b005b34801561074957600080fd5b506107966004803603604081101561076057600080fd5b81019080803573ffffffffffffffffffffffffffffffffffffffff16906020019092919080359060200190929190505050611160565b604051808215151515815260200191505060405180910390f35b3480156107bc57600080fd5b50610809600480360360408110156107d357600080fd5b81019080803573ffffffffffffffffffffffffffffffffffffffff1690602001909291908035906020019092919050505061122d565b604051808215151515815260200191505060405180910390f35b34801561082f57600080fd5b506108726004803603602081101561084657600080fd5b81019080803573ffffffffffffffffffffffffffffffffffffffff169060200190929190505050611471565b604051808215151515815260200191505060405180910390f35b34801561089857600080fd5b506108fb600480360360408110156108af57600080fd5b81019080803573ffffffffffffffffffffffffffffffffffffffff169060200190929190803573ffffffffffffffffffffffffffffffffffffffff16906020019092919050505061148e565b6040518082815260200191505060405180910390f35b34801561091d57600080fd5b506109606004803603602081101561093457600080fd5b81019080803573ffffffffffffffffffffffffffffffffffffffff169060200190929190505050611515565b005b34801561096e57600080fd5b5061097761159d565b6040518082815260200191505060405180910390f35b610995610fda565b1515610a09576040517f08c379a00000000000000000000000000000000000000000000000000000000081526004018080602001828103825260208152602001807f4f776e61626c653a2063616c6c6572206973206e6f7420746865206f776e657281525060200191505060405180910390fd5b8060098190555050565b606060038054600181600116156101000203166002900480601f016020809104026020016040519081016040528092919081815260200182805460018160011615610100020316600290048015610aab5780601f10610a8057610100808354040283529160200191610aab565b820191906000526020600020905b815481529060010190602001808311610a8e57829003601f168201915b5050505050905090565b60006064600954811515610ac557fe5b04905090565b6000610adf610ad86115a3565b84846115ab565b6001905092915050565b6000600254905090565b6000610b008484846117a6565b610bc184610b0c6115a3565b610bbc8560405180606001604052806028815260200161231160289139600160008b73ffffffffffffffffffffffffffffffffffffffff1673ffffffffffffffffffffffffffffffffffffffff1681526020019081526020016000206000610b726115a3565b73ffffffffffffffffffffffffffffffffffffffff1673ffffffffffffffffffffffffffffffffffffffff16815260200190815260200160002054611a609092919063ffffffff16565b6115ab565b600190509392505050565b6000600560009054906101000a900460ff16905090565b6000610bed610ab5565b905060008134811515610bfc57fe5b049050600081111515610c5a576040517f08c379a00000000000000000000000000000000000000000000000000000000081526004018080602001828103825260268152602001806122056026913960400191505060405180910390fd5b610c643382611b22565b81600a60003373ffffffffffffffffffffffffffffffffffffffff1673ffffffffffffffffffffffffffffffffffffffff168152602001908152602001600020819055505050565b6000600a60008373ffffffffffffffffffffffffffffffffffffffff1673ffffffffffffffffffffffffffffffffffffffff168152602001908152602001600020549050919050565b6000610d9e610d026115a3565b84610d998560016000610d136115a3565b73ffffffffffffffffffffffffffffffffffffffff1673ffffffffffffffffffffffffffffffffffffffff16815260200190815260200160002060008973ffffffffffffffffffffffffffffffffffffffff1673ffffffffffffffffffffffffffffffffffffffff16815260200190815260200160002054611cdf90919063ffffffff16565b6115ab565b6001905092915050565b6000610dba610db56115a3565b611471565b1515610e11576040517f08c379a00000000000000000000000000000000000000000000000000000000081526004018080602001828103825260308152602001806122c06030913960400191505060405180910390fd5b610e1b8383611b22565b6001905092915050565b60008060008373ffffffffffffffffffffffffffffffffffffffff1673ffffffffffffffffffffffffffffffffffffffff168152602001908152602001600020549050919050565b610e75610fda565b1515610ee9576040517f08c379a00000000000000000000000000000000000000000000000000000000081526004018080602001828103825260208152602001807f4f776e61626c653a2063616c6c6572206973206e6f7420746865206f776e657281525060200191505060405180910390fd5b600073ffffffffffffffffffffffffffffffffffffffff16600760009054906101000a900473ffffffffffffffffffffffffffffffffffffffff1673ffffffffffffffffffffffffffffffffffffffff167f8be0079c531659141344cd1fd0a4f28419497f9722a3daafe3b4186f6b6457e060405160405180910390a36000600760006101000a81548173ffffffffffffffffffffffffffffffffffffffff021916908373ffffffffffffffffffffffffffffffffffffffff160217905550565b60095481565b6000600760009054906101000a900473ffffffffffffffffffffffffffffffffffffffff16905090565b6000600760009054906101000a900473ffffffffffffffffffffffffffffffffffffffff1673ffffffffffffffffffffffffffffffffffffffff1661101d6115a3565b73ffffffffffffffffffffffffffffffffffffffff1614905090565b606060048054600181600116156101000203166002900480601f0160208091040260200160405190810160405280929190818152602001828054600181600116156101000203166002900480156110d15780601f106110a6576101008083540402835291602001916110d1565b820191906000526020600020905b8154815290600101906020018083116110b457829003601f168201915b5050505050905090565b6110eb6110e66115a3565b611471565b1515611142576040517f08c379a00000000000000000000000000000000000000000000000000000000081526004018080602001828103825260308152602001806122c06030913960400191505060405180910390fd5b61114b81611d69565b50565b61115e6111596115a3565b611dc3565b565b600061122361116d6115a3565b8461121e856040518060600160405280602581526020016123ff60259139600160006111976115a3565b73ffffffffffffffffffffffffffffffffffffffff1673ffffffffffffffffffffffffffffffffffffffff16815260200190815260200160002060008a73ffffffffffffffffffffffffffffffffffffffff1673ffffffffffffffffffffffffffffffffffffffff16815260200190815260200160002054611a609092919063ffffffff16565b6115ab565b6001905092915050565b60003373ffffffffffffffffffffffffffffffffffffffff168373ffffffffffffffffffffffffffffffffffffffff16141515156112b6576040517f08c379a000000000000000000000000000000000000000000000000000000000815260040180806020018281038252602c8152602001806123a4602c913960400191505060405180910390fd5b600082111515611311576040517f08c379a00000000000000000000000000000000000000000000000000000000081526004018080602001828103825260278152602001806122996027913960400191505060405180910390fd5b8161131b33610e25565b10151515611374576040517f08c379a000000000000000000000000000000000000000000000000000000000815260040180806020018281038252602f8152602001806123d0602f913960400191505060405180910390fd5b61137f3384846117a6565b600a60003373ffffffffffffffffffffffffffffffffffffffff1673ffffffffffffffffffffffffffffffffffffffff16815260200190815260200160002054600a60008573ffffffffffffffffffffffffffffffffffffffff1673ffffffffffffffffffffffffffffffffffffffff168152602001908152602001600020819055508273ffffffffffffffffffffffffffffffffffffffff163373ffffffffffffffffffffffffffffffffffffffff167fddf252ad1be2c89b69c2b068fc378daa952ba7f163c4a11628f55a4df523b3ef846040518082815260200191505060405180910390a36001905092915050565b6000611487826006611e1d90919063ffffffff16565b9050919050565b6000600160008473ffffffffffffffffffffffffffffffffffffffff1673ffffffffffffffffffffffffffffffffffffffff16815260200190815260200160002060008373ffffffffffffffffffffffffffffffffffffffff1673ffffffffffffffffffffffffffffffffffffffff16815260200190815260200160002054905092915050565b61151d610fda565b1515611591576040517f08c379a00000000000000000000000000000000000000000000000000000000081526004018080602001828103825260208152602001807f4f776e61626c653a2063616c6c6572206973206e6f7420746865206f776e657281525060200191505060405180910390fd5b61159a81611efd565b50565b60085481565b600033905090565b600073ffffffffffffffffffffffffffffffffffffffff168373ffffffffffffffffffffffffffffffffffffffff1614151515611633576040517f08c379a00000000000000000000000000000000000000000000000000000000081526004018080602001828103825260248152602001806123806024913960400191505060405180910390fd5b600073ffffffffffffffffffffffffffffffffffffffff168273ffffffffffffffffffffffffffffffffffffffff16141515156116bb576040517f08c379a00000000000000000000000000000000000000000000000000000000081526004018080602001828103825260228152602001806122516022913960400191505060405180910390fd5b80600160008573ffffffffffffffffffffffffffffffffffffffff1673ffffffffffffffffffffffffffffffffffffffff16815260200190815260200160002060008473ffffffffffffffffffffffffffffffffffffffff1673ffffffffffffffffffffffffffffffffffffffff168152602001908152602001600020819055508173ffffffffffffffffffffffffffffffffffffffff168373ffffffffffffffffffffffffffffffffffffffff167f8c5be1e5ebec7d5bd14f71427d1e84f3dd0314c0f7b2291e5b200ac8c7c3b925836040518082815260200191505060405180910390a3505050565b600073ffffffffffffffffffffffffffffffffffffffff168373ffffffffffffffffffffffffffffffffffffffff161415151561182e576040517f08c379a000000000000000000000000000000000000000000000000000000000815260040180806020018281038252602581526020018061235b6025913960400191505060405180910390fd5b600073ffffffffffffffffffffffffffffffffffffffff168273ffffffffffffffffffffffffffffffffffffffff16141515156118b6576040517f08c379a00000000000000000000000000000000000000000000000000000000081526004018080602001828103825260238152602001806121e26023913960400191505060405180910390fd5b61192181604051806060016040528060268152602001612273602691396000808773ffffffffffffffffffffffffffffffffffffffff1673ffffffffffffffffffffffffffffffffffffffff16815260200190815260200160002054611a609092919063ffffffff16565b6000808573ffffffffffffffffffffffffffffffffffffffff1673ffffffffffffffffffffffffffffffffffffffff168152602001908152602001600020819055506119b4816000808573ffffffffffffffffffffffffffffffffffffffff1673ffffffffffffffffffffffffffffffffffffffff16815260200190815260200160002054611cdf90919063ffffffff16565b6000808473ffffffffffffffffffffffffffffffffffffffff1673ffffffffffffffffffffffffffffffffffffffff168152602001908152602001600020819055508173ffffffffffffffffffffffffffffffffffffffff168373ffffffffffffffffffffffffffffffffffffffff167fddf252ad1be2c89b69c2b068fc378daa952ba7f163c4a11628f55a4df523b3ef836040518082815260200191505060405180910390a3505050565b60008383111582901515611b0f576040517f08c379a00000000000000000000000000000000000000000000000000000000081526004018080602001828103825283818151815260200191508051906020019080838360005b83811015611ad4578082015181840152602081019050611ab9565b50505050905090810190601f168015611b015780820380516001836020036101000a031916815260200191505b509250505060405180910390fd5b5060008385039050809150509392505050565b600073ffffffffffffffffffffffffffffffffffffffff168273ffffffffffffffffffffffffffffffffffffffff1614151515611bc7576040517f08c379a000000000000000000000000000000000000000000000000000000000815260040180806020018281038252601f8152602001807f45524332303a206d696e7420746f20746865207a65726f20616464726573730081525060200191505060405180910390fd5b611bdc81600254611cdf90919063ffffffff16565b600281905550611c33816000808573ffffffffffffffffffffffffffffffffffffffff1673ffffffffffffffffffffffffffffffffffffffff16815260200190815260200160002054611cdf90919063ffffffff16565b6000808473ffffffffffffffffffffffffffffffffffffffff1673ffffffffffffffffffffffffffffffffffffffff168152602001908152602001600020819055508173ffffffffffffffffffffffffffffffffffffffff16600073ffffffffffffffffffffffffffffffffffffffff167fddf252ad1be2c89b69c2b068fc378daa952ba7f163c4a11628f55a4df523b3ef836040518082815260200191505060405180910390a35050565b6000808284019050838110151515611d5f576040517f08c379a000000000000000000000000000000000000000000000000000000000815260040180806020018281038252601b8152602001807f536166654d6174683a206164646974696f6e206f766572666c6f77000000000081525060200191505060405180910390fd5b8091505092915050565b611d7d81600661204590919063ffffffff16565b8073ffffffffffffffffffffffffffffffffffffffff167f6ae172837ea30b801fbfcdd4108aa1d5bf8ff775444fd70256b44e6bf3dfc3f660405160405180910390a250565b611dd781600661212290919063ffffffff16565b8073ffffffffffffffffffffffffffffffffffffffff167fe94479a9f7e1952cc78f2d6baab678adc1b772d936c6583def489e524cb6669260405160405180910390a250565b60008073ffffffffffffffffffffffffffffffffffffffff168273ffffffffffffffffffffffffffffffffffffffff1614151515611ea6576040517f08c379a00000000000000000000000000000000000000000000000000000000081526004018080602001828103825260228152602001806123396022913960400191505060405180910390fd5b8260000160008373ffffffffffffffffffffffffffffffffffffffff1673ffffffffffffffffffffffffffffffffffffffff16815260200190815260200160002060009054906101000a900460ff16905092915050565b600073ffffffffffffffffffffffffffffffffffffffff168173ffffffffffffffffffffffffffffffffffffffff1614151515611f85576040517f08c379a000000000000000000000000000000000000000000000000000000000815260040180806020018281038252602681526020018061222b6026913960400191505060405180910390fd5b8073ffffffffffffffffffffffffffffffffffffffff16600760009054906101000a900473ffffffffffffffffffffffffffffffffffffffff1673ffffffffffffffffffffffffffffffffffffffff167f8be0079c531659141344cd1fd0a4f28419497f9722a3daafe3b4186f6b6457e060405160405180910390a380600760006101000a81548173ffffffffffffffffffffffffffffffffffffffff021916908373ffffffffffffffffffffffffffffffffffffffff16021790555050565b61204f8282611e1d565b1515156120c4576040517f08c379a000000000000000000000000000000000000000000000000000000000815260040180806020018281038252601f8152602001807f526f6c65733a206163636f756e7420616c72656164792068617320726f6c650081525060200191505060405180910390fd5b60018260000160008373ffffffffffffffffffffffffffffffffffffffff1673ffffffffffffffffffffffffffffffffffffffff16815260200190815260200160002060006101000a81548160ff0219169083151502179055505050565b61212c8282611e1d565b1515612183576040517f08c379a00000000000000000000000000000000000000000000000000000000081526004018080602001828103825260218152602001806122f06021913960400191505060405180910390fd5b60008260000160008373ffffffffffffffffffffffffffffffffffffffff1673ffffffffffffffffffffffffffffffffffffffff16815260200190815260200160002060006101000a81548160ff021916908315150217905550505056fe45524332303a207472616e7366657220746f20746865207a65726f20616464726573734e6f7420656e6f756768204554482073656e7420746f20707572636861736520746f6b656e734f776e61626c653a206e6577206f776e657220697320746865207a65726f206164647265737345524332303a20617070726f766520746f20746865207a65726f206164647265737345524332303a207472616e7366657220616d6f756e7420657863656564732062616c616e63655472616e7366657220616d6f756e74206d7573742062652067726561746572207468616e20302e4d696e746572526f6c653a2063616c6c657220646f6573206e6f74206861766520746865204d696e74657220726f6c65526f6c65733a206163636f756e7420646f6573206e6f74206861766520726f6c6545524332303a207472616e7366657220616d6f756e74206578636565647320616c6c6f77616e6365526f6c65733a206163636f756e7420697320746865207a65726f206164647265737345524332303a207472616e736665722066726f6d20746865207a65726f206164647265737345524332303a20617070726f76652066726f6d20746865207a65726f206164647265737353656e6465722063616e6e6f74207472616e7366657220746f6b656e7320746f207468656d73656c7665732e53656e64657220646f6573206e6f74206861766520656e6f75676820746f6b656e7320746f207472616e736665722e45524332303a2064656372656173656420616c6c6f77616e63652062656c6f77207a65726fa165627a7a723058201863be9300cb4b9fc2cf5c34d017e8efb0354c7b36596a735fb1598fec245b900029526f6c65733a206163636f756e7420697320746865207a65726f2061646472657373",
					"opcodes": "PUSH1 0x80 PUSH1 0x40 MSTORE CALLVALUE DUP1 ISZERO PUSH3 0x11 JUMPI PUSH1 0x0 DUP1 REVERT JUMPDEST POP PUSH1 0x40 MLOAD PUSH1 0x40 DUP1 PUSH3 0x2C3D DUP4 CODECOPY DUP2 ADD DUP1 PUSH1 0x40 MSTORE PUSH1 0x40 DUP2 LT ISZERO PUSH3 0x33 JUMPI PUSH1 0x0 DUP1 REVERT JUMPDEST DUP2 ADD SWAP1 DUP1 DUP1 MLOAD SWAP1 PUSH1 0x20 ADD SWAP1 SWAP3 SWAP2 SWAP1 DUP1 MLOAD SWAP1 PUSH1 0x20 ADD SWAP1 SWAP3 SWAP2 SWAP1 POP POP POP PUSH1 0x40 MLOAD DUP1 PUSH1 0x40 ADD PUSH1 0x40 MSTORE DUP1 PUSH1 0xE DUP2 MSTORE PUSH1 0x20 ADD PUSH32 0x4F776E657273686970546F6B656E000000000000000000000000000000000000 DUP2 MSTORE POP PUSH1 0x40 MLOAD DUP1 PUSH1 0x40 ADD PUSH1 0x40 MSTORE DUP1 PUSH1 0x3 DUP2 MSTORE PUSH1 0x20 ADD PUSH32 0x4F574E0000000000000000000000000000000000000000000000000000000000 DUP2 MSTORE POP PUSH1 0x2 DUP3 PUSH1 0x3 SWAP1 DUP1 MLOAD SWAP1 PUSH1 0x20 ADD SWAP1 PUSH3 0xD4 SWAP3 SWAP2 SWAP1 PUSH3 0x70D JUMP JUMPDEST POP DUP2 PUSH1 0x4 SWAP1 DUP1 MLOAD SWAP1 PUSH1 0x20 ADD SWAP1 PUSH3 0xED SWAP3 SWAP2 SWAP1 PUSH3 0x70D JUMP JUMPDEST POP DUP1 PUSH1 0x5 PUSH1 0x0 PUSH2 0x100 EXP DUP2 SLOAD DUP2 PUSH1 0xFF MUL NOT AND SWAP1 DUP4 PUSH1 0xFF AND MUL OR SWAP1 SSTORE POP POP POP POP PUSH3 0x12C PUSH3 0x120 PUSH3 0x26E PUSH1 0x20 SHL PUSH1 0x20 SHR JUMP JUMPDEST PUSH3 0x276 PUSH1 0x20 SHL PUSH1 0x20 SHR JUMP JUMPDEST PUSH1 0x0 PUSH3 0x13E PUSH3 0x26E PUSH1 0x20 SHL PUSH1 0x20 SHR JUMP JUMPDEST SWAP1 POP DUP1 PUSH1 0x7 PUSH1 0x0 PUSH2 0x100 EXP DUP2 SLOAD DUP2 PUSH20 0xFFFFFFFFFFFFFFFFFFFFFFFFFFFFFFFFFFFFFFFF MUL NOT AND SWAP1 DUP4 PUSH20 0xFFFFFFFFFFFFFFFFFFFFFFFFFFFFFFFFFFFFFFFF AND MUL OR SWAP1 SSTORE POP DUP1 PUSH20 0xFFFFFFFFFFFFFFFFFFFFFFFFFFFFFFFFFFFFFFFF AND PUSH1 0x0 PUSH20 0xFFFFFFFFFFFFFFFFFFFFFFFFFFFFFFFFFFFFFFFF AND PUSH32 0x8BE0079C531659141344CD1FD0A4F28419497F9722A3DAAFE3B4186F6B6457E0 PUSH1 0x40 MLOAD PUSH1 0x40 MLOAD DUP1 SWAP2 SUB SWAP1 LOG3 POP DUP2 PUSH1 0x8 DUP2 SWAP1 SSTORE POP DUP1 PUSH1 0x9 DUP2 SWAP1 SSTORE POP PUSH3 0x215 CALLER PUSH3 0x200 PUSH3 0x2D7 PUSH1 0x20 SHL PUSH1 0x20 SHR JUMP JUMPDEST PUSH1 0xFF AND PUSH1 0xA EXP PUSH1 0x64 MUL PUSH3 0x2EE PUSH1 0x20 SHL PUSH1 0x20 SHR JUMP JUMPDEST PUSH1 0x64 DUP3 DUP2 ISZERO ISZERO PUSH3 0x222 JUMPI INVALID JUMPDEST DIV PUSH1 0xA PUSH1 0x0 CALLER PUSH20 0xFFFFFFFFFFFFFFFFFFFFFFFFFFFFFFFFFFFFFFFF AND PUSH20 0xFFFFFFFFFFFFFFFFFFFFFFFFFFFFFFFFFFFFFFFF AND DUP2 MSTORE PUSH1 0x20 ADD SWAP1 DUP2 MSTORE PUSH1 0x20 ADD PUSH1 0x0 KECCAK256 DUP2 SWAP1 SSTORE POP POP POP PUSH3 0x7BC JUMP JUMPDEST PUSH1 0x0 CALLER SWAP1 POP SWAP1 JUMP JUMPDEST PUSH3 0x291 DUP2 PUSH1 0x6 PUSH3 0x4BA PUSH1 0x20 SHL PUSH3 0x2045 OR SWAP1 SWAP2 SWAP1 PUSH1 0x20 SHR JUMP JUMPDEST DUP1 PUSH20 0xFFFFFFFFFFFFFFFFFFFFFFFFFFFFFFFFFFFFFFFF AND PUSH32 0x6AE172837EA30B801FBFCDD4108AA1D5BF8FF775444FD70256B44E6BF3DFC3F6 PUSH1 0x40 MLOAD PUSH1 0x40 MLOAD DUP1 SWAP2 SUB SWAP1 LOG2 POP JUMP JUMPDEST PUSH1 0x0 PUSH1 0x5 PUSH1 0x0 SWAP1 SLOAD SWAP1 PUSH2 0x100 EXP SWAP1 DIV PUSH1 0xFF AND SWAP1 POP SWAP1 JUMP JUMPDEST PUSH1 0x0 PUSH20 0xFFFFFFFFFFFFFFFFFFFFFFFFFFFFFFFFFFFFFFFF AND DUP3 PUSH20 0xFFFFFFFFFFFFFFFFFFFFFFFFFFFFFFFFFFFFFFFF AND EQ ISZERO ISZERO ISZERO PUSH3 0x394 JUMPI PUSH1 0x40 MLOAD PUSH32 0x8C379A000000000000000000000000000000000000000000000000000000000 DUP2 MSTORE PUSH1 0x4 ADD DUP1 DUP1 PUSH1 0x20 ADD DUP3 DUP2 SUB DUP3 MSTORE PUSH1 0x1F DUP2 MSTORE PUSH1 0x20 ADD DUP1 PUSH32 0x45524332303A206D696E7420746F20746865207A65726F206164647265737300 DUP2 MSTORE POP PUSH1 0x20 ADD SWAP2 POP POP PUSH1 0x40 MLOAD DUP1 SWAP2 SUB SWAP1 REVERT JUMPDEST PUSH3 0x3B0 DUP2 PUSH1 0x2 SLOAD PUSH3 0x5A0 PUSH1 0x20 SHL PUSH3 0x1CDF OR SWAP1 SWAP2 SWAP1 PUSH1 0x20 SHR JUMP JUMPDEST PUSH1 0x2 DUP2 SWAP1 SSTORE POP PUSH3 0x40E DUP2 PUSH1 0x0 DUP1 DUP6 PUSH20 0xFFFFFFFFFFFFFFFFFFFFFFFFFFFFFFFFFFFFFFFF AND PUSH20 0xFFFFFFFFFFFFFFFFFFFFFFFFFFFFFFFFFFFFFFFF AND DUP2 MSTORE PUSH1 0x20 ADD SWAP1 DUP2 MSTORE PUSH1 0x20 ADD PUSH1 0x0 KECCAK256 SLOAD PUSH3 0x5A0 PUSH1 0x20 SHL PUSH3 0x1CDF OR SWAP1 SWAP2 SWAP1 PUSH1 0x20 SHR JUMP JUMPDEST PUSH1 0x0 DUP1 DUP5 PUSH20 0xFFFFFFFFFFFFFFFFFFFFFFFFFFFFFFFFFFFFFFFF AND PUSH20 0xFFFFFFFFFFFFFFFFFFFFFFFFFFFFFFFFFFFFFFFF AND DUP2 MSTORE PUSH1 0x20 ADD SWAP1 DUP2 MSTORE PUSH1 0x20 ADD PUSH1 0x0 KECCAK256 DUP2 SWAP1 SSTORE POP DUP2 PUSH20 0xFFFFFFFFFFFFFFFFFFFFFFFFFFFFFFFFFFFFFFFF AND PUSH1 0x0 PUSH20 0xFFFFFFFFFFFFFFFFFFFFFFFFFFFFFFFFFFFFFFFF AND PUSH32 0xDDF252AD1BE2C89B69C2B068FC378DAA952BA7F163C4A11628F55A4DF523B3EF DUP4 PUSH1 0x40 MLOAD DUP1 DUP3 DUP2 MSTORE PUSH1 0x20 ADD SWAP2 POP POP PUSH1 0x40 MLOAD DUP1 SWAP2 SUB SWAP1 LOG3 POP POP JUMP JUMPDEST PUSH3 0x4CC DUP3 DUP3 PUSH3 0x62B PUSH1 0x20 SHL PUSH1 0x20 SHR JUMP JUMPDEST ISZERO ISZERO ISZERO PUSH3 0x542 JUMPI PUSH1 0x40 MLOAD PUSH32 0x8C379A000000000000000000000000000000000000000000000000000000000 DUP2 MSTORE PUSH1 0x4 ADD DUP1 DUP1 PUSH1 0x20 ADD DUP3 DUP2 SUB DUP3 MSTORE PUSH1 0x1F DUP2 MSTORE PUSH1 0x20 ADD DUP1 PUSH32 0x526F6C65733A206163636F756E7420616C72656164792068617320726F6C6500 DUP2 MSTORE POP PUSH1 0x20 ADD SWAP2 POP POP PUSH1 0x40 MLOAD DUP1 SWAP2 SUB SWAP1 REVERT JUMPDEST PUSH1 0x1 DUP3 PUSH1 0x0 ADD PUSH1 0x0 DUP4 PUSH20 0xFFFFFFFFFFFFFFFFFFFFFFFFFFFFFFFFFFFFFFFF AND PUSH20 0xFFFFFFFFFFFFFFFFFFFFFFFFFFFFFFFFFFFFFFFF AND DUP2 MSTORE PUSH1 0x20 ADD SWAP1 DUP2 MSTORE PUSH1 0x20 ADD PUSH1 0x0 KECCAK256 PUSH1 0x0 PUSH2 0x100 EXP DUP2 SLOAD DUP2 PUSH1 0xFF MUL NOT AND SWAP1 DUP4 ISZERO ISZERO MUL OR SWAP1 SSTORE POP POP POP JUMP JUMPDEST PUSH1 0x0 DUP1 DUP3 DUP5 ADD SWAP1 POP DUP4 DUP2 LT ISZERO ISZERO ISZERO PUSH3 0x621 JUMPI PUSH1 0x40 MLOAD PUSH32 0x8C379A000000000000000000000000000000000000000000000000000000000 DUP2 MSTORE PUSH1 0x4 ADD DUP1 DUP1 PUSH1 0x20 ADD DUP3 DUP2 SUB DUP3 MSTORE PUSH1 0x1B DUP2 MSTORE PUSH1 0x20 ADD DUP1 PUSH32 0x536166654D6174683A206164646974696F6E206F766572666C6F770000000000 DUP2 MSTORE POP PUSH1 0x20 ADD SWAP2 POP POP PUSH1 0x40 MLOAD DUP1 SWAP2 SUB SWAP1 REVERT JUMPDEST DUP1 SWAP2 POP POP SWAP3 SWAP2 POP POP JUMP JUMPDEST PUSH1 0x0 DUP1 PUSH20 0xFFFFFFFFFFFFFFFFFFFFFFFFFFFFFFFFFFFFFFFF AND DUP3 PUSH20 0xFFFFFFFFFFFFFFFFFFFFFFFFFFFFFFFFFFFFFFFF AND EQ ISZERO ISZERO ISZERO PUSH3 0x6B6 JUMPI PUSH1 0x40 MLOAD PUSH32 0x8C379A000000000000000000000000000000000000000000000000000000000 DUP2 MSTORE PUSH1 0x4 ADD DUP1 DUP1 PUSH1 0x20 ADD DUP3 DUP2 SUB DUP3 MSTORE PUSH1 0x22 DUP2 MSTORE PUSH1 0x20 ADD DUP1 PUSH3 0x2C1B PUSH1 0x22 SWAP2 CODECOPY PUSH1 0x40 ADD SWAP2 POP POP PUSH1 0x40 MLOAD DUP1 SWAP2 SUB SWAP1 REVERT JUMPDEST DUP3 PUSH1 0x0 ADD PUSH1 0x0 DUP4 PUSH20 0xFFFFFFFFFFFFFFFFFFFFFFFFFFFFFFFFFFFFFFFF AND PUSH20 0xFFFFFFFFFFFFFFFFFFFFFFFFFFFFFFFFFFFFFFFF AND DUP2 MSTORE PUSH1 0x20 ADD SWAP1 DUP2 MSTORE PUSH1 0x20 ADD PUSH1 0x0 KECCAK256 PUSH1 0x0 SWAP1 SLOAD SWAP1 PUSH2 0x100 EXP SWAP1 DIV PUSH1 0xFF AND SWAP1 POP SWAP3 SWAP2 POP POP JUMP JUMPDEST DUP3 DUP1 SLOAD PUSH1 0x1 DUP2 PUSH1 0x1 AND ISZERO PUSH2 0x100 MUL SUB AND PUSH1 0x2 SWAP1 DIV SWAP1 PUSH1 0x0 MSTORE PUSH1 0x20 PUSH1 0x0 KECCAK256 SWAP1 PUSH1 0x1F ADD PUSH1 0x20 SWAP1 DIV DUP2 ADD SWAP3 DUP3 PUSH1 0x1F LT PUSH3 0x750 JUMPI DUP1 MLOAD PUSH1 0xFF NOT AND DUP4 DUP1 ADD OR DUP6 SSTORE PUSH3 0x781 JUMP JUMPDEST DUP3 DUP1 ADD PUSH1 0x1 ADD DUP6 SSTORE DUP3 ISZERO PUSH3 0x781 JUMPI SWAP2 DUP3 ADD JUMPDEST DUP3 DUP2 GT ISZERO PUSH3 0x780 JUMPI DUP3 MLOAD DUP3 SSTORE SWAP2 PUSH1 0x20 ADD SWAP2 SWAP1 PUSH1 0x1 ADD SWAP1 PUSH3 0x763 JUMP JUMPDEST JUMPDEST POP SWAP1 POP PUSH3 0x790 SWAP2 SWAP1 PUSH3 0x794 JUMP JUMPDEST POP SWAP1 JUMP JUMPDEST PUSH3 0x7B9 SWAP2 SWAP1 JUMPDEST DUP1 DUP3 GT ISZERO PUSH3 0x7B5 JUMPI PUSH1 0x0 DUP2 PUSH1 0x0 SWAP1 SSTORE POP PUSH1 0x1 ADD PUSH3 0x79B JUMP JUMPDEST POP SWAP1 JUMP JUMPDEST SWAP1 JUMP JUMPDEST PUSH2 0x244F DUP1 PUSH3 0x7CC PUSH1 0x0 CODECOPY PUSH1 0x0 RETURN INVALID PUSH1 0x80 PUSH1 0x40 MSTORE PUSH1 0x4 CALLDATASIZE LT PUSH2 0x166 JUMPI PUSH1 0x0 CALLDATALOAD PUSH1 0xE0 SHR DUP1 PUSH4 0x715018A6 GT PUSH2 0xD1 JUMPI DUP1 PUSH4 0x98650275 GT PUSH2 0x8A JUMPI DUP1 PUSH4 0xAA271E1A GT PUSH2 0x64 JUMPI DUP1 PUSH4 0xAA271E1A EQ PUSH2 0x823 JUMPI DUP1 PUSH4 0xDD62ED3E EQ PUSH2 0x88C JUMPI DUP1 PUSH4 0xF2FDE38B EQ PUSH2 0x911 JUMPI DUP1 PUSH4 0xF3A5303E EQ PUSH2 0x962 JUMPI PUSH2 0x166 JUMP JUMPDEST DUP1 PUSH4 0x98650275 EQ PUSH2 0x726 JUMPI DUP1 PUSH4 0xA457C2D7 EQ PUSH2 0x73D JUMPI DUP1 PUSH4 0xA9059CBB EQ PUSH2 0x7B0 JUMPI PUSH2 0x166 JUMP JUMPDEST DUP1 PUSH4 0x715018A6 EQ PUSH2 0x57D JUMPI DUP1 PUSH4 0x883400E6 EQ PUSH2 0x594 JUMPI DUP1 PUSH4 0x8DA5CB5B EQ PUSH2 0x5BF JUMPI DUP1 PUSH4 0x8F32D59B EQ PUSH2 0x616 JUMPI DUP1 PUSH4 0x95D89B41 EQ PUSH2 0x645 JUMPI DUP1 PUSH4 0x983B2D56 EQ PUSH2 0x6D5 JUMPI PUSH2 0x166 JUMP JUMPDEST DUP1 PUSH4 0x313CE567 GT PUSH2 0x123 JUMPI DUP1 PUSH4 0x313CE567 EQ PUSH2 0x392 JUMPI DUP1 PUSH4 0x3290CE29 EQ PUSH2 0x3C3 JUMPI DUP1 PUSH4 0x32A4031B EQ PUSH2 0x3CD JUMPI DUP1 PUSH4 0x39509351 EQ PUSH2 0x432 JUMPI DUP1 PUSH4 0x40C10F19 EQ PUSH2 0x4A5 JUMPI DUP1 PUSH4 0x70A08231 EQ PUSH2 0x518 JUMPI PUSH2 0x166 JUMP JUMPDEST DUP1 PUSH4 0x514AE7B EQ PUSH2 0x16B JUMPI DUP1 PUSH4 0x6FDDE03 EQ PUSH2 0x1A6 JUMPI DUP1 PUSH4 0x6FFCE53 EQ PUSH2 0x236 JUMPI DUP1 PUSH4 0x95EA7B3 EQ PUSH2 0x261 JUMPI DUP1 PUSH4 0x18160DDD EQ PUSH2 0x2D4 JUMPI DUP1 PUSH4 0x23B872DD EQ PUSH2 0x2FF JUMPI JUMPDEST PUSH1 0x0 DUP1 REVERT JUMPDEST CALLVALUE DUP1 ISZERO PUSH2 0x177 JUMPI PUSH1 0x0 DUP1 REVERT JUMPDEST POP PUSH2 0x1A4 PUSH1 0x4 DUP1 CALLDATASIZE SUB PUSH1 0x20 DUP2 LT ISZERO PUSH2 0x18E JUMPI PUSH1 0x0 DUP1 REVERT JUMPDEST DUP2 ADD SWAP1 DUP1 DUP1 CALLDATALOAD SWAP1 PUSH1 0x20 ADD SWAP1 SWAP3 SWAP2 SWAP1 POP POP POP PUSH2 0x98D JUMP JUMPDEST STOP JUMPDEST CALLVALUE DUP1 ISZERO PUSH2 0x1B2 JUMPI PUSH1 0x0 DUP1 REVERT JUMPDEST POP PUSH2 0x1BB PUSH2 0xA13 JUMP JUMPDEST PUSH1 0x40 MLOAD DUP1 DUP1 PUSH1 0x20 ADD DUP3 DUP2 SUB DUP3 MSTORE DUP4 DUP2 DUP2 MLOAD DUP2 MSTORE PUSH1 0x20 ADD SWAP2 POP DUP1 MLOAD SWAP1 PUSH1 0x20 ADD SWAP1 DUP1 DUP4 DUP4 PUSH1 0x0 JUMPDEST DUP4 DUP2 LT ISZERO PUSH2 0x1FB JUMPI DUP1 DUP3 ADD MLOAD DUP2 DUP5 ADD MSTORE PUSH1 0x20 DUP2 ADD SWAP1 POP PUSH2 0x1E0 JUMP JUMPDEST POP POP POP POP SWAP1 POP SWAP1 DUP2 ADD SWAP1 PUSH1 0x1F AND DUP1 ISZERO PUSH2 0x228 JUMPI DUP1 DUP3 SUB DUP1 MLOAD PUSH1 0x1 DUP4 PUSH1 0x20 SUB PUSH2 0x100 EXP SUB NOT AND DUP2 MSTORE PUSH1 0x20 ADD SWAP2 POP JUMPDEST POP SWAP3 POP POP POP PUSH1 0x40 MLOAD DUP1 SWAP2 SUB SWAP1 RETURN JUMPDEST CALLVALUE DUP1 ISZERO PUSH2 0x242 JUMPI PUSH1 0x0 DUP1 REVERT JUMPDEST POP PUSH2 0x24B PUSH2 0xAB5 JUMP JUMPDEST PUSH1 0x40 MLOAD DUP1 DUP3 DUP2 MSTORE PUSH1 0x20 ADD SWAP2 POP POP PUSH1 0x40 MLOAD DUP1 SWAP2 SUB SWAP1 RETURN JUMPDEST CALLVALUE DUP1 ISZERO PUSH2 0x26D JUMPI PUSH1 0x0 DUP1 REVERT JUMPDEST POP PUSH2 0x2BA PUSH1 0x4 DUP1 CALLDATASIZE SUB PUSH1 0x40 DUP2 LT ISZERO PUSH2 0x284 JUMPI PUSH1 0x0 DUP1 REVERT JUMPDEST DUP2 ADD SWAP1 DUP1 DUP1 CALLDATALOAD PUSH20 0xFFFFFFFFFFFFFFFFFFFFFFFFFFFFFFFFFFFFFFFF AND SWAP1 PUSH1 0x20 ADD SWAP1 SWAP3 SWAP2 SWAP1 DUP1 CALLDATALOAD SWAP1 PUSH1 0x20 ADD SWAP1 SWAP3 SWAP2 SWAP1 POP POP POP PUSH2 0xACB JUMP JUMPDEST PUSH1 0x40 MLOAD DUP1 DUP3 ISZERO ISZERO ISZERO ISZERO DUP2 MSTORE PUSH1 0x20 ADD SWAP2 POP POP PUSH1 0x40 MLOAD DUP1 SWAP2 SUB SWAP1 RETURN JUMPDEST CALLVALUE DUP1 ISZERO PUSH2 0x2E0 JUMPI PUSH1 0x0 DUP1 REVERT JUMPDEST POP PUSH2 0x2E9 PUSH2 0xAE9 JUMP JUMPDEST PUSH1 0x40 MLOAD DUP1 DUP3 DUP2 MSTORE PUSH1 0x20 ADD SWAP2 POP POP PUSH1 0x40 MLOAD DUP1 SWAP2 SUB SWAP1 RETURN JUMPDEST CALLVALUE DUP1 ISZERO PUSH2 0x30B JUMPI PUSH1 0x0 DUP1 REVERT JUMPDEST POP PUSH2 0x378 PUSH1 0x4 DUP1 CALLDATASIZE SUB PUSH1 0x60 DUP2 LT ISZERO PUSH2 0x322 JUMPI PUSH1 0x0 DUP1 REVERT JUMPDEST DUP2 ADD SWAP1 DUP1 DUP1 CALLDATALOAD PUSH20 0xFFFFFFFFFFFFFFFFFFFFFFFFFFFFFFFFFFFFFFFF AND SWAP1 PUSH1 0x20 ADD SWAP1 SWAP3 SWAP2 SWAP1 DUP1 CALLDATALOAD PUSH20 0xFFFFFFFFFFFFFFFFFFFFFFFFFFFFFFFFFFFFFFFF AND SWAP1 PUSH1 0x20 ADD SWAP1 SWAP3 SWAP2 SWAP1 DUP1 CALLDATALOAD SWAP1 PUSH1 0x20 ADD SWAP1 SWAP3 SWAP2 SWAP1 POP POP POP PUSH2 0xAF3 JUMP JUMPDEST PUSH1 0x40 MLOAD DUP1 DUP3 ISZERO ISZERO ISZERO ISZERO DUP2 MSTORE PUSH1 0x20 ADD SWAP2 POP POP PUSH1 0x40 MLOAD DUP1 SWAP2 SUB SWAP1 RETURN JUMPDEST CALLVALUE DUP1 ISZERO PUSH2 0x39E JUMPI PUSH1 0x0 DUP1 REVERT JUMPDEST POP PUSH2 0x3A7 PUSH2 0xBCC JUMP JUMPDEST PUSH1 0x40 MLOAD DUP1 DUP3 PUSH1 0xFF AND PUSH1 0xFF AND DUP2 MSTORE PUSH1 0x20 ADD SWAP2 POP POP PUSH1 0x40 MLOAD DUP1 SWAP2 SUB SWAP1 RETURN JUMPDEST PUSH2 0x3CB PUSH2 0xBE3 JUMP JUMPDEST STOP JUMPDEST CALLVALUE DUP1 ISZERO PUSH2 0x3D9 JUMPI PUSH1 0x0 DUP1 REVERT JUMPDEST POP PUSH2 0x41C PUSH1 0x4 DUP1 CALLDATASIZE SUB PUSH1 0x20 DUP2 LT ISZERO PUSH2 0x3F0 JUMPI PUSH1 0x0 DUP1 REVERT JUMPDEST DUP2 ADD SWAP1 DUP1 DUP1 CALLDATALOAD PUSH20 0xFFFFFFFFFFFFFFFFFFFFFFFFFFFFFFFFFFFFFFFF AND SWAP1 PUSH1 0x20 ADD SWAP1 SWAP3 SWAP2 SWAP1 POP POP POP PUSH2 0xCAC JUMP JUMPDEST PUSH1 0x40 MLOAD DUP1 DUP3 DUP2 MSTORE PUSH1 0x20 ADD SWAP2 POP POP PUSH1 0x40 MLOAD DUP1 SWAP2 SUB SWAP1 RETURN JUMPDEST CALLVALUE DUP1 ISZERO PUSH2 0x43E JUMPI PUSH1 0x0 DUP1 REVERT JUMPDEST POP PUSH2 0x48B PUSH1 0x4 DUP1 CALLDATASIZE SUB PUSH1 0x40 DUP2 LT ISZERO PUSH2 0x455 JUMPI PUSH1 0x0 DUP1 REVERT JUMPDEST DUP2 ADD SWAP1 DUP1 DUP1 CALLDATALOAD PUSH20 0xFFFFFFFFFFFFFFFFFFFFFFFFFFFFFFFFFFFFFFFF AND SWAP1 PUSH1 0x20 ADD SWAP1 SWAP3 SWAP2 SWAP1 DUP1 CALLDATALOAD SWAP1 PUSH1 0x20 ADD SWAP1 SWAP3 SWAP2 SWAP1 POP POP POP PUSH2 0xCF5 JUMP JUMPDEST PUSH1 0x40 MLOAD DUP1 DUP3 ISZERO ISZERO ISZERO ISZERO DUP2 MSTORE PUSH1 0x20 ADD SWAP2 POP POP PUSH1 0x40 MLOAD DUP1 SWAP2 SUB SWAP1 RETURN JUMPDEST CALLVALUE DUP1 ISZERO PUSH2 0x4B1 JUMPI PUSH1 0x0 DUP1 REVERT JUMPDEST POP PUSH2 0x4FE PUSH1 0x4 DUP1 CALLDATASIZE SUB PUSH1 0x40 DUP2 LT ISZERO PUSH2 0x4C8 JUMPI PUSH1 0x0 DUP1 REVERT JUMPDEST DUP2 ADD SWAP1 DUP1 DUP1 CALLDATALOAD PUSH20 0xFFFFFFFFFFFFFFFFFFFFFFFFFFFFFFFFFFFFFFFF AND SWAP1 PUSH1 0x20 ADD SWAP1 SWAP3 SWAP2 SWAP1 DUP1 CALLDATALOAD SWAP1 PUSH1 0x20 ADD SWAP1 SWAP3 SWAP2 SWAP1 POP POP POP PUSH2 0xDA8 JUMP JUMPDEST PUSH1 0x40 MLOAD DUP1 DUP3 ISZERO ISZERO ISZERO ISZERO DUP2 MSTORE PUSH1 0x20 ADD SWAP2 POP POP PUSH1 0x40 MLOAD DUP1 SWAP2 SUB SWAP1 RETURN JUMPDEST CALLVALUE DUP1 ISZERO PUSH2 0x524 JUMPI PUSH1 0x0 DUP1 REVERT JUMPDEST POP PUSH2 0x567 PUSH1 0x4 DUP1 CALLDATASIZE SUB PUSH1 0x20 DUP2 LT ISZERO PUSH2 0x53B JUMPI PUSH1 0x0 DUP1 REVERT JUMPDEST DUP2 ADD SWAP1 DUP1 DUP1 CALLDATALOAD PUSH20 0xFFFFFFFFFFFFFFFFFFFFFFFFFFFFFFFFFFFFFFFF AND SWAP1 PUSH1 0x20 ADD SWAP1 SWAP3 SWAP2 SWAP1 POP POP POP PUSH2 0xE25 JUMP JUMPDEST PUSH1 0x40 MLOAD DUP1 DUP3 DUP2 MSTORE PUSH1 0x20 ADD SWAP2 POP POP PUSH1 0x40 MLOAD DUP1 SWAP2 SUB SWAP1 RETURN JUMPDEST CALLVALUE DUP1 ISZERO PUSH2 0x589 JUMPI PUSH1 0x0 DUP1 REVERT JUMPDEST POP PUSH2 0x592 PUSH2 0xE6D JUMP JUMPDEST STOP JUMPDEST CALLVALUE DUP1 ISZERO PUSH2 0x5A0 JUMPI PUSH1 0x0 DUP1 REVERT JUMPDEST POP PUSH2 0x5A9 PUSH2 0xFAA JUMP JUMPDEST PUSH1 0x40 MLOAD DUP1 DUP3 DUP2 MSTORE PUSH1 0x20 ADD SWAP2 POP POP PUSH1 0x40 MLOAD DUP1 SWAP2 SUB SWAP1 RETURN JUMPDEST CALLVALUE DUP1 ISZERO PUSH2 0x5CB JUMPI PUSH1 0x0 DUP1 REVERT JUMPDEST POP PUSH2 0x5D4 PUSH2 0xFB0 JUMP JUMPDEST PUSH1 0x40 MLOAD DUP1 DUP3 PUSH20 0xFFFFFFFFFFFFFFFFFFFFFFFFFFFFFFFFFFFFFFFF AND PUSH20 0xFFFFFFFFFFFFFFFFFFFFFFFFFFFFFFFFFFFFFFFF AND DUP2 MSTORE PUSH1 0x20 ADD SWAP2 POP POP PUSH1 0x40 MLOAD DUP1 SWAP2 SUB SWAP1 RETURN JUMPDEST CALLVALUE DUP1 ISZERO PUSH2 0x622 JUMPI PUSH1 0x0 DUP1 REVERT JUMPDEST POP PUSH2 0x62B PUSH2 0xFDA JUMP JUMPDEST PUSH1 0x40 MLOAD DUP1 DUP3 ISZERO ISZERO ISZERO ISZERO DUP2 MSTORE PUSH1 0x20 ADD SWAP2 POP POP PUSH1 0x40 MLOAD DUP1 SWAP2 SUB SWAP1 RETURN JUMPDEST CALLVALUE DUP1 ISZERO PUSH2 0x651 JUMPI PUSH1 0x0 DUP1 REVERT JUMPDEST POP PUSH2 0x65A PUSH2 0x1039 JUMP JUMPDEST PUSH1 0x40 MLOAD DUP1 DUP1 PUSH1 0x20 ADD DUP3 DUP2 SUB DUP3 MSTORE DUP4 DUP2 DUP2 MLOAD DUP2 MSTORE PUSH1 0x20 ADD SWAP2 POP DUP1 MLOAD SWAP1 PUSH1 0x20 ADD SWAP1 DUP1 DUP4 DUP4 PUSH1 0x0 JUMPDEST DUP4 DUP2 LT ISZERO PUSH2 0x69A JUMPI DUP1 DUP3 ADD MLOAD DUP2 DUP5 ADD MSTORE PUSH1 0x20 DUP2 ADD SWAP1 POP PUSH2 0x67F JUMP JUMPDEST POP POP POP POP SWAP1 POP SWAP1 DUP2 ADD SWAP1 PUSH1 0x1F AND DUP1 ISZERO PUSH2 0x6C7 JUMPI DUP1 DUP3 SUB DUP1 MLOAD PUSH1 0x1 DUP4 PUSH1 0x20 SUB PUSH2 0x100 EXP SUB NOT AND DUP2 MSTORE PUSH1 0x20 ADD SWAP2 POP JUMPDEST POP SWAP3 POP POP POP PUSH1 0x40 MLOAD DUP1 SWAP2 SUB SWAP1 RETURN JUMPDEST CALLVALUE DUP1 ISZERO PUSH2 0x6E1 JUMPI PUSH1 0x0 DUP1 REVERT JUMPDEST POP PUSH2 0x724 PUSH1 0x4 DUP1 CALLDATASIZE SUB PUSH1 0x20 DUP2 LT ISZERO PUSH2 0x6F8 JUMPI PUSH1 0x0 DUP1 REVERT JUMPDEST DUP2 ADD SWAP1 DUP1 DUP1 CALLDATALOAD PUSH20 0xFFFFFFFFFFFFFFFFFFFFFFFFFFFFFFFFFFFFFFFF AND SWAP1 PUSH1 0x20 ADD SWAP1 SWAP3 SWAP2 SWAP1 POP POP POP PUSH2 0x10DB JUMP JUMPDEST STOP JUMPDEST CALLVALUE DUP1 ISZERO PUSH2 0x732 JUMPI PUSH1 0x0 DUP1 REVERT JUMPDEST POP PUSH2 0x73B PUSH2 0x114E JUMP JUMPDEST STOP JUMPDEST CALLVALUE DUP1 ISZERO PUSH2 0x749 JUMPI PUSH1 0x0 DUP1 REVERT JUMPDEST POP PUSH2 0x796 PUSH1 0x4 DUP1 CALLDATASIZE SUB PUSH1 0x40 DUP2 LT ISZERO PUSH2 0x760 JUMPI PUSH1 0x0 DUP1 REVERT JUMPDEST DUP2 ADD SWAP1 DUP1 DUP1 CALLDATALOAD PUSH20 0xFFFFFFFFFFFFFFFFFFFFFFFFFFFFFFFFFFFFFFFF AND SWAP1 PUSH1 0x20 ADD SWAP1 SWAP3 SWAP2 SWAP1 DUP1 CALLDATALOAD SWAP1 PUSH1 0x20 ADD SWAP1 SWAP3 SWAP2 SWAP1 POP POP POP PUSH2 0x1160 JUMP JUMPDEST PUSH1 0x40 MLOAD DUP1 DUP3 ISZERO ISZERO ISZERO ISZERO DUP2 MSTORE PUSH1 0x20 ADD SWAP2 POP POP PUSH1 0x40 MLOAD DUP1 SWAP2 SUB SWAP1 RETURN JUMPDEST CALLVALUE DUP1 ISZERO PUSH2 0x7BC JUMPI PUSH1 0x0 DUP1 REVERT JUMPDEST POP PUSH2 0x809 PUSH1 0x4 DUP1 CALLDATASIZE SUB PUSH1 0x40 DUP2 LT ISZERO PUSH2 0x7D3 JUMPI PUSH1 0x0 DUP1 REVERT JUMPDEST DUP2 ADD SWAP1 DUP1 DUP1 CALLDATALOAD PUSH20 0xFFFFFFFFFFFFFFFFFFFFFFFFFFFFFFFFFFFFFFFF AND SWAP1 PUSH1 0x20 ADD SWAP1 SWAP3 SWAP2 SWAP1 DUP1 CALLDATALOAD SWAP1 PUSH1 0x20 ADD SWAP1 SWAP3 SWAP2 SWAP1 POP POP POP PUSH2 0x122D JUMP JUMPDEST PUSH1 0x40 MLOAD DUP1 DUP3 ISZERO ISZERO ISZERO ISZERO DUP2 MSTORE PUSH1 0x20 ADD SWAP2 POP POP PUSH1 0x40 MLOAD DUP1 SWAP2 SUB SWAP1 RETURN JUMPDEST CALLVALUE DUP1 ISZERO PUSH2 0x82F JUMPI PUSH1 0x0 DUP1 REVERT JUMPDEST POP PUSH2 0x872 PUSH1 0x4 DUP1 CALLDATASIZE SUB PUSH1 0x20 DUP2 LT ISZERO PUSH2 0x846 JUMPI PUSH1 0x0 DUP1 REVERT JUMPDEST DUP2 ADD SWAP1 DUP1 DUP1 CALLDATALOAD PUSH20 0xFFFFFFFFFFFFFFFFFFFFFFFFFFFFFFFFFFFFFFFF AND SWAP1 PUSH1 0x20 ADD SWAP1 SWAP3 SWAP2 SWAP1 POP POP POP PUSH2 0x1471 JUMP JUMPDEST PUSH1 0x40 MLOAD DUP1 DUP3 ISZERO ISZERO ISZERO ISZERO DUP2 MSTORE PUSH1 0x20 ADD SWAP2 POP POP PUSH1 0x40 MLOAD DUP1 SWAP2 SUB SWAP1 RETURN JUMPDEST CALLVALUE DUP1 ISZERO PUSH2 0x898 JUMPI PUSH1 0x0 DUP1 REVERT JUMPDEST POP PUSH2 0x8FB PUSH1 0x4 DUP1 CALLDATASIZE SUB PUSH1 0x40 DUP2 LT ISZERO PUSH2 0x8AF JUMPI PUSH1 0x0 DUP1 REVERT JUMPDEST DUP2 ADD SWAP1 DUP1 DUP1 CALLDATALOAD PUSH20 0xFFFFFFFFFFFFFFFFFFFFFFFFFFFFFFFFFFFFFFFF AND SWAP1 PUSH1 0x20 ADD SWAP1 SWAP3 SWAP2 SWAP1 DUP1 CALLDATALOAD PUSH20 0xFFFFFFFFFFFFFFFFFFFFFFFFFFFFFFFFFFFFFFFF AND SWAP1 PUSH1 0x20 ADD SWAP1 SWAP3 SWAP2 SWAP1 POP POP POP PUSH2 0x148E JUMP JUMPDEST PUSH1 0x40 MLOAD DUP1 DUP3 DUP2 MSTORE PUSH1 0x20 ADD SWAP2 POP POP PUSH1 0x40 MLOAD DUP1 SWAP2 SUB SWAP1 RETURN JUMPDEST CALLVALUE DUP1 ISZERO PUSH2 0x91D JUMPI PUSH1 0x0 DUP1 REVERT JUMPDEST POP PUSH2 0x960 PUSH1 0x4 DUP1 CALLDATASIZE SUB PUSH1 0x20 DUP2 LT ISZERO PUSH2 0x934 JUMPI PUSH1 0x0 DUP1 REVERT JUMPDEST DUP2 ADD SWAP1 DUP1 DUP1 CALLDATALOAD PUSH20 0xFFFFFFFFFFFFFFFFFFFFFFFFFFFFFFFFFFFFFFFF AND SWAP1 PUSH1 0x20 ADD SWAP1 SWAP3 SWAP2 SWAP1 POP POP POP PUSH2 0x1515 JUMP JUMPDEST STOP JUMPDEST CALLVALUE DUP1 ISZERO PUSH2 0x96E JUMPI PUSH1 0x0 DUP1 REVERT JUMPDEST POP PUSH2 0x977 PUSH2 0x159D JUMP JUMPDEST PUSH1 0x40 MLOAD DUP1 DUP3 DUP2 MSTORE PUSH1 0x20 ADD SWAP2 POP POP PUSH1 0x40 MLOAD DUP1 SWAP2 SUB SWAP1 RETURN JUMPDEST PUSH2 0x995 PUSH2 0xFDA JUMP JUMPDEST ISZERO ISZERO PUSH2 0xA09 JUMPI PUSH1 0x40 MLOAD PUSH32 0x8C379A000000000000000000000000000000000000000000000000000000000 DUP2 MSTORE PUSH1 0x4 ADD DUP1 DUP1 PUSH1 0x20 ADD DUP3 DUP2 SUB DUP3 MSTORE PUSH1 0x20 DUP2 MSTORE PUSH1 0x20 ADD DUP1 PUSH32 0x4F776E61626C653A2063616C6C6572206973206E6F7420746865206F776E6572 DUP2 MSTORE POP PUSH1 0x20 ADD SWAP2 POP POP PUSH1 0x40 MLOAD DUP1 SWAP2 SUB SWAP1 REVERT JUMPDEST DUP1 PUSH1 0x9 DUP2 SWAP1 SSTORE POP POP JUMP JUMPDEST PUSH1 0x60 PUSH1 0x3 DUP1 SLOAD PUSH1 0x1 DUP2 PUSH1 0x1 AND ISZERO PUSH2 0x100 MUL SUB AND PUSH1 0x2 SWAP1 DIV DUP1 PUSH1 0x1F ADD PUSH1 0x20 DUP1 SWAP2 DIV MUL PUSH1 0x20 ADD PUSH1 0x40 MLOAD SWAP1 DUP2 ADD PUSH1 0x40 MSTORE DUP1 SWAP3 SWAP2 SWAP1 DUP2 DUP2 MSTORE PUSH1 0x20 ADD DUP3 DUP1 SLOAD PUSH1 0x1 DUP2 PUSH1 0x1 AND ISZERO PUSH2 0x100 MUL SUB AND PUSH1 0x2 SWAP1 DIV DUP1 ISZERO PUSH2 0xAAB JUMPI DUP1 PUSH1 0x1F LT PUSH2 0xA80 JUMPI PUSH2 0x100 DUP1 DUP4 SLOAD DIV MUL DUP4 MSTORE SWAP2 PUSH1 0x20 ADD SWAP2 PUSH2 0xAAB JUMP JUMPDEST DUP3 ADD SWAP2 SWAP1 PUSH1 0x0 MSTORE PUSH1 0x20 PUSH1 0x0 KECCAK256 SWAP1 JUMPDEST DUP2 SLOAD DUP2 MSTORE SWAP1 PUSH1 0x1 ADD SWAP1 PUSH1 0x20 ADD DUP1 DUP4 GT PUSH2 0xA8E JUMPI DUP3 SWAP1 SUB PUSH1 0x1F AND DUP3 ADD SWAP2 JUMPDEST POP POP POP POP POP SWAP1 POP SWAP1 JUMP JUMPDEST PUSH1 0x0 PUSH1 0x64 PUSH1 0x9 SLOAD DUP2 ISZERO ISZERO PUSH2 0xAC5 JUMPI INVALID JUMPDEST DIV SWAP1 POP SWAP1 JUMP JUMPDEST PUSH1 0x0 PUSH2 0xADF PUSH2 0xAD8 PUSH2 0x15A3 JUMP JUMPDEST DUP5 DUP5 PUSH2 0x15AB JUMP JUMPDEST PUSH1 0x1 SWAP1 POP SWAP3 SWAP2 POP POP JUMP JUMPDEST PUSH1 0x0 PUSH1 0x2 SLOAD SWAP1 POP SWAP1 JUMP JUMPDEST PUSH1 0x0 PUSH2 0xB00 DUP5 DUP5 DUP5 PUSH2 0x17A6 JUMP JUMPDEST PUSH2 0xBC1 DUP5 PUSH2 0xB0C PUSH2 0x15A3 JUMP JUMPDEST PUSH2 0xBBC DUP6 PUSH1 0x40 MLOAD DUP1 PUSH1 0x60 ADD PUSH1 0x40 MSTORE DUP1 PUSH1 0x28 DUP2 MSTORE PUSH1 0x20 ADD PUSH2 0x2311 PUSH1 0x28 SWAP2 CODECOPY PUSH1 0x1 PUSH1 0x0 DUP12 PUSH20 0xFFFFFFFFFFFFFFFFFFFFFFFFFFFFFFFFFFFFFFFF AND PUSH20 0xFFFFFFFFFFFFFFFFFFFFFFFFFFFFFFFFFFFFFFFF AND DUP2 MSTORE PUSH1 0x20 ADD SWAP1 DUP2 MSTORE PUSH1 0x20 ADD PUSH1 0x0 KECCAK256 PUSH1 0x0 PUSH2 0xB72 PUSH2 0x15A3 JUMP JUMPDEST PUSH20 0xFFFFFFFFFFFFFFFFFFFFFFFFFFFFFFFFFFFFFFFF AND PUSH20 0xFFFFFFFFFFFFFFFFFFFFFFFFFFFFFFFFFFFFFFFF AND DUP2 MSTORE PUSH1 0x20 ADD SWAP1 DUP2 MSTORE PUSH1 0x20 ADD PUSH1 0x0 KECCAK256 SLOAD PUSH2 0x1A60 SWAP1 SWAP3 SWAP2 SWAP1 PUSH4 0xFFFFFFFF AND JUMP JUMPDEST PUSH2 0x15AB JUMP JUMPDEST PUSH1 0x1 SWAP1 POP SWAP4 SWAP3 POP POP POP JUMP JUMPDEST PUSH1 0x0 PUSH1 0x5 PUSH1 0x0 SWAP1 SLOAD SWAP1 PUSH2 0x100 EXP SWAP1 DIV PUSH1 0xFF AND SWAP1 POP SWAP1 JUMP JUMPDEST PUSH1 0x0 PUSH2 0xBED PUSH2 0xAB5 JUMP JUMPDEST SWAP1 POP PUSH1 0x0 DUP2 CALLVALUE DUP2 ISZERO ISZERO PUSH2 0xBFC JUMPI INVALID JUMPDEST DIV SWAP1 POP PUSH1 0x0 DUP2 GT ISZERO ISZERO PUSH2 0xC5A JUMPI PUSH1 0x40 MLOAD PUSH32 0x8C379A000000000000000000000000000000000000000000000000000000000 DUP2 MSTORE PUSH1 0x4 ADD DUP1 DUP1 PUSH1 0x20 ADD DUP3 DUP2 SUB DUP3 MSTORE PUSH1 0x26 DUP2 MSTORE PUSH1 0x20 ADD DUP1 PUSH2 0x2205 PUSH1 0x26 SWAP2 CODECOPY PUSH1 0x40 ADD SWAP2 POP POP PUSH1 0x40 MLOAD DUP1 SWAP2 SUB SWAP1 REVERT JUMPDEST PUSH2 0xC64 CALLER DUP3 PUSH2 0x1B22 JUMP JUMPDEST DUP2 PUSH1 0xA PUSH1 0x0 CALLER PUSH20 0xFFFFFFFFFFFFFFFFFFFFFFFFFFFFFFFFFFFFFFFF AND PUSH20 0xFFFFFFFFFFFFFFFFFFFFFFFFFFFFFFFFFFFFFFFF AND DUP2 MSTORE PUSH1 0x20 ADD SWAP1 DUP2 MSTORE PUSH1 0x20 ADD PUSH1 0x0 KECCAK256 DUP2 SWAP1 SSTORE POP POP POP JUMP JUMPDEST PUSH1 0x0 PUSH1 0xA PUSH1 0x0 DUP4 PUSH20 0xFFFFFFFFFFFFFFFFFFFFFFFFFFFFFFFFFFFFFFFF AND PUSH20 0xFFFFFFFFFFFFFFFFFFFFFFFFFFFFFFFFFFFFFFFF AND DUP2 MSTORE PUSH1 0x20 ADD SWAP1 DUP2 MSTORE PUSH1 0x20 ADD PUSH1 0x0 KECCAK256 SLOAD SWAP1 POP SWAP2 SWAP1 POP JUMP JUMPDEST PUSH1 0x0 PUSH2 0xD9E PUSH2 0xD02 PUSH2 0x15A3 JUMP JUMPDEST DUP5 PUSH2 0xD99 DUP6 PUSH1 0x1 PUSH1 0x0 PUSH2 0xD13 PUSH2 0x15A3 JUMP JUMPDEST PUSH20 0xFFFFFFFFFFFFFFFFFFFFFFFFFFFFFFFFFFFFFFFF AND PUSH20 0xFFFFFFFFFFFFFFFFFFFFFFFFFFFFFFFFFFFFFFFF AND DUP2 MSTORE PUSH1 0x20 ADD SWAP1 DUP2 MSTORE PUSH1 0x20 ADD PUSH1 0x0 KECCAK256 PUSH1 0x0 DUP10 PUSH20 0xFFFFFFFFFFFFFFFFFFFFFFFFFFFFFFFFFFFFFFFF AND PUSH20 0xFFFFFFFFFFFFFFFFFFFFFFFFFFFFFFFFFFFFFFFF AND DUP2 MSTORE PUSH1 0x20 ADD SWAP1 DUP2 MSTORE PUSH1 0x20 ADD PUSH1 0x0 KECCAK256 SLOAD PUSH2 0x1CDF SWAP1 SWAP2 SWAP1 PUSH4 0xFFFFFFFF AND JUMP JUMPDEST PUSH2 0x15AB JUMP JUMPDEST PUSH1 0x1 SWAP1 POP SWAP3 SWAP2 POP POP JUMP JUMPDEST PUSH1 0x0 PUSH2 0xDBA PUSH2 0xDB5 PUSH2 0x15A3 JUMP JUMPDEST PUSH2 0x1471 JUMP JUMPDEST ISZERO ISZERO PUSH2 0xE11 JUMPI PUSH1 0x40 MLOAD PUSH32 0x8C379A000000000000000000000000000000000000000000000000000000000 DUP2 MSTORE PUSH1 0x4 ADD DUP1 DUP1 PUSH1 0x20 ADD DUP3 DUP2 SUB DUP3 MSTORE PUSH1 0x30 DUP2 MSTORE PUSH1 0x20 ADD DUP1 PUSH2 0x22C0 PUSH1 0x30 SWAP2 CODECOPY PUSH1 0x40 ADD SWAP2 POP POP PUSH1 0x40 MLOAD DUP1 SWAP2 SUB SWAP1 REVERT JUMPDEST PUSH2 0xE1B DUP4 DUP4 PUSH2 0x1B22 JUMP JUMPDEST PUSH1 0x1 SWAP1 POP SWAP3 SWAP2 POP POP JUMP JUMPDEST PUSH1 0x0 DUP1 PUSH1 0x0 DUP4 PUSH20 0xFFFFFFFFFFFFFFFFFFFFFFFFFFFFFFFFFFFFFFFF AND PUSH20 0xFFFFFFFFFFFFFFFFFFFFFFFFFFFFFFFFFFFFFFFF AND DUP2 MSTORE PUSH1 0x20 ADD SWAP1 DUP2 MSTORE PUSH1 0x20 ADD PUSH1 0x0 KECCAK256 SLOAD SWAP1 POP SWAP2 SWAP1 POP JUMP JUMPDEST PUSH2 0xE75 PUSH2 0xFDA JUMP JUMPDEST ISZERO ISZERO PUSH2 0xEE9 JUMPI PUSH1 0x40 MLOAD PUSH32 0x8C379A000000000000000000000000000000000000000000000000000000000 DUP2 MSTORE PUSH1 0x4 ADD DUP1 DUP1 PUSH1 0x20 ADD DUP3 DUP2 SUB DUP3 MSTORE PUSH1 0x20 DUP2 MSTORE PUSH1 0x20 ADD DUP1 PUSH32 0x4F776E61626C653A2063616C6C6572206973206E6F7420746865206F776E6572 DUP2 MSTORE POP PUSH1 0x20 ADD SWAP2 POP POP PUSH1 0x40 MLOAD DUP1 SWAP2 SUB SWAP1 REVERT JUMPDEST PUSH1 0x0 PUSH20 0xFFFFFFFFFFFFFFFFFFFFFFFFFFFFFFFFFFFFFFFF AND PUSH1 0x7 PUSH1 0x0 SWAP1 SLOAD SWAP1 PUSH2 0x100 EXP SWAP1 DIV PUSH20 0xFFFFFFFFFFFFFFFFFFFFFFFFFFFFFFFFFFFFFFFF AND PUSH20 0xFFFFFFFFFFFFFFFFFFFFFFFFFFFFFFFFFFFFFFFF AND PUSH32 0x8BE0079C531659141344CD1FD0A4F28419497F9722A3DAAFE3B4186F6B6457E0 PUSH1 0x40 MLOAD PUSH1 0x40 MLOAD DUP1 SWAP2 SUB SWAP1 LOG3 PUSH1 0x0 PUSH1 0x7 PUSH1 0x0 PUSH2 0x100 EXP DUP2 SLOAD DUP2 PUSH20 0xFFFFFFFFFFFFFFFFFFFFFFFFFFFFFFFFFFFFFFFF MUL NOT AND SWAP1 DUP4 PUSH20 0xFFFFFFFFFFFFFFFFFFFFFFFFFFFFFFFFFFFFFFFF AND MUL OR SWAP1 SSTORE POP JUMP JUMPDEST PUSH1 0x9 SLOAD DUP2 JUMP JUMPDEST PUSH1 0x0 PUSH1 0x7 PUSH1 0x0 SWAP1 SLOAD SWAP1 PUSH2 0x100 EXP SWAP1 DIV PUSH20 0xFFFFFFFFFFFFFFFFFFFFFFFFFFFFFFFFFFFFFFFF AND SWAP1 POP SWAP1 JUMP JUMPDEST PUSH1 0x0 PUSH1 0x7 PUSH1 0x0 SWAP1 SLOAD SWAP1 PUSH2 0x100 EXP SWAP1 DIV PUSH20 0xFFFFFFFFFFFFFFFFFFFFFFFFFFFFFFFFFFFFFFFF AND PUSH20 0xFFFFFFFFFFFFFFFFFFFFFFFFFFFFFFFFFFFFFFFF AND PUSH2 0x101D PUSH2 0x15A3 JUMP JUMPDEST PUSH20 0xFFFFFFFFFFFFFFFFFFFFFFFFFFFFFFFFFFFFFFFF AND EQ SWAP1 POP SWAP1 JUMP JUMPDEST PUSH1 0x60 PUSH1 0x4 DUP1 SLOAD PUSH1 0x1 DUP2 PUSH1 0x1 AND ISZERO PUSH2 0x100 MUL SUB AND PUSH1 0x2 SWAP1 DIV DUP1 PUSH1 0x1F ADD PUSH1 0x20 DUP1 SWAP2 DIV MUL PUSH1 0x20 ADD PUSH1 0x40 MLOAD SWAP1 DUP2 ADD PUSH1 0x40 MSTORE DUP1 SWAP3 SWAP2 SWAP1 DUP2 DUP2 MSTORE PUSH1 0x20 ADD DUP3 DUP1 SLOAD PUSH1 0x1 DUP2 PUSH1 0x1 AND ISZERO PUSH2 0x100 MUL SUB AND PUSH1 0x2 SWAP1 DIV DUP1 ISZERO PUSH2 0x10D1 JUMPI DUP1 PUSH1 0x1F LT PUSH2 0x10A6 JUMPI PUSH2 0x100 DUP1 DUP4 SLOAD DIV MUL DUP4 MSTORE SWAP2 PUSH1 0x20 ADD SWAP2 PUSH2 0x10D1 JUMP JUMPDEST DUP3 ADD SWAP2 SWAP1 PUSH1 0x0 MSTORE PUSH1 0x20 PUSH1 0x0 KECCAK256 SWAP1 JUMPDEST DUP2 SLOAD DUP2 MSTORE SWAP1 PUSH1 0x1 ADD SWAP1 PUSH1 0x20 ADD DUP1 DUP4 GT PUSH2 0x10B4 JUMPI DUP3 SWAP1 SUB PUSH1 0x1F AND DUP3 ADD SWAP2 JUMPDEST POP POP POP POP POP SWAP1 POP SWAP1 JUMP JUMPDEST PUSH2 0x10EB PUSH2 0x10E6 PUSH2 0x15A3 JUMP JUMPDEST PUSH2 0x1471 JUMP JUMPDEST ISZERO ISZERO PUSH2 0x1142 JUMPI PUSH1 0x40 MLOAD PUSH32 0x8C379A000000000000000000000000000000000000000000000000000000000 DUP2 MSTORE PUSH1 0x4 ADD DUP1 DUP1 PUSH1 0x20 ADD DUP3 DUP2 SUB DUP3 MSTORE PUSH1 0x30 DUP2 MSTORE PUSH1 0x20 ADD DUP1 PUSH2 0x22C0 PUSH1 0x30 SWAP2 CODECOPY PUSH1 0x40 ADD SWAP2 POP POP PUSH1 0x40 MLOAD DUP1 SWAP2 SUB SWAP1 REVERT JUMPDEST PUSH2 0x114B DUP2 PUSH2 0x1D69 JUMP JUMPDEST POP JUMP JUMPDEST PUSH2 0x115E PUSH2 0x1159 PUSH2 0x15A3 JUMP JUMPDEST PUSH2 0x1DC3 JUMP JUMPDEST JUMP JUMPDEST PUSH1 0x0 PUSH2 0x1223 PUSH2 0x116D PUSH2 0x15A3 JUMP JUMPDEST DUP5 PUSH2 0x121E DUP6 PUSH1 0x40 MLOAD DUP1 PUSH1 0x60 ADD PUSH1 0x40 MSTORE DUP1 PUSH1 0x25 DUP2 MSTORE PUSH1 0x20 ADD PUSH2 0x23FF PUSH1 0x25 SWAP2 CODECOPY PUSH1 0x1 PUSH1 0x0 PUSH2 0x1197 PUSH2 0x15A3 JUMP JUMPDEST PUSH20 0xFFFFFFFFFFFFFFFFFFFFFFFFFFFFFFFFFFFFFFFF AND PUSH20 0xFFFFFFFFFFFFFFFFFFFFFFFFFFFFFFFFFFFFFFFF AND DUP2 MSTORE PUSH1 0x20 ADD SWAP1 DUP2 MSTORE PUSH1 0x20 ADD PUSH1 0x0 KECCAK256 PUSH1 0x0 DUP11 PUSH20 0xFFFFFFFFFFFFFFFFFFFFFFFFFFFFFFFFFFFFFFFF AND PUSH20 0xFFFFFFFFFFFFFFFFFFFFFFFFFFFFFFFFFFFFFFFF AND DUP2 MSTORE PUSH1 0x20 ADD SWAP1 DUP2 MSTORE PUSH1 0x20 ADD PUSH1 0x0 KECCAK256 SLOAD PUSH2 0x1A60 SWAP1 SWAP3 SWAP2 SWAP1 PUSH4 0xFFFFFFFF AND JUMP JUMPDEST PUSH2 0x15AB JUMP JUMPDEST PUSH1 0x1 SWAP1 POP SWAP3 SWAP2 POP POP JUMP JUMPDEST PUSH1 0x0 CALLER PUSH20 0xFFFFFFFFFFFFFFFFFFFFFFFFFFFFFFFFFFFFFFFF AND DUP4 PUSH20 0xFFFFFFFFFFFFFFFFFFFFFFFFFFFFFFFFFFFFFFFF AND EQ ISZERO ISZERO ISZERO PUSH2 0x12B6 JUMPI PUSH1 0x40 MLOAD PUSH32 0x8C379A000000000000000000000000000000000000000000000000000000000 DUP2 MSTORE PUSH1 0x4 ADD DUP1 DUP1 PUSH1 0x20 ADD DUP3 DUP2 SUB DUP3 MSTORE PUSH1 0x2C DUP2 MSTORE PUSH1 0x20 ADD DUP1 PUSH2 0x23A4 PUSH1 0x2C SWAP2 CODECOPY PUSH1 0x40 ADD SWAP2 POP POP PUSH1 0x40 MLOAD DUP1 SWAP2 SUB SWAP1 REVERT JUMPDEST PUSH1 0x0 DUP3 GT ISZERO ISZERO PUSH2 0x1311 JUMPI PUSH1 0x40 MLOAD PUSH32 0x8C379A000000000000000000000000000000000000000000000000000000000 DUP2 MSTORE PUSH1 0x4 ADD DUP1 DUP1 PUSH1 0x20 ADD DUP3 DUP2 SUB DUP3 MSTORE PUSH1 0x27 DUP2 MSTORE PUSH1 0x20 ADD DUP1 PUSH2 0x2299 PUSH1 0x27 SWAP2 CODECOPY PUSH1 0x40 ADD SWAP2 POP POP PUSH1 0x40 MLOAD DUP1 SWAP2 SUB SWAP1 REVERT JUMPDEST DUP2 PUSH2 0x131B CALLER PUSH2 0xE25 JUMP JUMPDEST LT ISZERO ISZERO ISZERO PUSH2 0x1374 JUMPI PUSH1 0x40 MLOAD PUSH32 0x8C379A000000000000000000000000000000000000000000000000000000000 DUP2 MSTORE PUSH1 0x4 ADD DUP1 DUP1 PUSH1 0x20 ADD DUP3 DUP2 SUB DUP3 MSTORE PUSH1 0x2F DUP2 MSTORE PUSH1 0x20 ADD DUP1 PUSH2 0x23D0 PUSH1 0x2F SWAP2 CODECOPY PUSH1 0x40 ADD SWAP2 POP POP PUSH1 0x40 MLOAD DUP1 SWAP2 SUB SWAP1 REVERT JUMPDEST PUSH2 0x137F CALLER DUP5 DUP5 PUSH2 0x17A6 JUMP JUMPDEST PUSH1 0xA PUSH1 0x0 CALLER PUSH20 0xFFFFFFFFFFFFFFFFFFFFFFFFFFFFFFFFFFFFFFFF AND PUSH20 0xFFFFFFFFFFFFFFFFFFFFFFFFFFFFFFFFFFFFFFFF AND DUP2 MSTORE PUSH1 0x20 ADD SWAP1 DUP2 MSTORE PUSH1 0x20 ADD PUSH1 0x0 KECCAK256 SLOAD PUSH1 0xA PUSH1 0x0 DUP6 PUSH20 0xFFFFFFFFFFFFFFFFFFFFFFFFFFFFFFFFFFFFFFFF AND PUSH20 0xFFFFFFFFFFFFFFFFFFFFFFFFFFFFFFFFFFFFFFFF AND DUP2 MSTORE PUSH1 0x20 ADD SWAP1 DUP2 MSTORE PUSH1 0x20 ADD PUSH1 0x0 KECCAK256 DUP2 SWAP1 SSTORE POP DUP3 PUSH20 0xFFFFFFFFFFFFFFFFFFFFFFFFFFFFFFFFFFFFFFFF AND CALLER PUSH20 0xFFFFFFFFFFFFFFFFFFFFFFFFFFFFFFFFFFFFFFFF AND PUSH32 0xDDF252AD1BE2C89B69C2B068FC378DAA952BA7F163C4A11628F55A4DF523B3EF DUP5 PUSH1 0x40 MLOAD DUP1 DUP3 DUP2 MSTORE PUSH1 0x20 ADD SWAP2 POP POP PUSH1 0x40 MLOAD DUP1 SWAP2 SUB SWAP1 LOG3 PUSH1 0x1 SWAP1 POP SWAP3 SWAP2 POP POP JUMP JUMPDEST PUSH1 0x0 PUSH2 0x1487 DUP3 PUSH1 0x6 PUSH2 0x1E1D SWAP1 SWAP2 SWAP1 PUSH4 0xFFFFFFFF AND JUMP JUMPDEST SWAP1 POP SWAP2 SWAP1 POP JUMP JUMPDEST PUSH1 0x0 PUSH1 0x1 PUSH1 0x0 DUP5 PUSH20 0xFFFFFFFFFFFFFFFFFFFFFFFFFFFFFFFFFFFFFFFF AND PUSH20 0xFFFFFFFFFFFFFFFFFFFFFFFFFFFFFFFFFFFFFFFF AND DUP2 MSTORE PUSH1 0x20 ADD SWAP1 DUP2 MSTORE PUSH1 0x20 ADD PUSH1 0x0 KECCAK256 PUSH1 0x0 DUP4 PUSH20 0xFFFFFFFFFFFFFFFFFFFFFFFFFFFFFFFFFFFFFFFF AND PUSH20 0xFFFFFFFFFFFFFFFFFFFFFFFFFFFFFFFFFFFFFFFF AND DUP2 MSTORE PUSH1 0x20 ADD SWAP1 DUP2 MSTORE PUSH1 0x20 ADD PUSH1 0x0 KECCAK256 SLOAD SWAP1 POP SWAP3 SWAP2 POP POP JUMP JUMPDEST PUSH2 0x151D PUSH2 0xFDA JUMP JUMPDEST ISZERO ISZERO PUSH2 0x1591 JUMPI PUSH1 0x40 MLOAD PUSH32 0x8C379A000000000000000000000000000000000000000000000000000000000 DUP2 MSTORE PUSH1 0x4 ADD DUP1 DUP1 PUSH1 0x20 ADD DUP3 DUP2 SUB DUP3 MSTORE PUSH1 0x20 DUP2 MSTORE PUSH1 0x20 ADD DUP1 PUSH32 0x4F776E61626C653A2063616C6C6572206973206E6F7420746865206F776E6572 DUP2 MSTORE POP PUSH1 0x20 ADD SWAP2 POP POP PUSH1 0x40 MLOAD DUP1 SWAP2 SUB SWAP1 REVERT JUMPDEST PUSH2 0x159A DUP2 PUSH2 0x1EFD JUMP JUMPDEST POP JUMP JUMPDEST PUSH1 0x8 SLOAD DUP2 JUMP JUMPDEST PUSH1 0x0 CALLER SWAP1 POP SWAP1 JUMP JUMPDEST PUSH1 0x0 PUSH20 0xFFFFFFFFFFFFFFFFFFFFFFFFFFFFFFFFFFFFFFFF AND DUP4 PUSH20 0xFFFFFFFFFFFFFFFFFFFFFFFFFFFFFFFFFFFFFFFF AND EQ ISZERO ISZERO ISZERO PUSH2 0x1633 JUMPI PUSH1 0x40 MLOAD PUSH32 0x8C379A000000000000000000000000000000000000000000000000000000000 DUP2 MSTORE PUSH1 0x4 ADD DUP1 DUP1 PUSH1 0x20 ADD DUP3 DUP2 SUB DUP3 MSTORE PUSH1 0x24 DUP2 MSTORE PUSH1 0x20 ADD DUP1 PUSH2 0x2380 PUSH1 0x24 SWAP2 CODECOPY PUSH1 0x40 ADD SWAP2 POP POP PUSH1 0x40 MLOAD DUP1 SWAP2 SUB SWAP1 REVERT JUMPDEST PUSH1 0x0 PUSH20 0xFFFFFFFFFFFFFFFFFFFFFFFFFFFFFFFFFFFFFFFF AND DUP3 PUSH20 0xFFFFFFFFFFFFFFFFFFFFFFFFFFFFFFFFFFFFFFFF AND EQ ISZERO ISZERO ISZERO PUSH2 0x16BB JUMPI PUSH1 0x40 MLOAD PUSH32 0x8C379A000000000000000000000000000000000000000000000000000000000 DUP2 MSTORE PUSH1 0x4 ADD DUP1 DUP1 PUSH1 0x20 ADD DUP3 DUP2 SUB DUP3 MSTORE PUSH1 0x22 DUP2 MSTORE PUSH1 0x20 ADD DUP1 PUSH2 0x2251 PUSH1 0x22 SWAP2 CODECOPY PUSH1 0x40 ADD SWAP2 POP POP PUSH1 0x40 MLOAD DUP1 SWAP2 SUB SWAP1 REVERT JUMPDEST DUP1 PUSH1 0x1 PUSH1 0x0 DUP6 PUSH20 0xFFFFFFFFFFFFFFFFFFFFFFFFFFFFFFFFFFFFFFFF AND PUSH20 0xFFFFFFFFFFFFFFFFFFFFFFFFFFFFFFFFFFFFFFFF AND DUP2 MSTORE PUSH1 0x20 ADD SWAP1 DUP2 MSTORE PUSH1 0x20 ADD PUSH1 0x0 KECCAK256 PUSH1 0x0 DUP5 PUSH20 0xFFFFFFFFFFFFFFFFFFFFFFFFFFFFFFFFFFFFFFFF AND PUSH20 0xFFFFFFFFFFFFFFFFFFFFFFFFFFFFFFFFFFFFFFFF AND DUP2 MSTORE PUSH1 0x20 ADD SWAP1 DUP2 MSTORE PUSH1 0x20 ADD PUSH1 0x0 KECCAK256 DUP2 SWAP1 SSTORE POP DUP2 PUSH20 0xFFFFFFFFFFFFFFFFFFFFFFFFFFFFFFFFFFFFFFFF AND DUP4 PUSH20 0xFFFFFFFFFFFFFFFFFFFFFFFFFFFFFFFFFFFFFFFF AND PUSH32 0x8C5BE1E5EBEC7D5BD14F71427D1E84F3DD0314C0F7B2291E5B200AC8C7C3B925 DUP4 PUSH1 0x40 MLOAD DUP1 DUP3 DUP2 MSTORE PUSH1 0x20 ADD SWAP2 POP POP PUSH1 0x40 MLOAD DUP1 SWAP2 SUB SWAP1 LOG3 POP POP POP JUMP JUMPDEST PUSH1 0x0 PUSH20 0xFFFFFFFFFFFFFFFFFFFFFFFFFFFFFFFFFFFFFFFF AND DUP4 PUSH20 0xFFFFFFFFFFFFFFFFFFFFFFFFFFFFFFFFFFFFFFFF AND EQ ISZERO ISZERO ISZERO PUSH2 0x182E JUMPI PUSH1 0x40 MLOAD PUSH32 0x8C379A000000000000000000000000000000000000000000000000000000000 DUP2 MSTORE PUSH1 0x4 ADD DUP1 DUP1 PUSH1 0x20 ADD DUP3 DUP2 SUB DUP3 MSTORE PUSH1 0x25 DUP2 MSTORE PUSH1 0x20 ADD DUP1 PUSH2 0x235B PUSH1 0x25 SWAP2 CODECOPY PUSH1 0x40 ADD SWAP2 POP POP PUSH1 0x40 MLOAD DUP1 SWAP2 SUB SWAP1 REVERT JUMPDEST PUSH1 0x0 PUSH20 0xFFFFFFFFFFFFFFFFFFFFFFFFFFFFFFFFFFFFFFFF AND DUP3 PUSH20 0xFFFFFFFFFFFFFFFFFFFFFFFFFFFFFFFFFFFFFFFF AND EQ ISZERO ISZERO ISZERO PUSH2 0x18B6 JUMPI PUSH1 0x40 MLOAD PUSH32 0x8C379A000000000000000000000000000000000000000000000000000000000 DUP2 MSTORE PUSH1 0x4 ADD DUP1 DUP1 PUSH1 0x20 ADD DUP3 DUP2 SUB DUP3 MSTORE PUSH1 0x23 DUP2 MSTORE PUSH1 0x20 ADD DUP1 PUSH2 0x21E2 PUSH1 0x23 SWAP2 CODECOPY PUSH1 0x40 ADD SWAP2 POP POP PUSH1 0x40 MLOAD DUP1 SWAP2 SUB SWAP1 REVERT JUMPDEST PUSH2 0x1921 DUP2 PUSH1 0x40 MLOAD DUP1 PUSH1 0x60 ADD PUSH1 0x40 MSTORE DUP1 PUSH1 0x26 DUP2 MSTORE PUSH1 0x20 ADD PUSH2 0x2273 PUSH1 0x26 SWAP2 CODECOPY PUSH1 0x0 DUP1 DUP8 PUSH20 0xFFFFFFFFFFFFFFFFFFFFFFFFFFFFFFFFFFFFFFFF AND PUSH20 0xFFFFFFFFFFFFFFFFFFFFFFFFFFFFFFFFFFFFFFFF AND DUP2 MSTORE PUSH1 0x20 ADD SWAP1 DUP2 MSTORE PUSH1 0x20 ADD PUSH1 0x0 KECCAK256 SLOAD PUSH2 0x1A60 SWAP1 SWAP3 SWAP2 SWAP1 PUSH4 0xFFFFFFFF AND JUMP JUMPDEST PUSH1 0x0 DUP1 DUP6 PUSH20 0xFFFFFFFFFFFFFFFFFFFFFFFFFFFFFFFFFFFFFFFF AND PUSH20 0xFFFFFFFFFFFFFFFFFFFFFFFFFFFFFFFFFFFFFFFF AND DUP2 MSTORE PUSH1 0x20 ADD SWAP1 DUP2 MSTORE PUSH1 0x20 ADD PUSH1 0x0 KECCAK256 DUP2 SWAP1 SSTORE POP PUSH2 0x19B4 DUP2 PUSH1 0x0 DUP1 DUP6 PUSH20 0xFFFFFFFFFFFFFFFFFFFFFFFFFFFFFFFFFFFFFFFF AND PUSH20 0xFFFFFFFFFFFFFFFFFFFFFFFFFFFFFFFFFFFFFFFF AND DUP2 MSTORE PUSH1 0x20 ADD SWAP1 DUP2 MSTORE PUSH1 0x20 ADD PUSH1 0x0 KECCAK256 SLOAD PUSH2 0x1CDF SWAP1 SWAP2 SWAP1 PUSH4 0xFFFFFFFF AND JUMP JUMPDEST PUSH1 0x0 DUP1 DUP5 PUSH20 0xFFFFFFFFFFFFFFFFFFFFFFFFFFFFFFFFFFFFFFFF AND PUSH20 0xFFFFFFFFFFFFFFFFFFFFFFFFFFFFFFFFFFFFFFFF AND DUP2 MSTORE PUSH1 0x20 ADD SWAP1 DUP2 MSTORE PUSH1 0x20 ADD PUSH1 0x0 KECCAK256 DUP2 SWAP1 SSTORE POP DUP2 PUSH20 0xFFFFFFFFFFFFFFFFFFFFFFFFFFFFFFFFFFFFFFFF AND DUP4 PUSH20 0xFFFFFFFFFFFFFFFFFFFFFFFFFFFFFFFFFFFFFFFF AND PUSH32 0xDDF252AD1BE2C89B69C2B068FC378DAA952BA7F163C4A11628F55A4DF523B3EF DUP4 PUSH1 0x40 MLOAD DUP1 DUP3 DUP2 MSTORE PUSH1 0x20 ADD SWAP2 POP POP PUSH1 0x40 MLOAD DUP1 SWAP2 SUB SWAP1 LOG3 POP POP POP JUMP JUMPDEST PUSH1 0x0 DUP4 DUP4 GT ISZERO DUP3 SWAP1 ISZERO ISZERO PUSH2 0x1B0F JUMPI PUSH1 0x40 MLOAD PUSH32 0x8C379A000000000000000000000000000000000000000000000000000000000 DUP2 MSTORE PUSH1 0x4 ADD DUP1 DUP1 PUSH1 0x20 ADD DUP3 DUP2 SUB DUP3 MSTORE DUP4 DUP2 DUP2 MLOAD DUP2 MSTORE PUSH1 0x20 ADD SWAP2 POP DUP1 MLOAD SWAP1 PUSH1 0x20 ADD SWAP1 DUP1 DUP4 DUP4 PUSH1 0x0 JUMPDEST DUP4 DUP2 LT ISZERO PUSH2 0x1AD4 JUMPI DUP1 DUP3 ADD MLOAD DUP2 DUP5 ADD MSTORE PUSH1 0x20 DUP2 ADD SWAP1 POP PUSH2 0x1AB9 JUMP JUMPDEST POP POP POP POP SWAP1 POP SWAP1 DUP2 ADD SWAP1 PUSH1 0x1F AND DUP1 ISZERO PUSH2 0x1B01 JUMPI DUP1 DUP3 SUB DUP1 MLOAD PUSH1 0x1 DUP4 PUSH1 0x20 SUB PUSH2 0x100 EXP SUB NOT AND DUP2 MSTORE PUSH1 0x20 ADD SWAP2 POP JUMPDEST POP SWAP3 POP POP POP PUSH1 0x40 MLOAD DUP1 SWAP2 SUB SWAP1 REVERT JUMPDEST POP PUSH1 0x0 DUP4 DUP6 SUB SWAP1 POP DUP1 SWAP2 POP POP SWAP4 SWAP3 POP POP POP JUMP JUMPDEST PUSH1 0x0 PUSH20 0xFFFFFFFFFFFFFFFFFFFFFFFFFFFFFFFFFFFFFFFF AND DUP3 PUSH20 0xFFFFFFFFFFFFFFFFFFFFFFFFFFFFFFFFFFFFFFFF AND EQ ISZERO ISZERO ISZERO PUSH2 0x1BC7 JUMPI PUSH1 0x40 MLOAD PUSH32 0x8C379A000000000000000000000000000000000000000000000000000000000 DUP2 MSTORE PUSH1 0x4 ADD DUP1 DUP1 PUSH1 0x20 ADD DUP3 DUP2 SUB DUP3 MSTORE PUSH1 0x1F DUP2 MSTORE PUSH1 0x20 ADD DUP1 PUSH32 0x45524332303A206D696E7420746F20746865207A65726F206164647265737300 DUP2 MSTORE POP PUSH1 0x20 ADD SWAP2 POP POP PUSH1 0x40 MLOAD DUP1 SWAP2 SUB SWAP1 REVERT JUMPDEST PUSH2 0x1BDC DUP2 PUSH1 0x2 SLOAD PUSH2 0x1CDF SWAP1 SWAP2 SWAP1 PUSH4 0xFFFFFFFF AND JUMP JUMPDEST PUSH1 0x2 DUP2 SWAP1 SSTORE POP PUSH2 0x1C33 DUP2 PUSH1 0x0 DUP1 DUP6 PUSH20 0xFFFFFFFFFFFFFFFFFFFFFFFFFFFFFFFFFFFFFFFF AND PUSH20 0xFFFFFFFFFFFFFFFFFFFFFFFFFFFFFFFFFFFFFFFF AND DUP2 MSTORE PUSH1 0x20 ADD SWAP1 DUP2 MSTORE PUSH1 0x20 ADD PUSH1 0x0 KECCAK256 SLOAD PUSH2 0x1CDF SWAP1 SWAP2 SWAP1 PUSH4 0xFFFFFFFF AND JUMP JUMPDEST PUSH1 0x0 DUP1 DUP5 PUSH20 0xFFFFFFFFFFFFFFFFFFFFFFFFFFFFFFFFFFFFFFFF AND PUSH20 0xFFFFFFFFFFFFFFFFFFFFFFFFFFFFFFFFFFFFFFFF AND DUP2 MSTORE PUSH1 0x20 ADD SWAP1 DUP2 MSTORE PUSH1 0x20 ADD PUSH1 0x0 KECCAK256 DUP2 SWAP1 SSTORE POP DUP2 PUSH20 0xFFFFFFFFFFFFFFFFFFFFFFFFFFFFFFFFFFFFFFFF AND PUSH1 0x0 PUSH20 0xFFFFFFFFFFFFFFFFFFFFFFFFFFFFFFFFFFFFFFFF AND PUSH32 0xDDF252AD1BE2C89B69C2B068FC378DAA952BA7F163C4A11628F55A4DF523B3EF DUP4 PUSH1 0x40 MLOAD DUP1 DUP3 DUP2 MSTORE PUSH1 0x20 ADD SWAP2 POP POP PUSH1 0x40 MLOAD DUP1 SWAP2 SUB SWAP1 LOG3 POP POP JUMP JUMPDEST PUSH1 0x0 DUP1 DUP3 DUP5 ADD SWAP1 POP DUP4 DUP2 LT ISZERO ISZERO ISZERO PUSH2 0x1D5F JUMPI PUSH1 0x40 MLOAD PUSH32 0x8C379A000000000000000000000000000000000000000000000000000000000 DUP2 MSTORE PUSH1 0x4 ADD DUP1 DUP1 PUSH1 0x20 ADD DUP3 DUP2 SUB DUP3 MSTORE PUSH1 0x1B DUP2 MSTORE PUSH1 0x20 ADD DUP1 PUSH32 0x536166654D6174683A206164646974696F6E206F766572666C6F770000000000 DUP2 MSTORE POP PUSH1 0x20 ADD SWAP2 POP POP PUSH1 0x40 MLOAD DUP1 SWAP2 SUB SWAP1 REVERT JUMPDEST DUP1 SWAP2 POP POP SWAP3 SWAP2 POP POP JUMP JUMPDEST PUSH2 0x1D7D DUP2 PUSH1 0x6 PUSH2 0x2045 SWAP1 SWAP2 SWAP1 PUSH4 0xFFFFFFFF AND JUMP JUMPDEST DUP1 PUSH20 0xFFFFFFFFFFFFFFFFFFFFFFFFFFFFFFFFFFFFFFFF AND PUSH32 0x6AE172837EA30B801FBFCDD4108AA1D5BF8FF775444FD70256B44E6BF3DFC3F6 PUSH1 0x40 MLOAD PUSH1 0x40 MLOAD DUP1 SWAP2 SUB SWAP1 LOG2 POP JUMP JUMPDEST PUSH2 0x1DD7 DUP2 PUSH1 0x6 PUSH2 0x2122 SWAP1 SWAP2 SWAP1 PUSH4 0xFFFFFFFF AND JUMP JUMPDEST DUP1 PUSH20 0xFFFFFFFFFFFFFFFFFFFFFFFFFFFFFFFFFFFFFFFF AND PUSH32 0xE94479A9F7E1952CC78F2D6BAAB678ADC1B772D936C6583DEF489E524CB66692 PUSH1 0x40 MLOAD PUSH1 0x40 MLOAD DUP1 SWAP2 SUB SWAP1 LOG2 POP JUMP JUMPDEST PUSH1 0x0 DUP1 PUSH20 0xFFFFFFFFFFFFFFFFFFFFFFFFFFFFFFFFFFFFFFFF AND DUP3 PUSH20 0xFFFFFFFFFFFFFFFFFFFFFFFFFFFFFFFFFFFFFFFF AND EQ ISZERO ISZERO ISZERO PUSH2 0x1EA6 JUMPI PUSH1 0x40 MLOAD PUSH32 0x8C379A000000000000000000000000000000000000000000000000000000000 DUP2 MSTORE PUSH1 0x4 ADD DUP1 DUP1 PUSH1 0x20 ADD DUP3 DUP2 SUB DUP3 MSTORE PUSH1 0x22 DUP2 MSTORE PUSH1 0x20 ADD DUP1 PUSH2 0x2339 PUSH1 0x22 SWAP2 CODECOPY PUSH1 0x40 ADD SWAP2 POP POP PUSH1 0x40 MLOAD DUP1 SWAP2 SUB SWAP1 REVERT JUMPDEST DUP3 PUSH1 0x0 ADD PUSH1 0x0 DUP4 PUSH20 0xFFFFFFFFFFFFFFFFFFFFFFFFFFFFFFFFFFFFFFFF AND PUSH20 0xFFFFFFFFFFFFFFFFFFFFFFFFFFFFFFFFFFFFFFFF AND DUP2 MSTORE PUSH1 0x20 ADD SWAP1 DUP2 MSTORE PUSH1 0x20 ADD PUSH1 0x0 KECCAK256 PUSH1 0x0 SWAP1 SLOAD SWAP1 PUSH2 0x100 EXP SWAP1 DIV PUSH1 0xFF AND SWAP1 POP SWAP3 SWAP2 POP POP JUMP JUMPDEST PUSH1 0x0 PUSH20 0xFFFFFFFFFFFFFFFFFFFFFFFFFFFFFFFFFFFFFFFF AND DUP2 PUSH20 0xFFFFFFFFFFFFFFFFFFFFFFFFFFFFFFFFFFFFFFFF AND EQ ISZERO ISZERO ISZERO PUSH2 0x1F85 JUMPI PUSH1 0x40 MLOAD PUSH32 0x8C379A000000000000000000000000000000000000000000000000000000000 DUP2 MSTORE PUSH1 0x4 ADD DUP1 DUP1 PUSH1 0x20 ADD DUP3 DUP2 SUB DUP3 MSTORE PUSH1 0x26 DUP2 MSTORE PUSH1 0x20 ADD DUP1 PUSH2 0x222B PUSH1 0x26 SWAP2 CODECOPY PUSH1 0x40 ADD SWAP2 POP POP PUSH1 0x40 MLOAD DUP1 SWAP2 SUB SWAP1 REVERT JUMPDEST DUP1 PUSH20 0xFFFFFFFFFFFFFFFFFFFFFFFFFFFFFFFFFFFFFFFF AND PUSH1 0x7 PUSH1 0x0 SWAP1 SLOAD SWAP1 PUSH2 0x100 EXP SWAP1 DIV PUSH20 0xFFFFFFFFFFFFFFFFFFFFFFFFFFFFFFFFFFFFFFFF AND PUSH20 0xFFFFFFFFFFFFFFFFFFFFFFFFFFFFFFFFFFFFFFFF AND PUSH32 0x8BE0079C531659141344CD1FD0A4F28419497F9722A3DAAFE3B4186F6B6457E0 PUSH1 0x40 MLOAD PUSH1 0x40 MLOAD DUP1 SWAP2 SUB SWAP1 LOG3 DUP1 PUSH1 0x7 PUSH1 0x0 PUSH2 0x100 EXP DUP2 SLOAD DUP2 PUSH20 0xFFFFFFFFFFFFFFFFFFFFFFFFFFFFFFFFFFFFFFFF MUL NOT AND SWAP1 DUP4 PUSH20 0xFFFFFFFFFFFFFFFFFFFFFFFFFFFFFFFFFFFFFFFF AND MUL OR SWAP1 SSTORE POP POP JUMP JUMPDEST PUSH2 0x204F DUP3 DUP3 PUSH2 0x1E1D JUMP JUMPDEST ISZERO ISZERO ISZERO PUSH2 0x20C4 JUMPI PUSH1 0x40 MLOAD PUSH32 0x8C379A000000000000000000000000000000000000000000000000000000000 DUP2 MSTORE PUSH1 0x4 ADD DUP1 DUP1 PUSH1 0x20 ADD DUP3 DUP2 SUB DUP3 MSTORE PUSH1 0x1F DUP2 MSTORE PUSH1 0x20 ADD DUP1 PUSH32 0x526F6C65733A206163636F756E7420616C72656164792068617320726F6C6500 DUP2 MSTORE POP PUSH1 0x20 ADD SWAP2 POP POP PUSH1 0x40 MLOAD DUP1 SWAP2 SUB SWAP1 REVERT JUMPDEST PUSH1 0x1 DUP3 PUSH1 0x0 ADD PUSH1 0x0 DUP4 PUSH20 0xFFFFFFFFFFFFFFFFFFFFFFFFFFFFFFFFFFFFFFFF AND PUSH20 0xFFFFFFFFFFFFFFFFFFFFFFFFFFFFFFFFFFFFFFFF AND DUP2 MSTORE PUSH1 0x20 ADD SWAP1 DUP2 MSTORE PUSH1 0x20 ADD PUSH1 0x0 KECCAK256 PUSH1 0x0 PUSH2 0x100 EXP DUP2 SLOAD DUP2 PUSH1 0xFF MUL NOT AND SWAP1 DUP4 ISZERO ISZERO MUL OR SWAP1 SSTORE POP POP POP JUMP JUMPDEST PUSH2 0x212C DUP3 DUP3 PUSH2 0x1E1D JUMP JUMPDEST ISZERO ISZERO PUSH2 0x2183 JUMPI PUSH1 0x40 MLOAD PUSH32 0x8C379A000000000000000000000000000000000000000000000000000000000 DUP2 MSTORE PUSH1 0x4 ADD DUP1 DUP1 PUSH1 0x20 ADD DUP3 DUP2 SUB DUP3 MSTORE PUSH1 0x21 DUP2 MSTORE PUSH1 0x20 ADD DUP1 PUSH2 0x22F0 PUSH1 0x21 SWAP2 CODECOPY PUSH1 0x40 ADD SWAP2 POP POP PUSH1 0x40 MLOAD DUP1 SWAP2 SUB SWAP1 REVERT JUMPDEST PUSH1 0x0 DUP3 PUSH1 0x0 ADD PUSH1 0x0 DUP4 PUSH20 0xFFFFFFFFFFFFFFFFFFFFFFFFFFFFFFFFFFFFFFFF AND PUSH20 0xFFFFFFFFFFFFFFFFFFFFFFFFFFFFFFFFFFFFFFFF AND DUP2 MSTORE PUSH1 0x20 ADD SWAP1 DUP2 MSTORE PUSH1 0x20 ADD PUSH1 0x0 KECCAK256 PUSH1 0x0 PUSH2 0x100 EXP DUP2 SLOAD DUP2 PUSH1 0xFF MUL NOT AND SWAP1 DUP4 ISZERO ISZERO MUL OR SWAP1 SSTORE POP POP POP JUMP INVALID GASLIMIT MSTORE NUMBER ORIGIN ADDRESS GASPRICE KECCAK256 PUSH21 0x72616E7366657220746F20746865207A65726F2061 PUSH5 0x6472657373 0x4e PUSH16 0x7420656E6F756768204554482073656E PUSH21 0x20746F20707572636861736520746F6B656E734F77 PUSH15 0x61626C653A206E6577206F776E6572 KECCAK256 PUSH10 0x7320746865207A65726F KECCAK256 PUSH2 0x6464 PUSH19 0x65737345524332303A20617070726F76652074 PUSH16 0x20746865207A65726F20616464726573 PUSH20 0x45524332303A207472616E7366657220616D6F75 PUSH15 0x7420657863656564732062616C616E PUSH4 0x65547261 PUSH15 0x7366657220616D6F756E74206D7573 PUSH21 0x2062652067726561746572207468616E20302E4D69 PUSH15 0x746572526F6C653A2063616C6C6572 KECCAK256 PUSH5 0x6F6573206E PUSH16 0x74206861766520746865204D696E7465 PUSH19 0x20726F6C65526F6C65733A206163636F756E74 KECCAK256 PUSH5 0x6F6573206E PUSH16 0x74206861766520726F6C654552433230 GASPRICE KECCAK256 PUSH21 0x72616E7366657220616D6F756E7420657863656564 PUSH20 0x20616C6C6F77616E6365526F6C65733A20616363 PUSH16 0x756E7420697320746865207A65726F20 PUSH2 0x6464 PUSH19 0x65737345524332303A207472616E7366657220 PUSH7 0x726F6D20746865 KECCAK256 PUSH27 0x65726F206164647265737345524332303A20617070726F76652066 PUSH19 0x6F6D20746865207A65726F2061646472657373 MSTORE8 PUSH6 0x6E6465722063 PUSH2 0x6E6E PUSH16 0x74207472616E7366657220746F6B656E PUSH20 0x20746F207468656D73656C7665732E53656E6465 PUSH19 0x20646F6573206E6F74206861766520656E6F75 PUSH8 0x6820746F6B656E73 KECCAK256 PUSH21 0x6F207472616E736665722E45524332303A20646563 PUSH19 0x656173656420616C6C6F77616E63652062656C PUSH16 0x77207A65726FA165627A7A7230582018 PUSH4 0xBE9300CB 0x4b SWAP16 0xc2 0xcf 0x5c CALLVALUE 0xd0 OR 0xe8 0xef 0xb0 CALLDATALOAD 0x4c PUSH28 0x36596A735FB1598FEC245B900029526F6C65733A206163636F756E74 KECCAK256 PUSH10 0x7320746865207A65726F KECCAK256 PUSH2 0x6464 PUSH19 0x65737300000000000000000000000000000000 "
				},
				"gasEstimates": {
					"creation": {
						"codeDepositCost": "1859000",
						"executionCost": "infinite",
						"totalCost": "infinite"
					},
					"external": {
						"addMinter(address)": "infinite",
						"allowance(address,address)": "787",
						"approve(address,uint256)": "infinite",
						"balanceOf(address)": "729",
						"currentPropertyValue()": "450",
						"decimals()": "484",
						"decreaseAllowance(address,uint256)": "infinite",
						"getInitialTokenValue(address)": "663",
						"getTokenValue()": "512",
						"increaseAllowance(address,uint256)": "infinite",
						"initialPropertyPrice()": "515",
						"isMinter(address)": "infinite",
						"isOwner()": "602",
						"mint(address,uint256)": "infinite",
						"name()": "infinite",
						"owner()": "528",
						"purchaseTokens()": "infinite",
						"renounceMinter()": "infinite",
						"renounceOwnership()": "22561",
						"symbol()": "infinite",
						"totalSupply()": "525",
						"transfer(address,uint256)": "infinite",
						"transferFrom(address,address,uint256)": "infinite",
						"transferOwnership(address)": "infinite",
						"updateTokenValue(uint256)": "20612"
					}
				},
				"methodIdentifiers": {
					"addMinter(address)": "983b2d56",
					"allowance(address,address)": "dd62ed3e",
					"approve(address,uint256)": "095ea7b3",
					"balanceOf(address)": "70a08231",
					"currentPropertyValue()": "883400e6",
					"decimals()": "313ce567",
					"decreaseAllowance(address,uint256)": "a457c2d7",
					"getInitialTokenValue(address)": "32a4031b",
					"getTokenValue()": "06ffce53",
					"increaseAllowance(address,uint256)": "39509351",
					"initialPropertyPrice()": "f3a5303e",
					"isMinter(address)": "aa271e1a",
					"isOwner()": "8f32d59b",
					"mint(address,uint256)": "40c10f19",
					"name()": "06fdde03",
					"owner()": "8da5cb5b",
					"purchaseTokens()": "3290ce29",
					"renounceMinter()": "98650275",
					"renounceOwnership()": "715018a6",
					"symbol()": "95d89b41",
					"totalSupply()": "18160ddd",
					"transfer(address,uint256)": "a9059cbb",
					"transferFrom(address,address,uint256)": "23b872dd",
					"transferOwnership(address)": "f2fde38b",
					"updateTokenValue(uint256)": "0514ae7b"
				}
			},
			"userdoc": {
				"methods": {}
			}
		}
	}
}